{
	"contracts/Twitter.sol": {
		"Twitter": {
			"abi": [
				{
					"inputs": [
						{
							"internalType": "address",
							"name": "_profileContract",
							"type": "address"
						}
					],
					"stateMutability": "nonpayable",
					"type": "constructor"
				},
				{
					"inputs": [
						{
							"internalType": "address",
							"name": "owner",
							"type": "address"
						}
					],
					"name": "OwnableInvalidOwner",
					"type": "error"
				},
				{
					"inputs": [
						{
							"internalType": "address",
							"name": "account",
							"type": "address"
						}
					],
					"name": "OwnableUnauthorizedAccount",
					"type": "error"
				},
				{
					"anonymous": false,
					"inputs": [
						{
							"indexed": true,
							"internalType": "address",
							"name": "previousOwner",
							"type": "address"
						},
						{
							"indexed": true,
							"internalType": "address",
							"name": "newOwner",
							"type": "address"
						}
					],
					"name": "OwnershipTransferred",
					"type": "event"
				},
				{
					"anonymous": false,
					"inputs": [
						{
							"indexed": false,
							"internalType": "uint256",
							"name": "id",
							"type": "uint256"
						},
						{
							"indexed": false,
							"internalType": "address",
							"name": "author",
							"type": "address"
						},
						{
							"indexed": false,
							"internalType": "string",
							"name": "content",
							"type": "string"
						},
						{
							"indexed": false,
							"internalType": "uint256",
							"name": "timestamp",
							"type": "uint256"
						}
					],
					"name": "TweetCreated",
					"type": "event"
				},
				{
					"anonymous": false,
					"inputs": [
						{
							"indexed": false,
							"internalType": "address",
							"name": "liker",
							"type": "address"
						},
						{
							"indexed": false,
							"internalType": "address",
							"name": "tweetAuthor",
							"type": "address"
						},
						{
							"indexed": false,
							"internalType": "uint256",
							"name": "tweetId",
							"type": "uint256"
						},
						{
							"indexed": false,
							"internalType": "uint256",
							"name": "newLikeCount",
							"type": "uint256"
						}
					],
					"name": "TweetLiked",
					"type": "event"
				},
				{
					"anonymous": false,
					"inputs": [
						{
							"indexed": false,
							"internalType": "address",
							"name": "UnLiker",
							"type": "address"
						},
						{
							"indexed": false,
							"internalType": "address",
							"name": "tweetAuthor",
							"type": "address"
						},
						{
							"indexed": false,
							"internalType": "uint256",
							"name": "tweetId",
							"type": "uint256"
						},
						{
							"indexed": false,
							"internalType": "uint256",
							"name": "newLikeCount",
							"type": "uint256"
						}
					],
					"name": "TweetUnLiked",
					"type": "event"
				},
				{
					"inputs": [],
					"name": "MAX_TWEET_LENGTH",
					"outputs": [
						{
							"internalType": "uint16",
							"name": "",
							"type": "uint16"
						}
					],
					"stateMutability": "view",
					"type": "function"
				},
				{
					"inputs": [
						{
							"internalType": "uint16",
							"name": "newTweetLength",
							"type": "uint16"
						}
					],
					"name": "changeTweetLength",
					"outputs": [],
					"stateMutability": "nonpayable",
					"type": "function"
				},
				{
					"inputs": [
						{
							"internalType": "string",
							"name": "_tweet",
							"type": "string"
						}
					],
					"name": "createTweet",
					"outputs": [],
					"stateMutability": "nonpayable",
					"type": "function"
				},
				{
					"inputs": [
						{
							"internalType": "address",
							"name": "_owner",
							"type": "address"
						}
					],
					"name": "getAllTweets",
					"outputs": [
						{
							"components": [
								{
									"internalType": "uint256",
									"name": "id",
									"type": "uint256"
								},
								{
									"internalType": "address",
									"name": "author",
									"type": "address"
								},
								{
									"internalType": "string",
									"name": "content",
									"type": "string"
								},
								{
									"internalType": "uint256",
									"name": "timestamp",
									"type": "uint256"
								},
								{
									"internalType": "uint256",
									"name": "likes",
									"type": "uint256"
								}
							],
							"internalType": "struct Twitter.Tweet[]",
							"name": "",
							"type": "tuple[]"
						}
					],
					"stateMutability": "view",
					"type": "function"
				},
				{
					"inputs": [
						{
							"internalType": "address",
							"name": "_author",
							"type": "address"
						}
					],
					"name": "getTotalLikes",
					"outputs": [
						{
							"internalType": "uint256",
							"name": "",
							"type": "uint256"
						}
					],
					"stateMutability": "view",
					"type": "function"
				},
				{
					"inputs": [
						{
							"internalType": "uint256",
							"name": "_i",
							"type": "uint256"
						}
					],
					"name": "getTweet",
					"outputs": [
						{
							"components": [
								{
									"internalType": "uint256",
									"name": "id",
									"type": "uint256"
								},
								{
									"internalType": "address",
									"name": "author",
									"type": "address"
								},
								{
									"internalType": "string",
									"name": "content",
									"type": "string"
								},
								{
									"internalType": "uint256",
									"name": "timestamp",
									"type": "uint256"
								},
								{
									"internalType": "uint256",
									"name": "likes",
									"type": "uint256"
								}
							],
							"internalType": "struct Twitter.Tweet",
							"name": "",
							"type": "tuple"
						}
					],
					"stateMutability": "view",
					"type": "function"
				},
				{
					"inputs": [
						{
							"internalType": "address",
							"name": "author",
							"type": "address"
						},
						{
							"internalType": "uint256",
							"name": "id",
							"type": "uint256"
						}
					],
					"name": "likeTweet",
					"outputs": [],
					"stateMutability": "nonpayable",
					"type": "function"
				},
				{
					"inputs": [],
					"name": "owner",
					"outputs": [
						{
							"internalType": "address",
							"name": "",
							"type": "address"
						}
					],
					"stateMutability": "view",
					"type": "function"
				},
				{
					"inputs": [],
					"name": "profileContract",
					"outputs": [
						{
							"internalType": "contract IProfile",
							"name": "",
							"type": "address"
						}
					],
					"stateMutability": "view",
					"type": "function"
				},
				{
					"inputs": [],
					"name": "renounceOwnership",
					"outputs": [],
					"stateMutability": "nonpayable",
					"type": "function"
				},
				{
					"inputs": [
						{
							"internalType": "address",
							"name": "newOwner",
							"type": "address"
						}
					],
					"name": "transferOwnership",
					"outputs": [],
					"stateMutability": "nonpayable",
					"type": "function"
				},
				{
					"inputs": [
						{
							"internalType": "address",
							"name": "",
							"type": "address"
						},
						{
							"internalType": "uint256",
							"name": "",
							"type": "uint256"
						}
					],
					"name": "tweets",
					"outputs": [
						{
							"internalType": "uint256",
							"name": "id",
							"type": "uint256"
						},
						{
							"internalType": "address",
							"name": "author",
							"type": "address"
						},
						{
							"internalType": "string",
							"name": "content",
							"type": "string"
						},
						{
							"internalType": "uint256",
							"name": "timestamp",
							"type": "uint256"
						},
						{
							"internalType": "uint256",
							"name": "likes",
							"type": "uint256"
						}
					],
					"stateMutability": "view",
					"type": "function"
				},
				{
					"inputs": [
						{
							"internalType": "address",
							"name": "author",
							"type": "address"
						},
						{
							"internalType": "uint256",
							"name": "id",
							"type": "uint256"
						}
					],
					"name": "unLikeTweet",
					"outputs": [],
					"stateMutability": "nonpayable",
					"type": "function"
				}
			],
			"devdoc": {
				"errors": {
					"OwnableInvalidOwner(address)": [
						{
							"details": "The owner is not a valid owner account. (eg. `address(0)`)"
						}
					],
					"OwnableUnauthorizedAccount(address)": [
						{
							"details": "The caller account is not authorized to perform an operation."
						}
					]
				},
				"kind": "dev",
				"methods": {
					"owner()": {
						"details": "Returns the address of the current owner."
					},
					"renounceOwnership()": {
						"details": "Leaves the contract without owner. It will not be possible to call `onlyOwner` functions. Can only be called by the current owner. NOTE: Renouncing ownership will leave the contract without an owner, thereby disabling any functionality that is only available to the owner."
					},
					"transferOwnership(address)": {
						"details": "Transfers ownership of the contract to a new account (`newOwner`). Can only be called by the current owner."
					}
				},
				"version": 1
			},
			"evm": {
				"assembly": "    /* \"contracts/Twitter.sol\":2617:6042  contract Twitter is Ownable {... */\n  mstore(0x40, 0x80)\n    /* \"contracts/Twitter.sol\":2684:2687  280 */\n  0x0118\n    /* \"contracts/Twitter.sol\":2651:2687  uint16 public MAX_TWEET_LENGTH = 280 */\n  0x00\n  exp(0x0100, 0x14)\n  dup2\n  sload\n  dup2\n  0xffff\n  mul\n  not\n  and\n  swap1\n  dup4\n  0xffff\n  and\n  mul\n  or\n  swap1\n  sstore\n  pop\n    /* \"contracts/Twitter.sol\":3847:3966  constructor(address _profileContract) Ownable(msg.sender) {... */\n  callvalue\n  dup1\n  iszero\n  tag_1\n  jumpi\n  0x00\n  dup1\n  revert\ntag_1:\n  pop\n  mload(0x40)\n  sub(codesize, bytecodeSize)\n  dup1\n  bytecodeSize\n  dup4\n  codecopy\n  dup2\n  dup2\n  add\n  0x40\n  mstore\n  dup2\n  add\n  swap1\n  tag_2\n  swap2\n  swap1\n  tag_3\n  jump\t// in\ntag_2:\n    /* \"contracts/Twitter.sol\":3893:3903  msg.sender */\n  caller\n    /* \"@openzeppelin/contracts/access/Ownable.sol\":1297:1298  0 */\n  0x00\n    /* \"@openzeppelin/contracts/access/Ownable.sol\":1273:1299  initialOwner == address(0) */\n  0xffffffffffffffffffffffffffffffffffffffff\n  and\n    /* \"@openzeppelin/contracts/access/Ownable.sol\":1273:1285  initialOwner */\n  dup2\n    /* \"@openzeppelin/contracts/access/Ownable.sol\":1273:1299  initialOwner == address(0) */\n  0xffffffffffffffffffffffffffffffffffffffff\n  and\n  sub\n    /* \"@openzeppelin/contracts/access/Ownable.sol\":1269:1364  if (initialOwner == address(0)) {... */\n  tag_7\n  jumpi\n    /* \"@openzeppelin/contracts/access/Ownable.sol\":1350:1351  0 */\n  0x00\n    /* \"@openzeppelin/contracts/access/Ownable.sol\":1322:1353  OwnableInvalidOwner(address(0)) */\n  mload(0x40)\n  0x1e4fbdf700000000000000000000000000000000000000000000000000000000\n  dup2\n  mstore\n  0x04\n  add\n  tag_8\n  swap2\n  swap1\n  tag_9\n  jump\t// in\ntag_8:\n  mload(0x40)\n  dup1\n  swap2\n  sub\n  swap1\n  revert\n    /* \"@openzeppelin/contracts/access/Ownable.sol\":1269:1364  if (initialOwner == address(0)) {... */\ntag_7:\n    /* \"@openzeppelin/contracts/access/Ownable.sol\":1373:1405  _transferOwnership(initialOwner) */\n  tag_10\n    /* \"@openzeppelin/contracts/access/Ownable.sol\":1392:1404  initialOwner */\n  dup2\n    /* \"@openzeppelin/contracts/access/Ownable.sol\":1373:1391  _transferOwnership */\n  shl(0x20, tag_11)\n    /* \"@openzeppelin/contracts/access/Ownable.sol\":1373:1405  _transferOwnership(initialOwner) */\n  0x20\n  shr\n  jump\t// in\ntag_10:\n    /* \"@openzeppelin/contracts/access/Ownable.sol\":1225:1412  constructor(address initialOwner) {... */\n  pop\n    /* \"contracts/Twitter.sol\":3942:3958  _profileContract */\n  dup1\n    /* \"contracts/Twitter.sol\":3915:3930  profileContract */\n  0x02\n  0x00\n    /* \"contracts/Twitter.sol\":3915:3959  profileContract = IProfile(_profileContract) */\n  0x0100\n  exp\n  dup2\n  sload\n  dup2\n  0xffffffffffffffffffffffffffffffffffffffff\n  mul\n  not\n  and\n  swap1\n  dup4\n  0xffffffffffffffffffffffffffffffffffffffff\n  and\n  mul\n  or\n  swap1\n  sstore\n  pop\n    /* \"contracts/Twitter.sol\":3847:3966  constructor(address _profileContract) Ownable(msg.sender) {... */\n  pop\n    /* \"contracts/Twitter.sol\":2617:6042  contract Twitter is Ownable {... */\n  jump(tag_13)\n    /* \"@openzeppelin/contracts/access/Ownable.sol\":2912:3099  function _transferOwnership(address newOwner) internal virtual {... */\ntag_11:\n    /* \"@openzeppelin/contracts/access/Ownable.sol\":2985:3001  address oldOwner */\n  0x00\n    /* \"@openzeppelin/contracts/access/Ownable.sol\":3004:3010  _owner */\n  dup1\n  0x00\n  swap1\n  sload\n  swap1\n  0x0100\n  exp\n  swap1\n  div\n  0xffffffffffffffffffffffffffffffffffffffff\n  and\n    /* \"@openzeppelin/contracts/access/Ownable.sol\":2985:3010  address oldOwner = _owner */\n  swap1\n  pop\n    /* \"@openzeppelin/contracts/access/Ownable.sol\":3029:3037  newOwner */\n  dup2\n    /* \"@openzeppelin/contracts/access/Ownable.sol\":3020:3026  _owner */\n  0x00\n  dup1\n    /* \"@openzeppelin/contracts/access/Ownable.sol\":3020:3037  _owner = newOwner */\n  0x0100\n  exp\n  dup2\n  sload\n  dup2\n  0xffffffffffffffffffffffffffffffffffffffff\n  mul\n  not\n  and\n  swap1\n  dup4\n  0xffffffffffffffffffffffffffffffffffffffff\n  and\n  mul\n  or\n  swap1\n  sstore\n  pop\n    /* \"@openzeppelin/contracts/access/Ownable.sol\":3083:3091  newOwner */\n  dup2\n    /* \"@openzeppelin/contracts/access/Ownable.sol\":3052:3092  OwnershipTransferred(oldOwner, newOwner) */\n  0xffffffffffffffffffffffffffffffffffffffff\n  and\n    /* \"@openzeppelin/contracts/access/Ownable.sol\":3073:3081  oldOwner */\n  dup2\n    /* \"@openzeppelin/contracts/access/Ownable.sol\":3052:3092  OwnershipTransferred(oldOwner, newOwner) */\n  0xffffffffffffffffffffffffffffffffffffffff\n  and\n  0x8be0079c531659141344cd1fd0a4f28419497f9722a3daafe3b4186f6b6457e0\n  mload(0x40)\n  mload(0x40)\n  dup1\n  swap2\n  sub\n  swap1\n  log3\n    /* \"@openzeppelin/contracts/access/Ownable.sol\":2975:3099  {... */\n  pop\n    /* \"@openzeppelin/contracts/access/Ownable.sol\":2912:3099  function _transferOwnership(address newOwner) internal virtual {... */\n  pop\n  jump\t// out\n    /* \"#utility.yul\":88:205   */\ntag_16:\n    /* \"#utility.yul\":197:198   */\n  0x00\n    /* \"#utility.yul\":194:195   */\n  dup1\n    /* \"#utility.yul\":187:199   */\n  revert\n    /* \"#utility.yul\":334:460   */\ntag_18:\n    /* \"#utility.yul\":371:378   */\n  0x00\n    /* \"#utility.yul\":411:453   */\n  0xffffffffffffffffffffffffffffffffffffffff\n    /* \"#utility.yul\":404:409   */\n  dup3\n    /* \"#utility.yul\":400:454   */\n  and\n    /* \"#utility.yul\":389:454   */\n  swap1\n  pop\n    /* \"#utility.yul\":334:460   */\n  swap2\n  swap1\n  pop\n  jump\t// out\n    /* \"#utility.yul\":466:562   */\ntag_19:\n    /* \"#utility.yul\":503:510   */\n  0x00\n    /* \"#utility.yul\":532:556   */\n  tag_29\n    /* \"#utility.yul\":550:555   */\n  dup3\n    /* \"#utility.yul\":532:556   */\n  tag_18\n  jump\t// in\ntag_29:\n    /* \"#utility.yul\":521:556   */\n  swap1\n  pop\n    /* \"#utility.yul\":466:562   */\n  swap2\n  swap1\n  pop\n  jump\t// out\n    /* \"#utility.yul\":568:690   */\ntag_20:\n    /* \"#utility.yul\":641:665   */\n  tag_31\n    /* \"#utility.yul\":659:664   */\n  dup2\n    /* \"#utility.yul\":641:665   */\n  tag_19\n  jump\t// in\ntag_31:\n    /* \"#utility.yul\":634:639   */\n  dup2\n    /* \"#utility.yul\":631:666   */\n  eq\n    /* \"#utility.yul\":621:684   */\n  tag_32\n  jumpi\n    /* \"#utility.yul\":680:681   */\n  0x00\n    /* \"#utility.yul\":677:678   */\n  dup1\n    /* \"#utility.yul\":670:682   */\n  revert\n    /* \"#utility.yul\":621:684   */\ntag_32:\n    /* \"#utility.yul\":568:690   */\n  pop\n  jump\t// out\n    /* \"#utility.yul\":696:839   */\ntag_21:\n    /* \"#utility.yul\":753:758   */\n  0x00\n    /* \"#utility.yul\":784:790   */\n  dup2\n    /* \"#utility.yul\":778:791   */\n  mload\n    /* \"#utility.yul\":769:791   */\n  swap1\n  pop\n    /* \"#utility.yul\":800:833   */\n  tag_34\n    /* \"#utility.yul\":827:832   */\n  dup2\n    /* \"#utility.yul\":800:833   */\n  tag_20\n  jump\t// in\ntag_34:\n    /* \"#utility.yul\":696:839   */\n  swap3\n  swap2\n  pop\n  pop\n  jump\t// out\n    /* \"#utility.yul\":845:1196   */\ntag_3:\n    /* \"#utility.yul\":915:921   */\n  0x00\n    /* \"#utility.yul\":964:966   */\n  0x20\n    /* \"#utility.yul\":952:961   */\n  dup3\n    /* \"#utility.yul\":943:950   */\n  dup5\n    /* \"#utility.yul\":939:962   */\n  sub\n    /* \"#utility.yul\":935:967   */\n  slt\n    /* \"#utility.yul\":932:1051   */\n  iszero\n  tag_36\n  jumpi\n    /* \"#utility.yul\":970:1049   */\n  tag_37\n  tag_16\n  jump\t// in\ntag_37:\n    /* \"#utility.yul\":932:1051   */\ntag_36:\n    /* \"#utility.yul\":1090:1091   */\n  0x00\n    /* \"#utility.yul\":1115:1179   */\n  tag_38\n    /* \"#utility.yul\":1171:1178   */\n  dup5\n    /* \"#utility.yul\":1162:1168   */\n  dup3\n    /* \"#utility.yul\":1151:1160   */\n  dup6\n    /* \"#utility.yul\":1147:1169   */\n  add\n    /* \"#utility.yul\":1115:1179   */\n  tag_21\n  jump\t// in\ntag_38:\n    /* \"#utility.yul\":1105:1179   */\n  swap2\n  pop\n    /* \"#utility.yul\":1061:1189   */\n  pop\n    /* \"#utility.yul\":845:1196   */\n  swap3\n  swap2\n  pop\n  pop\n  jump\t// out\n    /* \"#utility.yul\":1202:1320   */\ntag_22:\n    /* \"#utility.yul\":1289:1313   */\n  tag_40\n    /* \"#utility.yul\":1307:1312   */\n  dup2\n    /* \"#utility.yul\":1289:1313   */\n  tag_19\n  jump\t// in\ntag_40:\n    /* \"#utility.yul\":1284:1287   */\n  dup3\n    /* \"#utility.yul\":1277:1314   */\n  mstore\n    /* \"#utility.yul\":1202:1320   */\n  pop\n  pop\n  jump\t// out\n    /* \"#utility.yul\":1326:1548   */\ntag_9:\n    /* \"#utility.yul\":1419:1423   */\n  0x00\n    /* \"#utility.yul\":1457:1459   */\n  0x20\n    /* \"#utility.yul\":1446:1455   */\n  dup3\n    /* \"#utility.yul\":1442:1460   */\n  add\n    /* \"#utility.yul\":1434:1460   */\n  swap1\n  pop\n    /* \"#utility.yul\":1470:1541   */\n  tag_42\n    /* \"#utility.yul\":1538:1539   */\n  0x00\n    /* \"#utility.yul\":1527:1536   */\n  dup4\n    /* \"#utility.yul\":1523:1540   */\n  add\n    /* \"#utility.yul\":1514:1520   */\n  dup5\n    /* \"#utility.yul\":1470:1541   */\n  tag_22\n  jump\t// in\ntag_42:\n    /* \"#utility.yul\":1326:1548   */\n  swap3\n  swap2\n  pop\n  pop\n  jump\t// out\n    /* \"contracts/Twitter.sol\":2617:6042  contract Twitter is Ownable {... */\ntag_13:\n  dataSize(sub_0)\n  dup1\n  dataOffset(sub_0)\n  0x00\n  codecopy\n  0x00\n  return\nstop\n\nsub_0: assembly {\n        /* \"contracts/Twitter.sol\":2617:6042  contract Twitter is Ownable {... */\n      mstore(0x40, 0x80)\n      callvalue\n      dup1\n      iszero\n      tag_1\n      jumpi\n      0x00\n      dup1\n      revert\n    tag_1:\n      pop\n      jumpi(tag_2, lt(calldatasize, 0x04))\n      shr(0xe0, calldataload(0x00))\n      dup1\n      0x7c9cd2bc\n      gt\n      tag_16\n      jumpi\n      dup1\n      0x9ef8633f\n      gt\n      tag_17\n      jumpi\n      dup1\n      0x9ef8633f\n      eq\n      tag_12\n      jumpi\n      dup1\n      0xa3974b21\n      eq\n      tag_13\n      jumpi\n      dup1\n      0xc3ad5ecb\n      eq\n      tag_14\n      jumpi\n      dup1\n      0xf2fde38b\n      eq\n      tag_15\n      jumpi\n      jump(tag_2)\n    tag_17:\n      dup1\n      0x7c9cd2bc\n      eq\n      tag_9\n      jumpi\n      dup1\n      0x820785cc\n      eq\n      tag_10\n      jumpi\n      dup1\n      0x8da5cb5b\n      eq\n      tag_11\n      jumpi\n      jump(tag_2)\n    tag_16:\n      dup1\n      0x05a1b4a9\n      eq\n      tag_3\n      jumpi\n      dup1\n      0x12e7ee1c\n      eq\n      tag_4\n      jumpi\n      dup1\n      0x58bfa4ab\n      eq\n      tag_5\n      jumpi\n      dup1\n      0x63378216\n      eq\n      tag_6\n      jumpi\n      dup1\n      0x6eb10797\n      eq\n      tag_7\n      jumpi\n      dup1\n      0x715018a6\n      eq\n      tag_8\n      jumpi\n    tag_2:\n      0x00\n      dup1\n      revert\n        /* \"contracts/Twitter.sol\":2858:2899  mapping(address => Tweet[]) public tweets */\n    tag_3:\n      tag_18\n      0x04\n      dup1\n      calldatasize\n      sub\n      dup2\n      add\n      swap1\n      tag_19\n      swap2\n      swap1\n      tag_20\n      jump\t// in\n    tag_19:\n      tag_21\n      jump\t// in\n    tag_18:\n      mload(0x40)\n      tag_22\n      swap6\n      swap5\n      swap4\n      swap3\n      swap2\n      swap1\n      tag_23\n      jump\t// in\n    tag_22:\n      mload(0x40)\n      dup1\n      swap2\n      sub\n      swap1\n      return\n        /* \"contracts/Twitter.sol\":5048:5161  function getAllTweets(address _owner) public view returns (Tweet[] memory) {... */\n    tag_4:\n      tag_24\n      0x04\n      dup1\n      calldatasize\n      sub\n      dup2\n      add\n      swap1\n      tag_25\n      swap2\n      swap1\n      tag_26\n      jump\t// in\n    tag_25:\n      tag_27\n      jump\t// in\n    tag_24:\n      mload(0x40)\n      tag_28\n      swap2\n      swap1\n      tag_29\n      jump\t// in\n    tag_28:\n      mload(0x40)\n      dup1\n      swap2\n      sub\n      swap1\n      return\n        /* \"contracts/Twitter.sol\":4095:4212  function changeTweetLength(uint16 newTweetLength) public onlyOwner {... */\n    tag_5:\n      tag_30\n      0x04\n      dup1\n      calldatasize\n      sub\n      dup2\n      add\n      swap1\n      tag_31\n      swap2\n      swap1\n      tag_32\n      jump\t// in\n    tag_31:\n      tag_33\n      jump\t// in\n    tag_30:\n      stop\n        /* \"contracts/Twitter.sol\":5167:5427  function likeTweet(address author, uint256 id) external onlyRegistered{... */\n    tag_6:\n      tag_34\n      0x04\n      dup1\n      calldatasize\n      sub\n      dup2\n      add\n      swap1\n      tag_35\n      swap2\n      swap1\n      tag_20\n      jump\t// in\n    tag_35:\n      tag_36\n      jump\t// in\n    tag_34:\n      stop\n        /* \"contracts/Twitter.sol\":2651:2687  uint16 public MAX_TWEET_LENGTH = 280 */\n    tag_7:\n      tag_37\n      tag_38\n      jump\t// in\n    tag_37:\n      mload(0x40)\n      tag_39\n      swap2\n      swap1\n      tag_40\n      jump\t// in\n    tag_39:\n      mload(0x40)\n      dup1\n      swap2\n      sub\n      swap1\n      return\n        /* \"@openzeppelin/contracts/access/Ownable.sol\":2293:2394  function renounceOwnership() public virtual onlyOwner {... */\n    tag_8:\n      tag_41\n      tag_42\n      jump\t// in\n    tag_41:\n      stop\n        /* \"contracts/Twitter.sol\":4218:4925  function createTweet(string memory _tweet) public onlyRegistered{... */\n    tag_9:\n      tag_43\n      0x04\n      dup1\n      calldatasize\n      sub\n      dup2\n      add\n      swap1\n      tag_44\n      swap2\n      swap1\n      tag_45\n      jump\t// in\n    tag_44:\n      tag_46\n      jump\t// in\n    tag_43:\n      stop\n        /* \"contracts/Twitter.sol\":5779:6040  function getTotalLikes(address _author) external view returns (uint256) {... */\n    tag_10:\n      tag_47\n      0x04\n      dup1\n      calldatasize\n      sub\n      dup2\n      add\n      swap1\n      tag_48\n      swap2\n      swap1\n      tag_26\n      jump\t// in\n    tag_48:\n      tag_49\n      jump\t// in\n    tag_47:\n      mload(0x40)\n      tag_50\n      swap2\n      swap1\n      tag_51\n      jump\t// in\n    tag_50:\n      mload(0x40)\n      dup1\n      swap2\n      sub\n      swap1\n      return\n        /* \"@openzeppelin/contracts/access/Ownable.sol\":1638:1723  function owner() public view virtual returns (address) {... */\n    tag_11:\n      tag_52\n      tag_53\n      jump\t// in\n    tag_52:\n      mload(0x40)\n      tag_54\n      swap2\n      swap1\n      tag_55\n      jump\t// in\n    tag_54:\n      mload(0x40)\n      dup1\n      swap2\n      sub\n      swap1\n      return\n        /* \"contracts/Twitter.sol\":5433:5773  function unLikeTweet(address author, uint256 id) external onlyRegistered{... */\n    tag_12:\n      tag_56\n      0x04\n      dup1\n      calldatasize\n      sub\n      dup2\n      add\n      swap1\n      tag_57\n      swap2\n      swap1\n      tag_20\n      jump\t// in\n    tag_57:\n      tag_58\n      jump\t// in\n    tag_56:\n      stop\n        /* \"contracts/Twitter.sol\":2942:2973  IProfile public profileContract */\n    tag_13:\n      tag_59\n      tag_60\n      jump\t// in\n    tag_59:\n      mload(0x40)\n      tag_61\n      swap2\n      swap1\n      tag_62\n      jump\t// in\n    tag_61:\n      mload(0x40)\n      dup1\n      swap2\n      sub\n      swap1\n      return\n        /* \"contracts/Twitter.sol\":4931:5042  function getTweet(uint256 _i) public view returns (Tweet memory) {... */\n    tag_14:\n      tag_63\n      0x04\n      dup1\n      calldatasize\n      sub\n      dup2\n      add\n      swap1\n      tag_64\n      swap2\n      swap1\n      tag_65\n      jump\t// in\n    tag_64:\n      tag_66\n      jump\t// in\n    tag_63:\n      mload(0x40)\n      tag_67\n      swap2\n      swap1\n      tag_68\n      jump\t// in\n    tag_67:\n      mload(0x40)\n      dup1\n      swap2\n      sub\n      swap1\n      return\n        /* \"@openzeppelin/contracts/access/Ownable.sol\":2543:2758  function transferOwnership(address newOwner) public virtual onlyOwner {... */\n    tag_15:\n      tag_69\n      0x04\n      dup1\n      calldatasize\n      sub\n      dup2\n      add\n      swap1\n      tag_70\n      swap2\n      swap1\n      tag_26\n      jump\t// in\n    tag_70:\n      tag_71\n      jump\t// in\n    tag_69:\n      stop\n        /* \"contracts/Twitter.sol\":2858:2899  mapping(address => Tweet[]) public tweets */\n    tag_21:\n      mstore(0x20, 0x01)\n      dup2\n      0x00\n      mstore\n      keccak256(0x00, 0x40)\n      dup2\n      dup2\n      sload\n      dup2\n      lt\n      tag_72\n      jumpi\n      0x00\n      dup1\n      revert\n    tag_72:\n      swap1\n      0x00\n      mstore\n      keccak256(0x00, 0x20)\n      swap1\n      0x05\n      mul\n      add\n      0x00\n      swap2\n      pop\n      swap2\n      pop\n      pop\n      dup1\n      0x00\n      add\n      sload\n      swap1\n      dup1\n      0x01\n      add\n      0x00\n      swap1\n      sload\n      swap1\n      0x0100\n      exp\n      swap1\n      div\n      0xffffffffffffffffffffffffffffffffffffffff\n      and\n      swap1\n      dup1\n      0x02\n      add\n      dup1\n      sload\n      tag_74\n      swap1\n      tag_75\n      jump\t// in\n    tag_74:\n      dup1\n      0x1f\n      add\n      0x20\n      dup1\n      swap2\n      div\n      mul\n      0x20\n      add\n      mload(0x40)\n      swap1\n      dup2\n      add\n      0x40\n      mstore\n      dup1\n      swap3\n      swap2\n      swap1\n      dup2\n      dup2\n      mstore\n      0x20\n      add\n      dup3\n      dup1\n      sload\n      tag_76\n      swap1\n      tag_75\n      jump\t// in\n    tag_76:\n      dup1\n      iszero\n      tag_77\n      jumpi\n      dup1\n      0x1f\n      lt\n      tag_78\n      jumpi\n      0x0100\n      dup1\n      dup4\n      sload\n      div\n      mul\n      dup4\n      mstore\n      swap2\n      0x20\n      add\n      swap2\n      jump(tag_77)\n    tag_78:\n      dup3\n      add\n      swap2\n      swap1\n      0x00\n      mstore\n      keccak256(0x00, 0x20)\n      swap1\n    tag_79:\n      dup2\n      sload\n      dup2\n      mstore\n      swap1\n      0x01\n      add\n      swap1\n      0x20\n      add\n      dup1\n      dup4\n      gt\n      tag_79\n      jumpi\n      dup3\n      swap1\n      sub\n      0x1f\n      and\n      dup3\n      add\n      swap2\n    tag_77:\n      pop\n      pop\n      pop\n      pop\n      pop\n      swap1\n      dup1\n      0x03\n      add\n      sload\n      swap1\n      dup1\n      0x04\n      add\n      sload\n      swap1\n      pop\n      dup6\n      jump\t// out\n        /* \"contracts/Twitter.sol\":5048:5161  function getAllTweets(address _owner) public view returns (Tweet[] memory) {... */\n    tag_27:\n        /* \"contracts/Twitter.sol\":5107:5121  Tweet[] memory */\n      0x60\n        /* \"contracts/Twitter.sol\":5140:5146  tweets */\n      0x01\n        /* \"contracts/Twitter.sol\":5140:5154  tweets[_owner] */\n      0x00\n        /* \"contracts/Twitter.sol\":5147:5153  _owner */\n      dup4\n        /* \"contracts/Twitter.sol\":5140:5154  tweets[_owner] */\n      0xffffffffffffffffffffffffffffffffffffffff\n      and\n      0xffffffffffffffffffffffffffffffffffffffff\n      and\n      dup2\n      mstore\n      0x20\n      add\n      swap1\n      dup2\n      mstore\n      0x20\n      add\n      0x00\n      keccak256\n        /* \"contracts/Twitter.sol\":5133:5154  return tweets[_owner] */\n      dup1\n      sload\n      dup1\n      0x20\n      mul\n      0x20\n      add\n      mload(0x40)\n      swap1\n      dup2\n      add\n      0x40\n      mstore\n      dup1\n      swap3\n      swap2\n      swap1\n      dup2\n      dup2\n      mstore\n      0x20\n      add\n      0x00\n      swap1\n    tag_81:\n      dup3\n      dup3\n      lt\n      iszero\n      tag_82\n      jumpi\n      dup4\n      dup3\n      swap1\n      0x00\n      mstore\n      keccak256(0x00, 0x20)\n      swap1\n      0x05\n      mul\n      add\n      mload(0x40)\n      dup1\n      0xa0\n      add\n      0x40\n      mstore\n      swap1\n      dup2\n      0x00\n      dup3\n      add\n      sload\n      dup2\n      mstore\n      0x20\n      add\n      0x01\n      dup3\n      add\n      0x00\n      swap1\n      sload\n      swap1\n      0x0100\n      exp\n      swap1\n      div\n      0xffffffffffffffffffffffffffffffffffffffff\n      and\n      0xffffffffffffffffffffffffffffffffffffffff\n      and\n      0xffffffffffffffffffffffffffffffffffffffff\n      and\n      dup2\n      mstore\n      0x20\n      add\n      0x02\n      dup3\n      add\n      dup1\n      sload\n      tag_84\n      swap1\n      tag_75\n      jump\t// in\n    tag_84:\n      dup1\n      0x1f\n      add\n      0x20\n      dup1\n      swap2\n      div\n      mul\n      0x20\n      add\n      mload(0x40)\n      swap1\n      dup2\n      add\n      0x40\n      mstore\n      dup1\n      swap3\n      swap2\n      swap1\n      dup2\n      dup2\n      mstore\n      0x20\n      add\n      dup3\n      dup1\n      sload\n      tag_85\n      swap1\n      tag_75\n      jump\t// in\n    tag_85:\n      dup1\n      iszero\n      tag_86\n      jumpi\n      dup1\n      0x1f\n      lt\n      tag_87\n      jumpi\n      0x0100\n      dup1\n      dup4\n      sload\n      div\n      mul\n      dup4\n      mstore\n      swap2\n      0x20\n      add\n      swap2\n      jump(tag_86)\n    tag_87:\n      dup3\n      add\n      swap2\n      swap1\n      0x00\n      mstore\n      keccak256(0x00, 0x20)\n      swap1\n    tag_88:\n      dup2\n      sload\n      dup2\n      mstore\n      swap1\n      0x01\n      add\n      swap1\n      0x20\n      add\n      dup1\n      dup4\n      gt\n      tag_88\n      jumpi\n      dup3\n      swap1\n      sub\n      0x1f\n      and\n      dup3\n      add\n      swap2\n    tag_86:\n      pop\n      pop\n      pop\n      pop\n      pop\n      dup2\n      mstore\n      0x20\n      add\n      0x03\n      dup3\n      add\n      sload\n      dup2\n      mstore\n      0x20\n      add\n      0x04\n      dup3\n      add\n      sload\n      dup2\n      mstore\n      pop\n      pop\n      dup2\n      mstore\n      0x20\n      add\n      swap1\n      0x01\n      add\n      swap1\n      jump(tag_81)\n    tag_82:\n      pop\n      pop\n      pop\n      pop\n      swap1\n      pop\n        /* \"contracts/Twitter.sol\":5048:5161  function getAllTweets(address _owner) public view returns (Tweet[] memory) {... */\n      swap2\n      swap1\n      pop\n      jump\t// out\n        /* \"contracts/Twitter.sol\":4095:4212  function changeTweetLength(uint16 newTweetLength) public onlyOwner {... */\n    tag_33:\n        /* \"@openzeppelin/contracts/access/Ownable.sol\":1531:1544  _checkOwner() */\n      tag_90\n        /* \"@openzeppelin/contracts/access/Ownable.sol\":1531:1542  _checkOwner */\n      tag_91\n        /* \"@openzeppelin/contracts/access/Ownable.sol\":1531:1544  _checkOwner() */\n      jump\t// in\n    tag_90:\n        /* \"contracts/Twitter.sol\":4191:4205  newTweetLength */\n      dup1\n        /* \"contracts/Twitter.sol\":4172:4188  MAX_TWEET_LENGTH */\n      0x00\n      0x14\n        /* \"contracts/Twitter.sol\":4172:4205  MAX_TWEET_LENGTH = newTweetLength */\n      0x0100\n      exp\n      dup2\n      sload\n      dup2\n      0xffff\n      mul\n      not\n      and\n      swap1\n      dup4\n      0xffff\n      and\n      mul\n      or\n      swap1\n      sstore\n      pop\n        /* \"contracts/Twitter.sol\":4095:4212  function changeTweetLength(uint16 newTweetLength) public onlyOwner {... */\n      pop\n      jump\t// out\n        /* \"contracts/Twitter.sol\":5167:5427  function likeTweet(address author, uint256 id) external onlyRegistered{... */\n    tag_36:\n        /* \"contracts/Twitter.sol\":3472:3515  IProfile.UserProfile memory userProfileTemp */\n      0x00\n        /* \"contracts/Twitter.sol\":3518:3533  profileContract */\n      0x02\n      0x00\n      swap1\n      sload\n      swap1\n      0x0100\n      exp\n      swap1\n      div\n      0xffffffffffffffffffffffffffffffffffffffff\n      and\n        /* \"contracts/Twitter.sol\":3518:3544  profileContract.getProfile */\n      0xffffffffffffffffffffffffffffffffffffffff\n      and\n      0x0f53a470\n        /* \"contracts/Twitter.sol\":3545:3555  msg.sender */\n      caller\n        /* \"contracts/Twitter.sol\":3518:3556  profileContract.getProfile(msg.sender) */\n      mload(0x40)\n      dup3\n      0xffffffff\n      and\n      0xe0\n      shl\n      dup2\n      mstore\n      0x04\n      add\n      tag_94\n      swap2\n      swap1\n      tag_55\n      jump\t// in\n    tag_94:\n      0x00\n      mload(0x40)\n      dup1\n      dup4\n      sub\n      dup2\n      dup7\n      gas\n      staticcall\n      iszero\n      dup1\n      iszero\n      tag_96\n      jumpi\n      returndatasize\n      0x00\n      dup1\n      returndatacopy\n      revert(0x00, returndatasize)\n    tag_96:\n      pop\n      pop\n      pop\n      pop\n      mload(0x40)\n      returndatasize\n      0x00\n      dup3\n      returndatacopy\n      returndatasize\n      not(0x1f)\n      0x1f\n      dup3\n      add\n      and\n      dup3\n      add\n      dup1\n      0x40\n      mstore\n      pop\n      dup2\n      add\n      swap1\n      tag_97\n      swap2\n      swap1\n      tag_98\n      jump\t// in\n    tag_97:\n        /* \"contracts/Twitter.sol\":3472:3556  IProfile.UserProfile memory userProfileTemp = profileContract.getProfile(msg.sender) */\n      swap1\n      pop\n        /* \"contracts/Twitter.sol\":3615:3616  0 */\n      0x00\n        /* \"contracts/Twitter.sol\":3577:3592  userProfileTemp */\n      dup2\n        /* \"contracts/Twitter.sol\":3577:3604  userProfileTemp.displayName */\n      0x00\n      add\n      mload\n        /* \"contracts/Twitter.sol\":3571:3612  bytes(userProfileTemp.displayName).length */\n      mload\n        /* \"contracts/Twitter.sol\":3571:3616  bytes(userProfileTemp.displayName).length > 0 */\n      gt\n        /* \"contracts/Twitter.sol\":3563:3641  require(bytes(userProfileTemp.displayName).length > 0, \"user not registered \") */\n      tag_99\n      jumpi\n      mload(0x40)\n      0x08c379a000000000000000000000000000000000000000000000000000000000\n      dup2\n      mstore\n      0x04\n      add\n      tag_100\n      swap1\n      tag_101\n      jump\t// in\n    tag_100:\n      mload(0x40)\n      dup1\n      swap2\n      sub\n      swap1\n      revert\n    tag_99:\n        /* \"contracts/Twitter.sol\":5280:5282  id */\n      dup2\n        /* \"contracts/Twitter.sol\":5255:5261  tweets */\n      0x01\n        /* \"contracts/Twitter.sol\":5255:5269  tweets[author] */\n      0x00\n        /* \"contracts/Twitter.sol\":5262:5268  author */\n      dup6\n        /* \"contracts/Twitter.sol\":5255:5269  tweets[author] */\n      0xffffffffffffffffffffffffffffffffffffffff\n      and\n      0xffffffffffffffffffffffffffffffffffffffff\n      and\n      dup2\n      mstore\n      0x20\n      add\n      swap1\n      dup2\n      mstore\n      0x20\n      add\n      0x00\n      keccak256\n        /* \"contracts/Twitter.sol\":5270:5272  id */\n      dup4\n        /* \"contracts/Twitter.sol\":5255:5273  tweets[author][id] */\n      dup2\n      sload\n      dup2\n      lt\n      tag_103\n      jumpi\n      tag_104\n      tag_105\n      jump\t// in\n    tag_104:\n    tag_103:\n      swap1\n      0x00\n      mstore\n      keccak256(0x00, 0x20)\n      swap1\n      0x05\n      mul\n      add\n        /* \"contracts/Twitter.sol\":5255:5276  tweets[author][id].id */\n      0x00\n      add\n      sload\n        /* \"contracts/Twitter.sol\":5255:5282  tweets[author][id].id == id */\n      eq\n        /* \"contracts/Twitter.sol\":5247:5307  require(tweets[author][id].id == id, \"Tweet does not exist\") */\n      tag_107\n      jumpi\n      mload(0x40)\n      0x08c379a000000000000000000000000000000000000000000000000000000000\n      dup2\n      mstore\n      0x04\n      add\n      tag_108\n      swap1\n      tag_109\n      jump\t// in\n    tag_108:\n      mload(0x40)\n      dup1\n      swap2\n      sub\n      swap1\n      revert\n    tag_107:\n        /* \"contracts/Twitter.sol\":5318:5324  tweets */\n      0x01\n        /* \"contracts/Twitter.sol\":5318:5332  tweets[author] */\n      0x00\n        /* \"contracts/Twitter.sol\":5325:5331  author */\n      dup5\n        /* \"contracts/Twitter.sol\":5318:5332  tweets[author] */\n      0xffffffffffffffffffffffffffffffffffffffff\n      and\n      0xffffffffffffffffffffffffffffffffffffffff\n      and\n      dup2\n      mstore\n      0x20\n      add\n      swap1\n      dup2\n      mstore\n      0x20\n      add\n      0x00\n      keccak256\n        /* \"contracts/Twitter.sol\":5333:5335  id */\n      dup3\n        /* \"contracts/Twitter.sol\":5318:5336  tweets[author][id] */\n      dup2\n      sload\n      dup2\n      lt\n      tag_110\n      jumpi\n      tag_111\n      tag_105\n      jump\t// in\n    tag_111:\n    tag_110:\n      swap1\n      0x00\n      mstore\n      keccak256(0x00, 0x20)\n      swap1\n      0x05\n      mul\n      add\n        /* \"contracts/Twitter.sol\":5318:5342  tweets[author][id].likes */\n      0x04\n      add\n      0x00\n        /* \"contracts/Twitter.sol\":5318:5344  tweets[author][id].likes++ */\n      dup2\n      sload\n      dup1\n      swap3\n      swap2\n      swap1\n      tag_113\n      swap1\n      tag_114\n      jump\t// in\n    tag_113:\n      swap2\n      swap1\n      pop\n      sstore\n      pop\n        /* \"contracts/Twitter.sol\":5360:5420  TweetLiked(msg.sender, author, id, tweets[author][id].likes) */\n      0xe8a76fc0f16d11a00d1e93b689b63d76cf60af914dd3d915375dc41d01a0c3c8\n        /* \"contracts/Twitter.sol\":5371:5381  msg.sender */\n      caller\n        /* \"contracts/Twitter.sol\":5383:5389  author */\n      dup5\n        /* \"contracts/Twitter.sol\":5391:5393  id */\n      dup5\n        /* \"contracts/Twitter.sol\":5395:5401  tweets */\n      0x01\n        /* \"contracts/Twitter.sol\":5395:5409  tweets[author] */\n      0x00\n        /* \"contracts/Twitter.sol\":5402:5408  author */\n      dup9\n        /* \"contracts/Twitter.sol\":5395:5409  tweets[author] */\n      0xffffffffffffffffffffffffffffffffffffffff\n      and\n      0xffffffffffffffffffffffffffffffffffffffff\n      and\n      dup2\n      mstore\n      0x20\n      add\n      swap1\n      dup2\n      mstore\n      0x20\n      add\n      0x00\n      keccak256\n        /* \"contracts/Twitter.sol\":5410:5412  id */\n      dup7\n        /* \"contracts/Twitter.sol\":5395:5413  tweets[author][id] */\n      dup2\n      sload\n      dup2\n      lt\n      tag_115\n      jumpi\n      tag_116\n      tag_105\n      jump\t// in\n    tag_116:\n    tag_115:\n      swap1\n      0x00\n      mstore\n      keccak256(0x00, 0x20)\n      swap1\n      0x05\n      mul\n      add\n        /* \"contracts/Twitter.sol\":5395:5419  tweets[author][id].likes */\n      0x04\n      add\n      sload\n        /* \"contracts/Twitter.sol\":5360:5420  TweetLiked(msg.sender, author, id, tweets[author][id].likes) */\n      mload(0x40)\n      tag_118\n      swap5\n      swap4\n      swap3\n      swap2\n      swap1\n      tag_119\n      jump\t// in\n    tag_118:\n      mload(0x40)\n      dup1\n      swap2\n      sub\n      swap1\n      log1\n        /* \"contracts/Twitter.sol\":3466:3655  {... */\n      pop\n        /* \"contracts/Twitter.sol\":5167:5427  function likeTweet(address author, uint256 id) external onlyRegistered{... */\n      pop\n      pop\n      jump\t// out\n        /* \"contracts/Twitter.sol\":2651:2687  uint16 public MAX_TWEET_LENGTH = 280 */\n    tag_38:\n      0x00\n      0x14\n      swap1\n      sload\n      swap1\n      0x0100\n      exp\n      swap1\n      div\n      0xffff\n      and\n      dup2\n      jump\t// out\n        /* \"@openzeppelin/contracts/access/Ownable.sol\":2293:2394  function renounceOwnership() public virtual onlyOwner {... */\n    tag_42:\n        /* \"@openzeppelin/contracts/access/Ownable.sol\":1531:1544  _checkOwner() */\n      tag_121\n        /* \"@openzeppelin/contracts/access/Ownable.sol\":1531:1542  _checkOwner */\n      tag_91\n        /* \"@openzeppelin/contracts/access/Ownable.sol\":1531:1544  _checkOwner() */\n      jump\t// in\n    tag_121:\n        /* \"@openzeppelin/contracts/access/Ownable.sol\":2357:2387  _transferOwnership(address(0)) */\n      tag_123\n        /* \"@openzeppelin/contracts/access/Ownable.sol\":2384:2385  0 */\n      0x00\n        /* \"@openzeppelin/contracts/access/Ownable.sol\":2357:2375  _transferOwnership */\n      tag_124\n        /* \"@openzeppelin/contracts/access/Ownable.sol\":2357:2387  _transferOwnership(address(0)) */\n      jump\t// in\n    tag_123:\n        /* \"@openzeppelin/contracts/access/Ownable.sol\":2293:2394  function renounceOwnership() public virtual onlyOwner {... */\n      jump\t// out\n        /* \"contracts/Twitter.sol\":4218:4925  function createTweet(string memory _tweet) public onlyRegistered{... */\n    tag_46:\n        /* \"contracts/Twitter.sol\":3472:3515  IProfile.UserProfile memory userProfileTemp */\n      0x00\n        /* \"contracts/Twitter.sol\":3518:3533  profileContract */\n      0x02\n      0x00\n      swap1\n      sload\n      swap1\n      0x0100\n      exp\n      swap1\n      div\n      0xffffffffffffffffffffffffffffffffffffffff\n      and\n        /* \"contracts/Twitter.sol\":3518:3544  profileContract.getProfile */\n      0xffffffffffffffffffffffffffffffffffffffff\n      and\n      0x0f53a470\n        /* \"contracts/Twitter.sol\":3545:3555  msg.sender */\n      caller\n        /* \"contracts/Twitter.sol\":3518:3556  profileContract.getProfile(msg.sender) */\n      mload(0x40)\n      dup3\n      0xffffffff\n      and\n      0xe0\n      shl\n      dup2\n      mstore\n      0x04\n      add\n      tag_126\n      swap2\n      swap1\n      tag_55\n      jump\t// in\n    tag_126:\n      0x00\n      mload(0x40)\n      dup1\n      dup4\n      sub\n      dup2\n      dup7\n      gas\n      staticcall\n      iszero\n      dup1\n      iszero\n      tag_128\n      jumpi\n      returndatasize\n      0x00\n      dup1\n      returndatacopy\n      revert(0x00, returndatasize)\n    tag_128:\n      pop\n      pop\n      pop\n      pop\n      mload(0x40)\n      returndatasize\n      0x00\n      dup3\n      returndatacopy\n      returndatasize\n      not(0x1f)\n      0x1f\n      dup3\n      add\n      and\n      dup3\n      add\n      dup1\n      0x40\n      mstore\n      pop\n      dup2\n      add\n      swap1\n      tag_129\n      swap2\n      swap1\n      tag_98\n      jump\t// in\n    tag_129:\n        /* \"contracts/Twitter.sol\":3472:3556  IProfile.UserProfile memory userProfileTemp = profileContract.getProfile(msg.sender) */\n      swap1\n      pop\n        /* \"contracts/Twitter.sol\":3615:3616  0 */\n      0x00\n        /* \"contracts/Twitter.sol\":3577:3592  userProfileTemp */\n      dup2\n        /* \"contracts/Twitter.sol\":3577:3604  userProfileTemp.displayName */\n      0x00\n      add\n      mload\n        /* \"contracts/Twitter.sol\":3571:3612  bytes(userProfileTemp.displayName).length */\n      mload\n        /* \"contracts/Twitter.sol\":3571:3616  bytes(userProfileTemp.displayName).length > 0 */\n      gt\n        /* \"contracts/Twitter.sol\":3563:3641  require(bytes(userProfileTemp.displayName).length > 0, \"user not registered \") */\n      tag_130\n      jumpi\n      mload(0x40)\n      0x08c379a000000000000000000000000000000000000000000000000000000000\n      dup2\n      mstore\n      0x04\n      add\n      tag_131\n      swap1\n      tag_101\n      jump\t// in\n    tag_131:\n      mload(0x40)\n      dup1\n      swap2\n      sub\n      swap1\n      revert\n    tag_130:\n        /* \"contracts/Twitter.sol\":4432:4448  MAX_TWEET_LENGTH */\n      0x00\n      0x14\n      swap1\n      sload\n      swap1\n      0x0100\n      exp\n      swap1\n      div\n      0xffff\n      and\n        /* \"contracts/Twitter.sol\":4408:4448  bytes(_tweet).length <= MAX_TWEET_LENGTH */\n      0xffff\n      and\n        /* \"contracts/Twitter.sol\":4414:4420  _tweet */\n      dup3\n        /* \"contracts/Twitter.sol\":4408:4428  bytes(_tweet).length */\n      mload\n        /* \"contracts/Twitter.sol\":4408:4448  bytes(_tweet).length <= MAX_TWEET_LENGTH */\n      gt\n      iszero\n        /* \"contracts/Twitter.sol\":4387:4502  require(... */\n      tag_133\n      jumpi\n      mload(0x40)\n      0x08c379a000000000000000000000000000000000000000000000000000000000\n      dup2\n      mstore\n      0x04\n      add\n      tag_134\n      swap1\n      tag_135\n      jump\t// in\n    tag_134:\n      mload(0x40)\n      dup1\n      swap2\n      sub\n      swap1\n      revert\n    tag_133:\n        /* \"contracts/Twitter.sol\":4513:4534  Tweet memory newTweet */\n      0x00\n        /* \"contracts/Twitter.sol\":4537:4720  Tweet({... */\n      mload(0x40)\n      dup1\n      0xa0\n      add\n      0x40\n      mstore\n      dup1\n        /* \"contracts/Twitter.sol\":4684:4690  tweets */\n      0x01\n        /* \"contracts/Twitter.sol\":4684:4702  tweets[msg.sender] */\n      0x00\n        /* \"contracts/Twitter.sol\":4691:4701  msg.sender */\n      caller\n        /* \"contracts/Twitter.sol\":4684:4702  tweets[msg.sender] */\n      0xffffffffffffffffffffffffffffffffffffffff\n      and\n      0xffffffffffffffffffffffffffffffffffffffff\n      and\n      dup2\n      mstore\n      0x20\n      add\n      swap1\n      dup2\n      mstore\n      0x20\n      add\n      0x00\n      keccak256\n        /* \"contracts/Twitter.sol\":4684:4709  tweets[msg.sender].length */\n      dup1\n      sload\n      swap1\n      pop\n        /* \"contracts/Twitter.sol\":4537:4720  Tweet({... */\n      dup2\n      mstore\n      0x20\n      add\n        /* \"contracts/Twitter.sol\":4565:4575  msg.sender */\n      caller\n        /* \"contracts/Twitter.sol\":4537:4720  Tweet({... */\n      0xffffffffffffffffffffffffffffffffffffffff\n      and\n      dup2\n      mstore\n      0x20\n      add\n        /* \"contracts/Twitter.sol\":4598:4604  _tweet */\n      dup5\n        /* \"contracts/Twitter.sol\":4537:4720  Tweet({... */\n      dup2\n      mstore\n      0x20\n      add\n        /* \"contracts/Twitter.sol\":4629:4644  block.timestamp */\n      timestamp\n        /* \"contracts/Twitter.sol\":4537:4720  Tweet({... */\n      dup2\n      mstore\n      0x20\n      add\n        /* \"contracts/Twitter.sol\":4665:4666  0 */\n      0x00\n        /* \"contracts/Twitter.sol\":4537:4720  Tweet({... */\n      dup2\n      mstore\n      pop\n        /* \"contracts/Twitter.sol\":4513:4720  Tweet memory newTweet = Tweet({... */\n      swap1\n      pop\n        /* \"contracts/Twitter.sol\":4731:4737  tweets */\n      0x01\n        /* \"contracts/Twitter.sol\":4731:4749  tweets[msg.sender] */\n      0x00\n        /* \"contracts/Twitter.sol\":4738:4748  msg.sender */\n      caller\n        /* \"contracts/Twitter.sol\":4731:4749  tweets[msg.sender] */\n      0xffffffffffffffffffffffffffffffffffffffff\n      and\n      0xffffffffffffffffffffffffffffffffffffffff\n      and\n      dup2\n      mstore\n      0x20\n      add\n      swap1\n      dup2\n      mstore\n      0x20\n      add\n      0x00\n      keccak256\n        /* \"contracts/Twitter.sol\":4755:4763  newTweet */\n      dup2\n        /* \"contracts/Twitter.sol\":4731:4764  tweets[msg.sender].push(newTweet) */\n      swap1\n      dup1\n      0x01\n      dup2\n      sload\n      add\n      dup1\n      dup3\n      sstore\n      dup1\n      swap2\n      pop\n      pop\n      0x01\n      swap1\n      sub\n      swap1\n      0x00\n      mstore\n      keccak256(0x00, 0x20)\n      swap1\n      0x05\n      mul\n      add\n      0x00\n      swap1\n      swap2\n      swap1\n      swap2\n      swap1\n      swap2\n      pop\n      0x00\n      dup3\n      add\n      mload\n      dup2\n      0x00\n      add\n      sstore\n      0x20\n      dup3\n      add\n      mload\n      dup2\n      0x01\n      add\n      exp(0x0100, 0x00)\n      dup2\n      sload\n      dup2\n      0xffffffffffffffffffffffffffffffffffffffff\n      mul\n      not\n      and\n      swap1\n      dup4\n      0xffffffffffffffffffffffffffffffffffffffff\n      and\n      mul\n      or\n      swap1\n      sstore\n      pop\n      0x40\n      dup3\n      add\n      mload\n      dup2\n      0x02\n      add\n      swap1\n      dup2\n      tag_137\n      swap2\n      swap1\n      tag_138\n      jump\t// in\n    tag_137:\n      pop\n      0x60\n      dup3\n      add\n      mload\n      dup2\n      0x03\n      add\n      sstore\n      0x80\n      dup3\n      add\n      mload\n      dup2\n      0x04\n      add\n      sstore\n      pop\n      pop\n        /* \"contracts/Twitter.sol\":4780:4918  TweetCreated(... */\n      0x16fd3c13e9d46923e0a8bce11c7b473ec508a72e6c96cd2404b29ce972afc29e\n        /* \"contracts/Twitter.sol\":4806:4814  newTweet */\n      dup2\n        /* \"contracts/Twitter.sol\":4806:4817  newTweet.id */\n      0x00\n      add\n      mload\n        /* \"contracts/Twitter.sol\":4831:4839  newTweet */\n      dup3\n        /* \"contracts/Twitter.sol\":4831:4846  newTweet.author */\n      0x20\n      add\n      mload\n        /* \"contracts/Twitter.sol\":4860:4868  newTweet */\n      dup4\n        /* \"contracts/Twitter.sol\":4860:4876  newTweet.content */\n      0x40\n      add\n      mload\n        /* \"contracts/Twitter.sol\":4890:4898  newTweet */\n      dup5\n        /* \"contracts/Twitter.sol\":4890:4908  newTweet.timestamp */\n      0x60\n      add\n      mload\n        /* \"contracts/Twitter.sol\":4780:4918  TweetCreated(... */\n      mload(0x40)\n      tag_139\n      swap5\n      swap4\n      swap3\n      swap2\n      swap1\n      tag_140\n      jump\t// in\n    tag_139:\n      mload(0x40)\n      dup1\n      swap2\n      sub\n      swap1\n      log1\n        /* \"contracts/Twitter.sol\":4282:4925  {... */\n      pop\n        /* \"contracts/Twitter.sol\":3466:3655  {... */\n      pop\n        /* \"contracts/Twitter.sol\":4218:4925  function createTweet(string memory _tweet) public onlyRegistered{... */\n      pop\n      jump\t// out\n        /* \"contracts/Twitter.sol\":5779:6040  function getTotalLikes(address _author) external view returns (uint256) {... */\n    tag_49:\n        /* \"contracts/Twitter.sol\":5842:5849  uint256 */\n      0x00\n        /* \"contracts/Twitter.sol\":5861:5879  uint256 totalLikes */\n      dup1\n        /* \"contracts/Twitter.sol\":5895:5904  uint256 i */\n      0x00\n        /* \"contracts/Twitter.sol\":5890:6006  for (uint256 i = 0; i < tweets[_author].length; i++) {... */\n    tag_142:\n        /* \"contracts/Twitter.sol\":5914:5920  tweets */\n      0x01\n        /* \"contracts/Twitter.sol\":5914:5929  tweets[_author] */\n      0x00\n        /* \"contracts/Twitter.sol\":5921:5928  _author */\n      dup6\n        /* \"contracts/Twitter.sol\":5914:5929  tweets[_author] */\n      0xffffffffffffffffffffffffffffffffffffffff\n      and\n      0xffffffffffffffffffffffffffffffffffffffff\n      and\n      dup2\n      mstore\n      0x20\n      add\n      swap1\n      dup2\n      mstore\n      0x20\n      add\n      0x00\n      keccak256\n        /* \"contracts/Twitter.sol\":5914:5936  tweets[_author].length */\n      dup1\n      sload\n      swap1\n      pop\n        /* \"contracts/Twitter.sol\":5910:5911  i */\n      dup2\n        /* \"contracts/Twitter.sol\":5910:5936  i < tweets[_author].length */\n      lt\n        /* \"contracts/Twitter.sol\":5890:6006  for (uint256 i = 0; i < tweets[_author].length; i++) {... */\n      iszero\n      tag_143\n      jumpi\n        /* \"contracts/Twitter.sol\":5971:5977  tweets */\n      0x01\n        /* \"contracts/Twitter.sol\":5971:5986  tweets[_author] */\n      0x00\n        /* \"contracts/Twitter.sol\":5978:5985  _author */\n      dup6\n        /* \"contracts/Twitter.sol\":5971:5986  tweets[_author] */\n      0xffffffffffffffffffffffffffffffffffffffff\n      and\n      0xffffffffffffffffffffffffffffffffffffffff\n      and\n      dup2\n      mstore\n      0x20\n      add\n      swap1\n      dup2\n      mstore\n      0x20\n      add\n      0x00\n      keccak256\n        /* \"contracts/Twitter.sol\":5987:5988  i */\n      dup2\n        /* \"contracts/Twitter.sol\":5971:5989  tweets[_author][i] */\n      dup2\n      sload\n      dup2\n      lt\n      tag_145\n      jumpi\n      tag_146\n      tag_105\n      jump\t// in\n    tag_146:\n    tag_145:\n      swap1\n      0x00\n      mstore\n      keccak256(0x00, 0x20)\n      swap1\n      0x05\n      mul\n      add\n        /* \"contracts/Twitter.sol\":5971:5995  tweets[_author][i].likes */\n      0x04\n      add\n      sload\n        /* \"contracts/Twitter.sol\":5957:5995  totalLikes += tweets[_author][i].likes */\n      dup3\n      tag_148\n      swap2\n      swap1\n      tag_149\n      jump\t// in\n    tag_148:\n      swap2\n      pop\n        /* \"contracts/Twitter.sol\":5938:5941  i++ */\n      dup1\n      dup1\n      0x01\n      add\n      swap2\n      pop\n      pop\n        /* \"contracts/Twitter.sol\":5890:6006  for (uint256 i = 0; i < tweets[_author].length; i++) {... */\n      jump(tag_142)\n    tag_143:\n      pop\n        /* \"contracts/Twitter.sol\":6023:6033  totalLikes */\n      dup1\n        /* \"contracts/Twitter.sol\":6016:6033  return totalLikes */\n      swap2\n      pop\n      pop\n        /* \"contracts/Twitter.sol\":5779:6040  function getTotalLikes(address _author) external view returns (uint256) {... */\n      swap2\n      swap1\n      pop\n      jump\t// out\n        /* \"@openzeppelin/contracts/access/Ownable.sol\":1638:1723  function owner() public view virtual returns (address) {... */\n    tag_53:\n        /* \"@openzeppelin/contracts/access/Ownable.sol\":1684:1691  address */\n      0x00\n        /* \"@openzeppelin/contracts/access/Ownable.sol\":1710:1716  _owner */\n      dup1\n      0x00\n      swap1\n      sload\n      swap1\n      0x0100\n      exp\n      swap1\n      div\n      0xffffffffffffffffffffffffffffffffffffffff\n      and\n        /* \"@openzeppelin/contracts/access/Ownable.sol\":1703:1716  return _owner */\n      swap1\n      pop\n        /* \"@openzeppelin/contracts/access/Ownable.sol\":1638:1723  function owner() public view virtual returns (address) {... */\n      swap1\n      jump\t// out\n        /* \"contracts/Twitter.sol\":5433:5773  function unLikeTweet(address author, uint256 id) external onlyRegistered{... */\n    tag_58:\n        /* \"contracts/Twitter.sol\":3472:3515  IProfile.UserProfile memory userProfileTemp */\n      0x00\n        /* \"contracts/Twitter.sol\":3518:3533  profileContract */\n      0x02\n      0x00\n      swap1\n      sload\n      swap1\n      0x0100\n      exp\n      swap1\n      div\n      0xffffffffffffffffffffffffffffffffffffffff\n      and\n        /* \"contracts/Twitter.sol\":3518:3544  profileContract.getProfile */\n      0xffffffffffffffffffffffffffffffffffffffff\n      and\n      0x0f53a470\n        /* \"contracts/Twitter.sol\":3545:3555  msg.sender */\n      caller\n        /* \"contracts/Twitter.sol\":3518:3556  profileContract.getProfile(msg.sender) */\n      mload(0x40)\n      dup3\n      0xffffffff\n      and\n      0xe0\n      shl\n      dup2\n      mstore\n      0x04\n      add\n      tag_152\n      swap2\n      swap1\n      tag_55\n      jump\t// in\n    tag_152:\n      0x00\n      mload(0x40)\n      dup1\n      dup4\n      sub\n      dup2\n      dup7\n      gas\n      staticcall\n      iszero\n      dup1\n      iszero\n      tag_154\n      jumpi\n      returndatasize\n      0x00\n      dup1\n      returndatacopy\n      revert(0x00, returndatasize)\n    tag_154:\n      pop\n      pop\n      pop\n      pop\n      mload(0x40)\n      returndatasize\n      0x00\n      dup3\n      returndatacopy\n      returndatasize\n      not(0x1f)\n      0x1f\n      dup3\n      add\n      and\n      dup3\n      add\n      dup1\n      0x40\n      mstore\n      pop\n      dup2\n      add\n      swap1\n      tag_155\n      swap2\n      swap1\n      tag_98\n      jump\t// in\n    tag_155:\n        /* \"contracts/Twitter.sol\":3472:3556  IProfile.UserProfile memory userProfileTemp = profileContract.getProfile(msg.sender) */\n      swap1\n      pop\n        /* \"contracts/Twitter.sol\":3615:3616  0 */\n      0x00\n        /* \"contracts/Twitter.sol\":3577:3592  userProfileTemp */\n      dup2\n        /* \"contracts/Twitter.sol\":3577:3604  userProfileTemp.displayName */\n      0x00\n      add\n      mload\n        /* \"contracts/Twitter.sol\":3571:3612  bytes(userProfileTemp.displayName).length */\n      mload\n        /* \"contracts/Twitter.sol\":3571:3616  bytes(userProfileTemp.displayName).length > 0 */\n      gt\n        /* \"contracts/Twitter.sol\":3563:3641  require(bytes(userProfileTemp.displayName).length > 0, \"user not registered \") */\n      tag_156\n      jumpi\n      mload(0x40)\n      0x08c379a000000000000000000000000000000000000000000000000000000000\n      dup2\n      mstore\n      0x04\n      add\n      tag_157\n      swap1\n      tag_101\n      jump\t// in\n    tag_157:\n      mload(0x40)\n      dup1\n      swap2\n      sub\n      swap1\n      revert\n    tag_156:\n        /* \"contracts/Twitter.sol\":5548:5550  id */\n      dup2\n        /* \"contracts/Twitter.sol\":5523:5529  tweets */\n      0x01\n        /* \"contracts/Twitter.sol\":5523:5537  tweets[author] */\n      0x00\n        /* \"contracts/Twitter.sol\":5530:5536  author */\n      dup6\n        /* \"contracts/Twitter.sol\":5523:5537  tweets[author] */\n      0xffffffffffffffffffffffffffffffffffffffff\n      and\n      0xffffffffffffffffffffffffffffffffffffffff\n      and\n      dup2\n      mstore\n      0x20\n      add\n      swap1\n      dup2\n      mstore\n      0x20\n      add\n      0x00\n      keccak256\n        /* \"contracts/Twitter.sol\":5538:5540  id */\n      dup4\n        /* \"contracts/Twitter.sol\":5523:5541  tweets[author][id] */\n      dup2\n      sload\n      dup2\n      lt\n      tag_159\n      jumpi\n      tag_160\n      tag_105\n      jump\t// in\n    tag_160:\n    tag_159:\n      swap1\n      0x00\n      mstore\n      keccak256(0x00, 0x20)\n      swap1\n      0x05\n      mul\n      add\n        /* \"contracts/Twitter.sol\":5523:5544  tweets[author][id].id */\n      0x00\n      add\n      sload\n        /* \"contracts/Twitter.sol\":5523:5550  tweets[author][id].id == id */\n      eq\n        /* \"contracts/Twitter.sol\":5515:5575  require(tweets[author][id].id == id, \"Tweet does not exist\") */\n      tag_162\n      jumpi\n      mload(0x40)\n      0x08c379a000000000000000000000000000000000000000000000000000000000\n      dup2\n      mstore\n      0x04\n      add\n      tag_163\n      swap1\n      tag_109\n      jump\t// in\n    tag_163:\n      mload(0x40)\n      dup1\n      swap2\n      sub\n      swap1\n      revert\n    tag_162:\n        /* \"contracts/Twitter.sol\":5620:5621  0 */\n      0x00\n        /* \"contracts/Twitter.sol\":5593:5599  tweets */\n      0x01\n        /* \"contracts/Twitter.sol\":5593:5607  tweets[author] */\n      0x00\n        /* \"contracts/Twitter.sol\":5600:5606  author */\n      dup6\n        /* \"contracts/Twitter.sol\":5593:5607  tweets[author] */\n      0xffffffffffffffffffffffffffffffffffffffff\n      and\n      0xffffffffffffffffffffffffffffffffffffffff\n      and\n      dup2\n      mstore\n      0x20\n      add\n      swap1\n      dup2\n      mstore\n      0x20\n      add\n      0x00\n      keccak256\n        /* \"contracts/Twitter.sol\":5608:5610  id */\n      dup4\n        /* \"contracts/Twitter.sol\":5593:5611  tweets[author][id] */\n      dup2\n      sload\n      dup2\n      lt\n      tag_164\n      jumpi\n      tag_165\n      tag_105\n      jump\t// in\n    tag_165:\n    tag_164:\n      swap1\n      0x00\n      mstore\n      keccak256(0x00, 0x20)\n      swap1\n      0x05\n      mul\n      add\n        /* \"contracts/Twitter.sol\":5593:5617  tweets[author][id].likes */\n      0x04\n      add\n      sload\n        /* \"contracts/Twitter.sol\":5593:5621  tweets[author][id].likes > 0 */\n      gt\n        /* \"contracts/Twitter.sol\":5585:5651  require(tweets[author][id].likes > 0, \"Tweet has no likes MR MAN\") */\n      tag_167\n      jumpi\n      mload(0x40)\n      0x08c379a000000000000000000000000000000000000000000000000000000000\n      dup2\n      mstore\n      0x04\n      add\n      tag_168\n      swap1\n      tag_169\n      jump\t// in\n    tag_168:\n      mload(0x40)\n      dup1\n      swap2\n      sub\n      swap1\n      revert\n    tag_167:\n        /* \"contracts/Twitter.sol\":5662:5668  tweets */\n      0x01\n        /* \"contracts/Twitter.sol\":5662:5676  tweets[author] */\n      0x00\n        /* \"contracts/Twitter.sol\":5669:5675  author */\n      dup5\n        /* \"contracts/Twitter.sol\":5662:5676  tweets[author] */\n      0xffffffffffffffffffffffffffffffffffffffff\n      and\n      0xffffffffffffffffffffffffffffffffffffffff\n      and\n      dup2\n      mstore\n      0x20\n      add\n      swap1\n      dup2\n      mstore\n      0x20\n      add\n      0x00\n      keccak256\n        /* \"contracts/Twitter.sol\":5677:5679  id */\n      dup3\n        /* \"contracts/Twitter.sol\":5662:5680  tweets[author][id] */\n      dup2\n      sload\n      dup2\n      lt\n      tag_170\n      jumpi\n      tag_171\n      tag_105\n      jump\t// in\n    tag_171:\n    tag_170:\n      swap1\n      0x00\n      mstore\n      keccak256(0x00, 0x20)\n      swap1\n      0x05\n      mul\n      add\n        /* \"contracts/Twitter.sol\":5662:5686  tweets[author][id].likes */\n      0x04\n      add\n      0x00\n        /* \"contracts/Twitter.sol\":5662:5688  tweets[author][id].likes-- */\n      dup2\n      sload\n      dup1\n      swap3\n      swap2\n      swap1\n      tag_173\n      swap1\n      tag_174\n      jump\t// in\n    tag_173:\n      swap2\n      swap1\n      pop\n      sstore\n      pop\n        /* \"contracts/Twitter.sol\":5704:5766  TweetUnLiked(msg.sender, author, id, tweets[author][id].likes) */\n      0x273883c252143c4abce776697615e41ca9bc1aac5968c585d1c8ba8ffaa8b3c1\n        /* \"contracts/Twitter.sol\":5717:5727  msg.sender */\n      caller\n        /* \"contracts/Twitter.sol\":5729:5735  author */\n      dup5\n        /* \"contracts/Twitter.sol\":5737:5739  id */\n      dup5\n        /* \"contracts/Twitter.sol\":5741:5747  tweets */\n      0x01\n        /* \"contracts/Twitter.sol\":5741:5755  tweets[author] */\n      0x00\n        /* \"contracts/Twitter.sol\":5748:5754  author */\n      dup9\n        /* \"contracts/Twitter.sol\":5741:5755  tweets[author] */\n      0xffffffffffffffffffffffffffffffffffffffff\n      and\n      0xffffffffffffffffffffffffffffffffffffffff\n      and\n      dup2\n      mstore\n      0x20\n      add\n      swap1\n      dup2\n      mstore\n      0x20\n      add\n      0x00\n      keccak256\n        /* \"contracts/Twitter.sol\":5756:5758  id */\n      dup7\n        /* \"contracts/Twitter.sol\":5741:5759  tweets[author][id] */\n      dup2\n      sload\n      dup2\n      lt\n      tag_175\n      jumpi\n      tag_176\n      tag_105\n      jump\t// in\n    tag_176:\n    tag_175:\n      swap1\n      0x00\n      mstore\n      keccak256(0x00, 0x20)\n      swap1\n      0x05\n      mul\n      add\n        /* \"contracts/Twitter.sol\":5741:5765  tweets[author][id].likes */\n      0x04\n      add\n      sload\n        /* \"contracts/Twitter.sol\":5704:5766  TweetUnLiked(msg.sender, author, id, tweets[author][id].likes) */\n      mload(0x40)\n      tag_178\n      swap5\n      swap4\n      swap3\n      swap2\n      swap1\n      tag_119\n      jump\t// in\n    tag_178:\n      mload(0x40)\n      dup1\n      swap2\n      sub\n      swap1\n      log1\n        /* \"contracts/Twitter.sol\":3466:3655  {... */\n      pop\n        /* \"contracts/Twitter.sol\":5433:5773  function unLikeTweet(address author, uint256 id) external onlyRegistered{... */\n      pop\n      pop\n      jump\t// out\n        /* \"contracts/Twitter.sol\":2942:2973  IProfile public profileContract */\n    tag_60:\n      0x02\n      0x00\n      swap1\n      sload\n      swap1\n      0x0100\n      exp\n      swap1\n      div\n      0xffffffffffffffffffffffffffffffffffffffff\n      and\n      dup2\n      jump\t// out\n        /* \"contracts/Twitter.sol\":4931:5042  function getTweet(uint256 _i) public view returns (Tweet memory) {... */\n    tag_66:\n        /* \"contracts/Twitter.sol\":4982:4994  Tweet memory */\n      tag_179\n      tag_180\n      jump\t// in\n    tag_179:\n        /* \"contracts/Twitter.sol\":5013:5019  tweets */\n      0x01\n        /* \"contracts/Twitter.sol\":5013:5031  tweets[msg.sender] */\n      0x00\n        /* \"contracts/Twitter.sol\":5020:5030  msg.sender */\n      caller\n        /* \"contracts/Twitter.sol\":5013:5031  tweets[msg.sender] */\n      0xffffffffffffffffffffffffffffffffffffffff\n      and\n      0xffffffffffffffffffffffffffffffffffffffff\n      and\n      dup2\n      mstore\n      0x20\n      add\n      swap1\n      dup2\n      mstore\n      0x20\n      add\n      0x00\n      keccak256\n        /* \"contracts/Twitter.sol\":5032:5034  _i */\n      dup3\n        /* \"contracts/Twitter.sol\":5013:5035  tweets[msg.sender][_i] */\n      dup2\n      sload\n      dup2\n      lt\n      tag_182\n      jumpi\n      tag_183\n      tag_105\n      jump\t// in\n    tag_183:\n    tag_182:\n      swap1\n      0x00\n      mstore\n      keccak256(0x00, 0x20)\n      swap1\n      0x05\n      mul\n      add\n        /* \"contracts/Twitter.sol\":5006:5035  return tweets[msg.sender][_i] */\n      mload(0x40)\n      dup1\n      0xa0\n      add\n      0x40\n      mstore\n      swap1\n      dup2\n      0x00\n      dup3\n      add\n      sload\n      dup2\n      mstore\n      0x20\n      add\n      0x01\n      dup3\n      add\n      0x00\n      swap1\n      sload\n      swap1\n      0x0100\n      exp\n      swap1\n      div\n      0xffffffffffffffffffffffffffffffffffffffff\n      and\n      0xffffffffffffffffffffffffffffffffffffffff\n      and\n      0xffffffffffffffffffffffffffffffffffffffff\n      and\n      dup2\n      mstore\n      0x20\n      add\n      0x02\n      dup3\n      add\n      dup1\n      sload\n      tag_185\n      swap1\n      tag_75\n      jump\t// in\n    tag_185:\n      dup1\n      0x1f\n      add\n      0x20\n      dup1\n      swap2\n      div\n      mul\n      0x20\n      add\n      mload(0x40)\n      swap1\n      dup2\n      add\n      0x40\n      mstore\n      dup1\n      swap3\n      swap2\n      swap1\n      dup2\n      dup2\n      mstore\n      0x20\n      add\n      dup3\n      dup1\n      sload\n      tag_186\n      swap1\n      tag_75\n      jump\t// in\n    tag_186:\n      dup1\n      iszero\n      tag_187\n      jumpi\n      dup1\n      0x1f\n      lt\n      tag_188\n      jumpi\n      0x0100\n      dup1\n      dup4\n      sload\n      div\n      mul\n      dup4\n      mstore\n      swap2\n      0x20\n      add\n      swap2\n      jump(tag_187)\n    tag_188:\n      dup3\n      add\n      swap2\n      swap1\n      0x00\n      mstore\n      keccak256(0x00, 0x20)\n      swap1\n    tag_189:\n      dup2\n      sload\n      dup2\n      mstore\n      swap1\n      0x01\n      add\n      swap1\n      0x20\n      add\n      dup1\n      dup4\n      gt\n      tag_189\n      jumpi\n      dup3\n      swap1\n      sub\n      0x1f\n      and\n      dup3\n      add\n      swap2\n    tag_187:\n      pop\n      pop\n      pop\n      pop\n      pop\n      dup2\n      mstore\n      0x20\n      add\n      0x03\n      dup3\n      add\n      sload\n      dup2\n      mstore\n      0x20\n      add\n      0x04\n      dup3\n      add\n      sload\n      dup2\n      mstore\n      pop\n      pop\n      swap1\n      pop\n        /* \"contracts/Twitter.sol\":4931:5042  function getTweet(uint256 _i) public view returns (Tweet memory) {... */\n      swap2\n      swap1\n      pop\n      jump\t// out\n        /* \"@openzeppelin/contracts/access/Ownable.sol\":2543:2758  function transferOwnership(address newOwner) public virtual onlyOwner {... */\n    tag_71:\n        /* \"@openzeppelin/contracts/access/Ownable.sol\":1531:1544  _checkOwner() */\n      tag_191\n        /* \"@openzeppelin/contracts/access/Ownable.sol\":1531:1542  _checkOwner */\n      tag_91\n        /* \"@openzeppelin/contracts/access/Ownable.sol\":1531:1544  _checkOwner() */\n      jump\t// in\n    tag_191:\n        /* \"@openzeppelin/contracts/access/Ownable.sol\":2647:2648  0 */\n      0x00\n        /* \"@openzeppelin/contracts/access/Ownable.sol\":2627:2649  newOwner == address(0) */\n      0xffffffffffffffffffffffffffffffffffffffff\n      and\n        /* \"@openzeppelin/contracts/access/Ownable.sol\":2627:2635  newOwner */\n      dup2\n        /* \"@openzeppelin/contracts/access/Ownable.sol\":2627:2649  newOwner == address(0) */\n      0xffffffffffffffffffffffffffffffffffffffff\n      and\n      sub\n        /* \"@openzeppelin/contracts/access/Ownable.sol\":2623:2714  if (newOwner == address(0)) {... */\n      tag_193\n      jumpi\n        /* \"@openzeppelin/contracts/access/Ownable.sol\":2700:2701  0 */\n      0x00\n        /* \"@openzeppelin/contracts/access/Ownable.sol\":2672:2703  OwnableInvalidOwner(address(0)) */\n      mload(0x40)\n      0x1e4fbdf700000000000000000000000000000000000000000000000000000000\n      dup2\n      mstore\n      0x04\n      add\n      tag_194\n      swap2\n      swap1\n      tag_55\n      jump\t// in\n    tag_194:\n      mload(0x40)\n      dup1\n      swap2\n      sub\n      swap1\n      revert\n        /* \"@openzeppelin/contracts/access/Ownable.sol\":2623:2714  if (newOwner == address(0)) {... */\n    tag_193:\n        /* \"@openzeppelin/contracts/access/Ownable.sol\":2723:2751  _transferOwnership(newOwner) */\n      tag_195\n        /* \"@openzeppelin/contracts/access/Ownable.sol\":2742:2750  newOwner */\n      dup2\n        /* \"@openzeppelin/contracts/access/Ownable.sol\":2723:2741  _transferOwnership */\n      tag_124\n        /* \"@openzeppelin/contracts/access/Ownable.sol\":2723:2751  _transferOwnership(newOwner) */\n      jump\t// in\n    tag_195:\n        /* \"@openzeppelin/contracts/access/Ownable.sol\":2543:2758  function transferOwnership(address newOwner) public virtual onlyOwner {... */\n      pop\n      jump\t// out\n        /* \"@openzeppelin/contracts/access/Ownable.sol\":1796:1958  function _checkOwner() internal view virtual {... */\n    tag_91:\n        /* \"@openzeppelin/contracts/access/Ownable.sol\":1866:1878  _msgSender() */\n      tag_197\n        /* \"@openzeppelin/contracts/access/Ownable.sol\":1866:1876  _msgSender */\n      tag_198\n        /* \"@openzeppelin/contracts/access/Ownable.sol\":1866:1878  _msgSender() */\n      jump\t// in\n    tag_197:\n        /* \"@openzeppelin/contracts/access/Ownable.sol\":1855:1878  owner() != _msgSender() */\n      0xffffffffffffffffffffffffffffffffffffffff\n      and\n        /* \"@openzeppelin/contracts/access/Ownable.sol\":1855:1862  owner() */\n      tag_199\n        /* \"@openzeppelin/contracts/access/Ownable.sol\":1855:1860  owner */\n      tag_53\n        /* \"@openzeppelin/contracts/access/Ownable.sol\":1855:1862  owner() */\n      jump\t// in\n    tag_199:\n        /* \"@openzeppelin/contracts/access/Ownable.sol\":1855:1878  owner() != _msgSender() */\n      0xffffffffffffffffffffffffffffffffffffffff\n      and\n      eq\n        /* \"@openzeppelin/contracts/access/Ownable.sol\":1851:1952  if (owner() != _msgSender()) {... */\n      tag_200\n      jumpi\n        /* \"@openzeppelin/contracts/access/Ownable.sol\":1928:1940  _msgSender() */\n      tag_201\n        /* \"@openzeppelin/contracts/access/Ownable.sol\":1928:1938  _msgSender */\n      tag_198\n        /* \"@openzeppelin/contracts/access/Ownable.sol\":1928:1940  _msgSender() */\n      jump\t// in\n    tag_201:\n        /* \"@openzeppelin/contracts/access/Ownable.sol\":1901:1941  OwnableUnauthorizedAccount(_msgSender()) */\n      mload(0x40)\n      0x118cdaa700000000000000000000000000000000000000000000000000000000\n      dup2\n      mstore\n      0x04\n      add\n      tag_202\n      swap2\n      swap1\n      tag_55\n      jump\t// in\n    tag_202:\n      mload(0x40)\n      dup1\n      swap2\n      sub\n      swap1\n      revert\n        /* \"@openzeppelin/contracts/access/Ownable.sol\":1851:1952  if (owner() != _msgSender()) {... */\n    tag_200:\n        /* \"@openzeppelin/contracts/access/Ownable.sol\":1796:1958  function _checkOwner() internal view virtual {... */\n      jump\t// out\n        /* \"@openzeppelin/contracts/access/Ownable.sol\":2912:3099  function _transferOwnership(address newOwner) internal virtual {... */\n    tag_124:\n        /* \"@openzeppelin/contracts/access/Ownable.sol\":2985:3001  address oldOwner */\n      0x00\n        /* \"@openzeppelin/contracts/access/Ownable.sol\":3004:3010  _owner */\n      dup1\n      0x00\n      swap1\n      sload\n      swap1\n      0x0100\n      exp\n      swap1\n      div\n      0xffffffffffffffffffffffffffffffffffffffff\n      and\n        /* \"@openzeppelin/contracts/access/Ownable.sol\":2985:3010  address oldOwner = _owner */\n      swap1\n      pop\n        /* \"@openzeppelin/contracts/access/Ownable.sol\":3029:3037  newOwner */\n      dup2\n        /* \"@openzeppelin/contracts/access/Ownable.sol\":3020:3026  _owner */\n      0x00\n      dup1\n        /* \"@openzeppelin/contracts/access/Ownable.sol\":3020:3037  _owner = newOwner */\n      0x0100\n      exp\n      dup2\n      sload\n      dup2\n      0xffffffffffffffffffffffffffffffffffffffff\n      mul\n      not\n      and\n      swap1\n      dup4\n      0xffffffffffffffffffffffffffffffffffffffff\n      and\n      mul\n      or\n      swap1\n      sstore\n      pop\n        /* \"@openzeppelin/contracts/access/Ownable.sol\":3083:3091  newOwner */\n      dup2\n        /* \"@openzeppelin/contracts/access/Ownable.sol\":3052:3092  OwnershipTransferred(oldOwner, newOwner) */\n      0xffffffffffffffffffffffffffffffffffffffff\n      and\n        /* \"@openzeppelin/contracts/access/Ownable.sol\":3073:3081  oldOwner */\n      dup2\n        /* \"@openzeppelin/contracts/access/Ownable.sol\":3052:3092  OwnershipTransferred(oldOwner, newOwner) */\n      0xffffffffffffffffffffffffffffffffffffffff\n      and\n      0x8be0079c531659141344cd1fd0a4f28419497f9722a3daafe3b4186f6b6457e0\n      mload(0x40)\n      mload(0x40)\n      dup1\n      swap2\n      sub\n      swap1\n      log3\n        /* \"@openzeppelin/contracts/access/Ownable.sol\":2975:3099  {... */\n      pop\n        /* \"@openzeppelin/contracts/access/Ownable.sol\":2912:3099  function _transferOwnership(address newOwner) internal virtual {... */\n      pop\n      jump\t// out\n        /* \"@openzeppelin/contracts/utils/Context.sol\":656:752  function _msgSender() internal view virtual returns (address) {... */\n    tag_198:\n        /* \"@openzeppelin/contracts/utils/Context.sol\":709:716  address */\n      0x00\n        /* \"@openzeppelin/contracts/utils/Context.sol\":735:745  msg.sender */\n      caller\n        /* \"@openzeppelin/contracts/utils/Context.sol\":728:745  return msg.sender */\n      swap1\n      pop\n        /* \"@openzeppelin/contracts/utils/Context.sol\":656:752  function _msgSender() internal view virtual returns (address) {... */\n      swap1\n      jump\t// out\n    tag_180:\n      mload(0x40)\n      dup1\n      0xa0\n      add\n      0x40\n      mstore\n      dup1\n      0x00\n      dup2\n      mstore\n      0x20\n      add\n      and(0xffffffffffffffffffffffffffffffffffffffff, 0x00)\n      dup2\n      mstore\n      0x20\n      add\n      0x60\n      dup2\n      mstore\n      0x20\n      add\n      0x00\n      dup2\n      mstore\n      0x20\n      add\n      0x00\n      dup2\n      mstore\n      pop\n      swap1\n      jump\t// out\n        /* \"#utility.yul\":7:82   */\n    tag_205:\n        /* \"#utility.yul\":40:46   */\n      0x00\n        /* \"#utility.yul\":73:75   */\n      0x40\n        /* \"#utility.yul\":67:76   */\n      mload\n        /* \"#utility.yul\":57:76   */\n      swap1\n      pop\n        /* \"#utility.yul\":7:82   */\n      swap1\n      jump\t// out\n        /* \"#utility.yul\":88:205   */\n    tag_206:\n        /* \"#utility.yul\":197:198   */\n      0x00\n        /* \"#utility.yul\":194:195   */\n      dup1\n        /* \"#utility.yul\":187:199   */\n      revert\n        /* \"#utility.yul\":211:328   */\n    tag_207:\n        /* \"#utility.yul\":320:321   */\n      0x00\n        /* \"#utility.yul\":317:318   */\n      dup1\n        /* \"#utility.yul\":310:322   */\n      revert\n        /* \"#utility.yul\":334:460   */\n    tag_208:\n        /* \"#utility.yul\":371:378   */\n      0x00\n        /* \"#utility.yul\":411:453   */\n      0xffffffffffffffffffffffffffffffffffffffff\n        /* \"#utility.yul\":404:409   */\n      dup3\n        /* \"#utility.yul\":400:454   */\n      and\n        /* \"#utility.yul\":389:454   */\n      swap1\n      pop\n        /* \"#utility.yul\":334:460   */\n      swap2\n      swap1\n      pop\n      jump\t// out\n        /* \"#utility.yul\":466:562   */\n    tag_209:\n        /* \"#utility.yul\":503:510   */\n      0x00\n        /* \"#utility.yul\":532:556   */\n      tag_287\n        /* \"#utility.yul\":550:555   */\n      dup3\n        /* \"#utility.yul\":532:556   */\n      tag_208\n      jump\t// in\n    tag_287:\n        /* \"#utility.yul\":521:556   */\n      swap1\n      pop\n        /* \"#utility.yul\":466:562   */\n      swap2\n      swap1\n      pop\n      jump\t// out\n        /* \"#utility.yul\":568:690   */\n    tag_210:\n        /* \"#utility.yul\":641:665   */\n      tag_289\n        /* \"#utility.yul\":659:664   */\n      dup2\n        /* \"#utility.yul\":641:665   */\n      tag_209\n      jump\t// in\n    tag_289:\n        /* \"#utility.yul\":634:639   */\n      dup2\n        /* \"#utility.yul\":631:666   */\n      eq\n        /* \"#utility.yul\":621:684   */\n      tag_290\n      jumpi\n        /* \"#utility.yul\":680:681   */\n      0x00\n        /* \"#utility.yul\":677:678   */\n      dup1\n        /* \"#utility.yul\":670:682   */\n      revert\n        /* \"#utility.yul\":621:684   */\n    tag_290:\n        /* \"#utility.yul\":568:690   */\n      pop\n      jump\t// out\n        /* \"#utility.yul\":696:835   */\n    tag_211:\n        /* \"#utility.yul\":742:747   */\n      0x00\n        /* \"#utility.yul\":780:786   */\n      dup2\n        /* \"#utility.yul\":767:787   */\n      calldataload\n        /* \"#utility.yul\":758:787   */\n      swap1\n      pop\n        /* \"#utility.yul\":796:829   */\n      tag_292\n        /* \"#utility.yul\":823:828   */\n      dup2\n        /* \"#utility.yul\":796:829   */\n      tag_210\n      jump\t// in\n    tag_292:\n        /* \"#utility.yul\":696:835   */\n      swap3\n      swap2\n      pop\n      pop\n      jump\t// out\n        /* \"#utility.yul\":841:918   */\n    tag_212:\n        /* \"#utility.yul\":878:885   */\n      0x00\n        /* \"#utility.yul\":907:912   */\n      dup2\n        /* \"#utility.yul\":896:912   */\n      swap1\n      pop\n        /* \"#utility.yul\":841:918   */\n      swap2\n      swap1\n      pop\n      jump\t// out\n        /* \"#utility.yul\":924:1046   */\n    tag_213:\n        /* \"#utility.yul\":997:1021   */\n      tag_295\n        /* \"#utility.yul\":1015:1020   */\n      dup2\n        /* \"#utility.yul\":997:1021   */\n      tag_212\n      jump\t// in\n    tag_295:\n        /* \"#utility.yul\":990:995   */\n      dup2\n        /* \"#utility.yul\":987:1022   */\n      eq\n        /* \"#utility.yul\":977:1040   */\n      tag_296\n      jumpi\n        /* \"#utility.yul\":1036:1037   */\n      0x00\n        /* \"#utility.yul\":1033:1034   */\n      dup1\n        /* \"#utility.yul\":1026:1038   */\n      revert\n        /* \"#utility.yul\":977:1040   */\n    tag_296:\n        /* \"#utility.yul\":924:1046   */\n      pop\n      jump\t// out\n        /* \"#utility.yul\":1052:1191   */\n    tag_214:\n        /* \"#utility.yul\":1098:1103   */\n      0x00\n        /* \"#utility.yul\":1136:1142   */\n      dup2\n        /* \"#utility.yul\":1123:1143   */\n      calldataload\n        /* \"#utility.yul\":1114:1143   */\n      swap1\n      pop\n        /* \"#utility.yul\":1152:1185   */\n      tag_298\n        /* \"#utility.yul\":1179:1184   */\n      dup2\n        /* \"#utility.yul\":1152:1185   */\n      tag_213\n      jump\t// in\n    tag_298:\n        /* \"#utility.yul\":1052:1191   */\n      swap3\n      swap2\n      pop\n      pop\n      jump\t// out\n        /* \"#utility.yul\":1197:1671   */\n    tag_20:\n        /* \"#utility.yul\":1265:1271   */\n      0x00\n        /* \"#utility.yul\":1273:1279   */\n      dup1\n        /* \"#utility.yul\":1322:1324   */\n      0x40\n        /* \"#utility.yul\":1310:1319   */\n      dup4\n        /* \"#utility.yul\":1301:1308   */\n      dup6\n        /* \"#utility.yul\":1297:1320   */\n      sub\n        /* \"#utility.yul\":1293:1325   */\n      slt\n        /* \"#utility.yul\":1290:1409   */\n      iszero\n      tag_300\n      jumpi\n        /* \"#utility.yul\":1328:1407   */\n      tag_301\n      tag_206\n      jump\t// in\n    tag_301:\n        /* \"#utility.yul\":1290:1409   */\n    tag_300:\n        /* \"#utility.yul\":1448:1449   */\n      0x00\n        /* \"#utility.yul\":1473:1526   */\n      tag_302\n        /* \"#utility.yul\":1518:1525   */\n      dup6\n        /* \"#utility.yul\":1509:1515   */\n      dup3\n        /* \"#utility.yul\":1498:1507   */\n      dup7\n        /* \"#utility.yul\":1494:1516   */\n      add\n        /* \"#utility.yul\":1473:1526   */\n      tag_211\n      jump\t// in\n    tag_302:\n        /* \"#utility.yul\":1463:1526   */\n      swap3\n      pop\n        /* \"#utility.yul\":1419:1536   */\n      pop\n        /* \"#utility.yul\":1575:1577   */\n      0x20\n        /* \"#utility.yul\":1601:1654   */\n      tag_303\n        /* \"#utility.yul\":1646:1653   */\n      dup6\n        /* \"#utility.yul\":1637:1643   */\n      dup3\n        /* \"#utility.yul\":1626:1635   */\n      dup7\n        /* \"#utility.yul\":1622:1644   */\n      add\n        /* \"#utility.yul\":1601:1654   */\n      tag_214\n      jump\t// in\n    tag_303:\n        /* \"#utility.yul\":1591:1654   */\n      swap2\n      pop\n        /* \"#utility.yul\":1546:1664   */\n      pop\n        /* \"#utility.yul\":1197:1671   */\n      swap3\n      pop\n      swap3\n      swap1\n      pop\n      jump\t// out\n        /* \"#utility.yul\":1677:1795   */\n    tag_215:\n        /* \"#utility.yul\":1764:1788   */\n      tag_305\n        /* \"#utility.yul\":1782:1787   */\n      dup2\n        /* \"#utility.yul\":1764:1788   */\n      tag_212\n      jump\t// in\n    tag_305:\n        /* \"#utility.yul\":1759:1762   */\n      dup3\n        /* \"#utility.yul\":1752:1789   */\n      mstore\n        /* \"#utility.yul\":1677:1795   */\n      pop\n      pop\n      jump\t// out\n        /* \"#utility.yul\":1801:1919   */\n    tag_216:\n        /* \"#utility.yul\":1888:1912   */\n      tag_307\n        /* \"#utility.yul\":1906:1911   */\n      dup2\n        /* \"#utility.yul\":1888:1912   */\n      tag_209\n      jump\t// in\n    tag_307:\n        /* \"#utility.yul\":1883:1886   */\n      dup3\n        /* \"#utility.yul\":1876:1913   */\n      mstore\n        /* \"#utility.yul\":1801:1919   */\n      pop\n      pop\n      jump\t// out\n        /* \"#utility.yul\":1925:2024   */\n    tag_217:\n        /* \"#utility.yul\":1977:1983   */\n      0x00\n        /* \"#utility.yul\":2011:2016   */\n      dup2\n        /* \"#utility.yul\":2005:2017   */\n      mload\n        /* \"#utility.yul\":1995:2017   */\n      swap1\n      pop\n        /* \"#utility.yul\":1925:2024   */\n      swap2\n      swap1\n      pop\n      jump\t// out\n        /* \"#utility.yul\":2030:2199   */\n    tag_218:\n        /* \"#utility.yul\":2114:2125   */\n      0x00\n        /* \"#utility.yul\":2148:2154   */\n      dup3\n        /* \"#utility.yul\":2143:2146   */\n      dup3\n        /* \"#utility.yul\":2136:2155   */\n      mstore\n        /* \"#utility.yul\":2188:2192   */\n      0x20\n        /* \"#utility.yul\":2183:2186   */\n      dup3\n        /* \"#utility.yul\":2179:2193   */\n      add\n        /* \"#utility.yul\":2164:2193   */\n      swap1\n      pop\n        /* \"#utility.yul\":2030:2199   */\n      swap3\n      swap2\n      pop\n      pop\n      jump\t// out\n        /* \"#utility.yul\":2205:2344   */\n    tag_219:\n        /* \"#utility.yul\":2294:2300   */\n      dup3\n        /* \"#utility.yul\":2289:2292   */\n      dup2\n        /* \"#utility.yul\":2284:2287   */\n      dup4\n        /* \"#utility.yul\":2278:2301   */\n      mcopy\n        /* \"#utility.yul\":2335:2336   */\n      0x00\n        /* \"#utility.yul\":2326:2332   */\n      dup4\n        /* \"#utility.yul\":2321:2324   */\n      dup4\n        /* \"#utility.yul\":2317:2333   */\n      add\n        /* \"#utility.yul\":2310:2337   */\n      mstore\n        /* \"#utility.yul\":2205:2344   */\n      pop\n      pop\n      pop\n      jump\t// out\n        /* \"#utility.yul\":2350:2452   */\n    tag_220:\n        /* \"#utility.yul\":2391:2397   */\n      0x00\n        /* \"#utility.yul\":2442:2444   */\n      0x1f\n        /* \"#utility.yul\":2438:2445   */\n      not\n        /* \"#utility.yul\":2433:2435   */\n      0x1f\n        /* \"#utility.yul\":2426:2431   */\n      dup4\n        /* \"#utility.yul\":2422:2436   */\n      add\n        /* \"#utility.yul\":2418:2446   */\n      and\n        /* \"#utility.yul\":2408:2446   */\n      swap1\n      pop\n        /* \"#utility.yul\":2350:2452   */\n      swap2\n      swap1\n      pop\n      jump\t// out\n        /* \"#utility.yul\":2458:2835   */\n    tag_221:\n        /* \"#utility.yul\":2546:2549   */\n      0x00\n        /* \"#utility.yul\":2574:2613   */\n      tag_313\n        /* \"#utility.yul\":2607:2612   */\n      dup3\n        /* \"#utility.yul\":2574:2613   */\n      tag_217\n      jump\t// in\n    tag_313:\n        /* \"#utility.yul\":2629:2700   */\n      tag_314\n        /* \"#utility.yul\":2693:2699   */\n      dup2\n        /* \"#utility.yul\":2688:2691   */\n      dup6\n        /* \"#utility.yul\":2629:2700   */\n      tag_218\n      jump\t// in\n    tag_314:\n        /* \"#utility.yul\":2622:2700   */\n      swap4\n      pop\n        /* \"#utility.yul\":2709:2774   */\n      tag_315\n        /* \"#utility.yul\":2767:2773   */\n      dup2\n        /* \"#utility.yul\":2762:2765   */\n      dup6\n        /* \"#utility.yul\":2755:2759   */\n      0x20\n        /* \"#utility.yul\":2748:2753   */\n      dup7\n        /* \"#utility.yul\":2744:2760   */\n      add\n        /* \"#utility.yul\":2709:2774   */\n      tag_219\n      jump\t// in\n    tag_315:\n        /* \"#utility.yul\":2799:2828   */\n      tag_316\n        /* \"#utility.yul\":2821:2827   */\n      dup2\n        /* \"#utility.yul\":2799:2828   */\n      tag_220\n      jump\t// in\n    tag_316:\n        /* \"#utility.yul\":2794:2797   */\n      dup5\n        /* \"#utility.yul\":2790:2829   */\n      add\n        /* \"#utility.yul\":2783:2829   */\n      swap2\n      pop\n        /* \"#utility.yul\":2550:2835   */\n      pop\n        /* \"#utility.yul\":2458:2835   */\n      swap3\n      swap2\n      pop\n      pop\n      jump\t// out\n        /* \"#utility.yul\":2841:3596   */\n    tag_23:\n        /* \"#utility.yul\":3066:3070   */\n      0x00\n        /* \"#utility.yul\":3104:3107   */\n      0xa0\n        /* \"#utility.yul\":3093:3102   */\n      dup3\n        /* \"#utility.yul\":3089:3108   */\n      add\n        /* \"#utility.yul\":3081:3108   */\n      swap1\n      pop\n        /* \"#utility.yul\":3118:3189   */\n      tag_318\n        /* \"#utility.yul\":3186:3187   */\n      0x00\n        /* \"#utility.yul\":3175:3184   */\n      dup4\n        /* \"#utility.yul\":3171:3188   */\n      add\n        /* \"#utility.yul\":3162:3168   */\n      dup9\n        /* \"#utility.yul\":3118:3189   */\n      tag_215\n      jump\t// in\n    tag_318:\n        /* \"#utility.yul\":3199:3271   */\n      tag_319\n        /* \"#utility.yul\":3267:3269   */\n      0x20\n        /* \"#utility.yul\":3256:3265   */\n      dup4\n        /* \"#utility.yul\":3252:3270   */\n      add\n        /* \"#utility.yul\":3243:3249   */\n      dup8\n        /* \"#utility.yul\":3199:3271   */\n      tag_216\n      jump\t// in\n    tag_319:\n        /* \"#utility.yul\":3318:3327   */\n      dup2\n        /* \"#utility.yul\":3312:3316   */\n      dup2\n        /* \"#utility.yul\":3308:3328   */\n      sub\n        /* \"#utility.yul\":3303:3305   */\n      0x40\n        /* \"#utility.yul\":3292:3301   */\n      dup4\n        /* \"#utility.yul\":3288:3306   */\n      add\n        /* \"#utility.yul\":3281:3329   */\n      mstore\n        /* \"#utility.yul\":3346:3424   */\n      tag_320\n        /* \"#utility.yul\":3419:3423   */\n      dup2\n        /* \"#utility.yul\":3410:3416   */\n      dup7\n        /* \"#utility.yul\":3346:3424   */\n      tag_221\n      jump\t// in\n    tag_320:\n        /* \"#utility.yul\":3338:3424   */\n      swap1\n      pop\n        /* \"#utility.yul\":3434:3506   */\n      tag_321\n        /* \"#utility.yul\":3502:3504   */\n      0x60\n        /* \"#utility.yul\":3491:3500   */\n      dup4\n        /* \"#utility.yul\":3487:3505   */\n      add\n        /* \"#utility.yul\":3478:3484   */\n      dup6\n        /* \"#utility.yul\":3434:3506   */\n      tag_215\n      jump\t// in\n    tag_321:\n        /* \"#utility.yul\":3516:3589   */\n      tag_322\n        /* \"#utility.yul\":3584:3587   */\n      0x80\n        /* \"#utility.yul\":3573:3582   */\n      dup4\n        /* \"#utility.yul\":3569:3588   */\n      add\n        /* \"#utility.yul\":3560:3566   */\n      dup5\n        /* \"#utility.yul\":3516:3589   */\n      tag_215\n      jump\t// in\n    tag_322:\n        /* \"#utility.yul\":2841:3596   */\n      swap7\n      swap6\n      pop\n      pop\n      pop\n      pop\n      pop\n      pop\n      jump\t// out\n        /* \"#utility.yul\":3602:3931   */\n    tag_26:\n        /* \"#utility.yul\":3661:3667   */\n      0x00\n        /* \"#utility.yul\":3710:3712   */\n      0x20\n        /* \"#utility.yul\":3698:3707   */\n      dup3\n        /* \"#utility.yul\":3689:3696   */\n      dup5\n        /* \"#utility.yul\":3685:3708   */\n      sub\n        /* \"#utility.yul\":3681:3713   */\n      slt\n        /* \"#utility.yul\":3678:3797   */\n      iszero\n      tag_324\n      jumpi\n        /* \"#utility.yul\":3716:3795   */\n      tag_325\n      tag_206\n      jump\t// in\n    tag_325:\n        /* \"#utility.yul\":3678:3797   */\n    tag_324:\n        /* \"#utility.yul\":3836:3837   */\n      0x00\n        /* \"#utility.yul\":3861:3914   */\n      tag_326\n        /* \"#utility.yul\":3906:3913   */\n      dup5\n        /* \"#utility.yul\":3897:3903   */\n      dup3\n        /* \"#utility.yul\":3886:3895   */\n      dup6\n        /* \"#utility.yul\":3882:3904   */\n      add\n        /* \"#utility.yul\":3861:3914   */\n      tag_211\n      jump\t// in\n    tag_326:\n        /* \"#utility.yul\":3851:3914   */\n      swap2\n      pop\n        /* \"#utility.yul\":3807:3924   */\n      pop\n        /* \"#utility.yul\":3602:3931   */\n      swap3\n      swap2\n      pop\n      pop\n      jump\t// out\n        /* \"#utility.yul\":3937:4073   */\n    tag_222:\n        /* \"#utility.yul\":4026:4032   */\n      0x00\n        /* \"#utility.yul\":4060:4065   */\n      dup2\n        /* \"#utility.yul\":4054:4066   */\n      mload\n        /* \"#utility.yul\":4044:4066   */\n      swap1\n      pop\n        /* \"#utility.yul\":3937:4073   */\n      swap2\n      swap1\n      pop\n      jump\t// out\n        /* \"#utility.yul\":4079:4285   */\n    tag_223:\n        /* \"#utility.yul\":4200:4211   */\n      0x00\n        /* \"#utility.yul\":4234:4240   */\n      dup3\n        /* \"#utility.yul\":4229:4232   */\n      dup3\n        /* \"#utility.yul\":4222:4241   */\n      mstore\n        /* \"#utility.yul\":4274:4278   */\n      0x20\n        /* \"#utility.yul\":4269:4272   */\n      dup3\n        /* \"#utility.yul\":4265:4279   */\n      add\n        /* \"#utility.yul\":4250:4279   */\n      swap1\n      pop\n        /* \"#utility.yul\":4079:4285   */\n      swap3\n      swap2\n      pop\n      pop\n      jump\t// out\n        /* \"#utility.yul\":4291:4445   */\n    tag_224:\n        /* \"#utility.yul\":4380:4384   */\n      0x00\n        /* \"#utility.yul\":4403:4406   */\n      dup2\n        /* \"#utility.yul\":4395:4406   */\n      swap1\n      pop\n        /* \"#utility.yul\":4433:4437   */\n      0x20\n        /* \"#utility.yul\":4428:4431   */\n      dup3\n        /* \"#utility.yul\":4424:4438   */\n      add\n        /* \"#utility.yul\":4416:4438   */\n      swap1\n      pop\n        /* \"#utility.yul\":4291:4445   */\n      swap2\n      swap1\n      pop\n      jump\t// out\n        /* \"#utility.yul\":4451:4559   */\n    tag_225:\n        /* \"#utility.yul\":4528:4552   */\n      tag_331\n        /* \"#utility.yul\":4546:4551   */\n      dup2\n        /* \"#utility.yul\":4528:4552   */\n      tag_212\n      jump\t// in\n    tag_331:\n        /* \"#utility.yul\":4523:4526   */\n      dup3\n        /* \"#utility.yul\":4516:4553   */\n      mstore\n        /* \"#utility.yul\":4451:4559   */\n      pop\n      pop\n      jump\t// out\n        /* \"#utility.yul\":4565:4673   */\n    tag_226:\n        /* \"#utility.yul\":4642:4666   */\n      tag_333\n        /* \"#utility.yul\":4660:4665   */\n      dup2\n        /* \"#utility.yul\":4642:4666   */\n      tag_209\n      jump\t// in\n    tag_333:\n        /* \"#utility.yul\":4637:4640   */\n      dup3\n        /* \"#utility.yul\":4630:4667   */\n      mstore\n        /* \"#utility.yul\":4565:4673   */\n      pop\n      pop\n      jump\t// out\n        /* \"#utility.yul\":4679:4838   */\n    tag_227:\n        /* \"#utility.yul\":4753:4764   */\n      0x00\n        /* \"#utility.yul\":4787:4793   */\n      dup3\n        /* \"#utility.yul\":4782:4785   */\n      dup3\n        /* \"#utility.yul\":4775:4794   */\n      mstore\n        /* \"#utility.yul\":4827:4831   */\n      0x20\n        /* \"#utility.yul\":4822:4825   */\n      dup3\n        /* \"#utility.yul\":4818:4832   */\n      add\n        /* \"#utility.yul\":4803:4832   */\n      swap1\n      pop\n        /* \"#utility.yul\":4679:4838   */\n      swap3\n      swap2\n      pop\n      pop\n      jump\t// out\n        /* \"#utility.yul\":4844:5201   */\n    tag_228:\n        /* \"#utility.yul\":4922:4925   */\n      0x00\n        /* \"#utility.yul\":4950:4989   */\n      tag_336\n        /* \"#utility.yul\":4983:4988   */\n      dup3\n        /* \"#utility.yul\":4950:4989   */\n      tag_217\n      jump\t// in\n    tag_336:\n        /* \"#utility.yul\":5005:5066   */\n      tag_337\n        /* \"#utility.yul\":5059:5065   */\n      dup2\n        /* \"#utility.yul\":5054:5057   */\n      dup6\n        /* \"#utility.yul\":5005:5066   */\n      tag_227\n      jump\t// in\n    tag_337:\n        /* \"#utility.yul\":4998:5066   */\n      swap4\n      pop\n        /* \"#utility.yul\":5075:5140   */\n      tag_338\n        /* \"#utility.yul\":5133:5139   */\n      dup2\n        /* \"#utility.yul\":5128:5131   */\n      dup6\n        /* \"#utility.yul\":5121:5125   */\n      0x20\n        /* \"#utility.yul\":5114:5119   */\n      dup7\n        /* \"#utility.yul\":5110:5126   */\n      add\n        /* \"#utility.yul\":5075:5140   */\n      tag_219\n      jump\t// in\n    tag_338:\n        /* \"#utility.yul\":5165:5194   */\n      tag_339\n        /* \"#utility.yul\":5187:5193   */\n      dup2\n        /* \"#utility.yul\":5165:5194   */\n      tag_220\n      jump\t// in\n    tag_339:\n        /* \"#utility.yul\":5160:5163   */\n      dup5\n        /* \"#utility.yul\":5156:5195   */\n      add\n        /* \"#utility.yul\":5149:5195   */\n      swap2\n      pop\n        /* \"#utility.yul\":4926:5201   */\n      pop\n        /* \"#utility.yul\":4844:5201   */\n      swap3\n      swap2\n      pop\n      pop\n      jump\t// out\n        /* \"#utility.yul\":5259:6380   */\n    tag_229:\n        /* \"#utility.yul\":5362:5365   */\n      0x00\n        /* \"#utility.yul\":5398:5402   */\n      0xa0\n        /* \"#utility.yul\":5393:5396   */\n      dup4\n        /* \"#utility.yul\":5389:5403   */\n      add\n        /* \"#utility.yul\":5483:5487   */\n      0x00\n        /* \"#utility.yul\":5476:5481   */\n      dup4\n        /* \"#utility.yul\":5472:5488   */\n      add\n        /* \"#utility.yul\":5466:5489   */\n      mload\n        /* \"#utility.yul\":5502:5565   */\n      tag_341\n        /* \"#utility.yul\":5559:5563   */\n      0x00\n        /* \"#utility.yul\":5554:5557   */\n      dup7\n        /* \"#utility.yul\":5550:5564   */\n      add\n        /* \"#utility.yul\":5536:5548   */\n      dup3\n        /* \"#utility.yul\":5502:5565   */\n      tag_225\n      jump\t// in\n    tag_341:\n        /* \"#utility.yul\":5413:5575   */\n      pop\n        /* \"#utility.yul\":5659:5663   */\n      0x20\n        /* \"#utility.yul\":5652:5657   */\n      dup4\n        /* \"#utility.yul\":5648:5664   */\n      add\n        /* \"#utility.yul\":5642:5665   */\n      mload\n        /* \"#utility.yul\":5678:5741   */\n      tag_342\n        /* \"#utility.yul\":5735:5739   */\n      0x20\n        /* \"#utility.yul\":5730:5733   */\n      dup7\n        /* \"#utility.yul\":5726:5740   */\n      add\n        /* \"#utility.yul\":5712:5724   */\n      dup3\n        /* \"#utility.yul\":5678:5741   */\n      tag_226\n      jump\t// in\n    tag_342:\n        /* \"#utility.yul\":5585:5751   */\n      pop\n        /* \"#utility.yul\":5836:5840   */\n      0x40\n        /* \"#utility.yul\":5829:5834   */\n      dup4\n        /* \"#utility.yul\":5825:5841   */\n      add\n        /* \"#utility.yul\":5819:5842   */\n      mload\n        /* \"#utility.yul\":5889:5892   */\n      dup5\n        /* \"#utility.yul\":5883:5887   */\n      dup3\n        /* \"#utility.yul\":5879:5893   */\n      sub\n        /* \"#utility.yul\":5872:5876   */\n      0x40\n        /* \"#utility.yul\":5867:5870   */\n      dup7\n        /* \"#utility.yul\":5863:5877   */\n      add\n        /* \"#utility.yul\":5856:5894   */\n      mstore\n        /* \"#utility.yul\":5915:5988   */\n      tag_343\n        /* \"#utility.yul\":5983:5987   */\n      dup3\n        /* \"#utility.yul\":5969:5981   */\n      dup3\n        /* \"#utility.yul\":5915:5988   */\n      tag_228\n      jump\t// in\n    tag_343:\n        /* \"#utility.yul\":5907:5988   */\n      swap2\n      pop\n        /* \"#utility.yul\":5761:5999   */\n      pop\n        /* \"#utility.yul\":6086:6090   */\n      0x60\n        /* \"#utility.yul\":6079:6084   */\n      dup4\n        /* \"#utility.yul\":6075:6091   */\n      add\n        /* \"#utility.yul\":6069:6092   */\n      mload\n        /* \"#utility.yul\":6105:6168   */\n      tag_344\n        /* \"#utility.yul\":6162:6166   */\n      0x60\n        /* \"#utility.yul\":6157:6160   */\n      dup7\n        /* \"#utility.yul\":6153:6167   */\n      add\n        /* \"#utility.yul\":6139:6151   */\n      dup3\n        /* \"#utility.yul\":6105:6168   */\n      tag_225\n      jump\t// in\n    tag_344:\n        /* \"#utility.yul\":6009:6178   */\n      pop\n        /* \"#utility.yul\":6261:6265   */\n      0x80\n        /* \"#utility.yul\":6254:6259   */\n      dup4\n        /* \"#utility.yul\":6250:6266   */\n      add\n        /* \"#utility.yul\":6244:6267   */\n      mload\n        /* \"#utility.yul\":6280:6343   */\n      tag_345\n        /* \"#utility.yul\":6337:6341   */\n      0x80\n        /* \"#utility.yul\":6332:6335   */\n      dup7\n        /* \"#utility.yul\":6328:6342   */\n      add\n        /* \"#utility.yul\":6314:6326   */\n      dup3\n        /* \"#utility.yul\":6280:6343   */\n      tag_225\n      jump\t// in\n    tag_345:\n        /* \"#utility.yul\":6188:6353   */\n      pop\n        /* \"#utility.yul\":6370:6374   */\n      dup1\n        /* \"#utility.yul\":6363:6374   */\n      swap2\n      pop\n        /* \"#utility.yul\":5367:6380   */\n      pop\n        /* \"#utility.yul\":5259:6380   */\n      swap3\n      swap2\n      pop\n      pop\n      jump\t// out\n        /* \"#utility.yul\":6386:6630   */\n    tag_230:\n        /* \"#utility.yul\":6499:6509   */\n      0x00\n        /* \"#utility.yul\":6534:6624   */\n      tag_347\n        /* \"#utility.yul\":6620:6623   */\n      dup4\n        /* \"#utility.yul\":6612:6618   */\n      dup4\n        /* \"#utility.yul\":6534:6624   */\n      tag_229\n      jump\t// in\n    tag_347:\n        /* \"#utility.yul\":6520:6624   */\n      swap1\n      pop\n        /* \"#utility.yul\":6386:6630   */\n      swap3\n      swap2\n      pop\n      pop\n      jump\t// out\n        /* \"#utility.yul\":6636:6771   */\n    tag_231:\n        /* \"#utility.yul\":6728:6732   */\n      0x00\n        /* \"#utility.yul\":6760:6764   */\n      0x20\n        /* \"#utility.yul\":6755:6758   */\n      dup3\n        /* \"#utility.yul\":6751:6765   */\n      add\n        /* \"#utility.yul\":6743:6765   */\n      swap1\n      pop\n        /* \"#utility.yul\":6636:6771   */\n      swap2\n      swap1\n      pop\n      jump\t// out\n        /* \"#utility.yul\":6833:7920   */\n    tag_232:\n        /* \"#utility.yul\":6996:6999   */\n      0x00\n        /* \"#utility.yul\":7025:7101   */\n      tag_350\n        /* \"#utility.yul\":7095:7100   */\n      dup3\n        /* \"#utility.yul\":7025:7101   */\n      tag_222\n      jump\t// in\n    tag_350:\n        /* \"#utility.yul\":7117:7225   */\n      tag_351\n        /* \"#utility.yul\":7218:7224   */\n      dup2\n        /* \"#utility.yul\":7213:7216   */\n      dup6\n        /* \"#utility.yul\":7117:7225   */\n      tag_223\n      jump\t// in\n    tag_351:\n        /* \"#utility.yul\":7110:7225   */\n      swap4\n      pop\n        /* \"#utility.yul\":7251:7254   */\n      dup4\n        /* \"#utility.yul\":7296:7300   */\n      0x20\n        /* \"#utility.yul\":7288:7294   */\n      dup3\n        /* \"#utility.yul\":7284:7301   */\n      mul\n        /* \"#utility.yul\":7279:7282   */\n      dup6\n        /* \"#utility.yul\":7275:7302   */\n      add\n        /* \"#utility.yul\":7326:7404   */\n      tag_352\n        /* \"#utility.yul\":7398:7403   */\n      dup6\n        /* \"#utility.yul\":7326:7404   */\n      tag_224\n      jump\t// in\n    tag_352:\n        /* \"#utility.yul\":7427:7434   */\n      dup1\n        /* \"#utility.yul\":7458:7459   */\n      0x00\n        /* \"#utility.yul\":7443:7875   */\n    tag_353:\n        /* \"#utility.yul\":7468:7474   */\n      dup6\n        /* \"#utility.yul\":7465:7466   */\n      dup2\n        /* \"#utility.yul\":7462:7475   */\n      lt\n        /* \"#utility.yul\":7443:7875   */\n      iszero\n      tag_355\n      jumpi\n        /* \"#utility.yul\":7539:7548   */\n      dup5\n        /* \"#utility.yul\":7533:7537   */\n      dup5\n        /* \"#utility.yul\":7529:7549   */\n      sub\n        /* \"#utility.yul\":7524:7527   */\n      dup10\n        /* \"#utility.yul\":7517:7550   */\n      mstore\n        /* \"#utility.yul\":7590:7596   */\n      dup2\n        /* \"#utility.yul\":7584:7597   */\n      mload\n        /* \"#utility.yul\":7618:7726   */\n      tag_356\n        /* \"#utility.yul\":7721:7725   */\n      dup6\n        /* \"#utility.yul\":7706:7719   */\n      dup3\n        /* \"#utility.yul\":7618:7726   */\n      tag_230\n      jump\t// in\n    tag_356:\n        /* \"#utility.yul\":7610:7726   */\n      swap5\n      pop\n        /* \"#utility.yul\":7749:7831   */\n      tag_357\n        /* \"#utility.yul\":7824:7830   */\n      dup4\n        /* \"#utility.yul\":7749:7831   */\n      tag_231\n      jump\t// in\n    tag_357:\n        /* \"#utility.yul\":7739:7831   */\n      swap3\n      pop\n        /* \"#utility.yul\":7860:7864   */\n      0x20\n        /* \"#utility.yul\":7855:7858   */\n      dup11\n        /* \"#utility.yul\":7851:7865   */\n      add\n        /* \"#utility.yul\":7844:7865   */\n      swap10\n      pop\n        /* \"#utility.yul\":7503:7875   */\n      pop\n        /* \"#utility.yul\":7490:7491   */\n      0x01\n        /* \"#utility.yul\":7487:7488   */\n      dup2\n        /* \"#utility.yul\":7483:7492   */\n      add\n        /* \"#utility.yul\":7478:7492   */\n      swap1\n      pop\n        /* \"#utility.yul\":7443:7875   */\n      jump(tag_353)\n    tag_355:\n        /* \"#utility.yul\":7447:7461   */\n      pop\n        /* \"#utility.yul\":7891:7895   */\n      dup3\n        /* \"#utility.yul\":7884:7895   */\n      swap8\n      pop\n        /* \"#utility.yul\":7911:7914   */\n      dup8\n        /* \"#utility.yul\":7904:7914   */\n      swap6\n      pop\n        /* \"#utility.yul\":7001:7920   */\n      pop\n      pop\n      pop\n      pop\n      pop\n        /* \"#utility.yul\":6833:7920   */\n      swap3\n      swap2\n      pop\n      pop\n      jump\t// out\n        /* \"#utility.yul\":7926:8387   */\n    tag_29:\n        /* \"#utility.yul\":8113:8117   */\n      0x00\n        /* \"#utility.yul\":8151:8153   */\n      0x20\n        /* \"#utility.yul\":8140:8149   */\n      dup3\n        /* \"#utility.yul\":8136:8154   */\n      add\n        /* \"#utility.yul\":8128:8154   */\n      swap1\n      pop\n        /* \"#utility.yul\":8200:8209   */\n      dup2\n        /* \"#utility.yul\":8194:8198   */\n      dup2\n        /* \"#utility.yul\":8190:8210   */\n      sub\n        /* \"#utility.yul\":8186:8187   */\n      0x00\n        /* \"#utility.yul\":8175:8184   */\n      dup4\n        /* \"#utility.yul\":8171:8188   */\n      add\n        /* \"#utility.yul\":8164:8211   */\n      mstore\n        /* \"#utility.yul\":8228:8380   */\n      tag_359\n        /* \"#utility.yul\":8375:8379   */\n      dup2\n        /* \"#utility.yul\":8366:8372   */\n      dup5\n        /* \"#utility.yul\":8228:8380   */\n      tag_232\n      jump\t// in\n    tag_359:\n        /* \"#utility.yul\":8220:8380   */\n      swap1\n      pop\n        /* \"#utility.yul\":7926:8387   */\n      swap3\n      swap2\n      pop\n      pop\n      jump\t// out\n        /* \"#utility.yul\":8393:8482   */\n    tag_233:\n        /* \"#utility.yul\":8429:8436   */\n      0x00\n        /* \"#utility.yul\":8469:8475   */\n      0xffff\n        /* \"#utility.yul\":8462:8467   */\n      dup3\n        /* \"#utility.yul\":8458:8476   */\n      and\n        /* \"#utility.yul\":8447:8476   */\n      swap1\n      pop\n        /* \"#utility.yul\":8393:8482   */\n      swap2\n      swap1\n      pop\n      jump\t// out\n        /* \"#utility.yul\":8488:8608   */\n    tag_234:\n        /* \"#utility.yul\":8560:8583   */\n      tag_362\n        /* \"#utility.yul\":8577:8582   */\n      dup2\n        /* \"#utility.yul\":8560:8583   */\n      tag_233\n      jump\t// in\n    tag_362:\n        /* \"#utility.yul\":8553:8558   */\n      dup2\n        /* \"#utility.yul\":8550:8584   */\n      eq\n        /* \"#utility.yul\":8540:8602   */\n      tag_363\n      jumpi\n        /* \"#utility.yul\":8598:8599   */\n      0x00\n        /* \"#utility.yul\":8595:8596   */\n      dup1\n        /* \"#utility.yul\":8588:8600   */\n      revert\n        /* \"#utility.yul\":8540:8602   */\n    tag_363:\n        /* \"#utility.yul\":8488:8608   */\n      pop\n      jump\t// out\n        /* \"#utility.yul\":8614:8751   */\n    tag_235:\n        /* \"#utility.yul\":8659:8664   */\n      0x00\n        /* \"#utility.yul\":8697:8703   */\n      dup2\n        /* \"#utility.yul\":8684:8704   */\n      calldataload\n        /* \"#utility.yul\":8675:8704   */\n      swap1\n      pop\n        /* \"#utility.yul\":8713:8745   */\n      tag_365\n        /* \"#utility.yul\":8739:8744   */\n      dup2\n        /* \"#utility.yul\":8713:8745   */\n      tag_234\n      jump\t// in\n    tag_365:\n        /* \"#utility.yul\":8614:8751   */\n      swap3\n      swap2\n      pop\n      pop\n      jump\t// out\n        /* \"#utility.yul\":8757:9084   */\n    tag_32:\n        /* \"#utility.yul\":8815:8821   */\n      0x00\n        /* \"#utility.yul\":8864:8866   */\n      0x20\n        /* \"#utility.yul\":8852:8861   */\n      dup3\n        /* \"#utility.yul\":8843:8850   */\n      dup5\n        /* \"#utility.yul\":8839:8862   */\n      sub\n        /* \"#utility.yul\":8835:8867   */\n      slt\n        /* \"#utility.yul\":8832:8951   */\n      iszero\n      tag_367\n      jumpi\n        /* \"#utility.yul\":8870:8949   */\n      tag_368\n      tag_206\n      jump\t// in\n    tag_368:\n        /* \"#utility.yul\":8832:8951   */\n    tag_367:\n        /* \"#utility.yul\":8990:8991   */\n      0x00\n        /* \"#utility.yul\":9015:9067   */\n      tag_369\n        /* \"#utility.yul\":9059:9066   */\n      dup5\n        /* \"#utility.yul\":9050:9056   */\n      dup3\n        /* \"#utility.yul\":9039:9048   */\n      dup6\n        /* \"#utility.yul\":9035:9057   */\n      add\n        /* \"#utility.yul\":9015:9067   */\n      tag_235\n      jump\t// in\n    tag_369:\n        /* \"#utility.yul\":9005:9067   */\n      swap2\n      pop\n        /* \"#utility.yul\":8961:9077   */\n      pop\n        /* \"#utility.yul\":8757:9084   */\n      swap3\n      swap2\n      pop\n      pop\n      jump\t// out\n        /* \"#utility.yul\":9090:9205   */\n    tag_236:\n        /* \"#utility.yul\":9175:9198   */\n      tag_371\n        /* \"#utility.yul\":9192:9197   */\n      dup2\n        /* \"#utility.yul\":9175:9198   */\n      tag_233\n      jump\t// in\n    tag_371:\n        /* \"#utility.yul\":9170:9173   */\n      dup3\n        /* \"#utility.yul\":9163:9199   */\n      mstore\n        /* \"#utility.yul\":9090:9205   */\n      pop\n      pop\n      jump\t// out\n        /* \"#utility.yul\":9211:9429   */\n    tag_40:\n        /* \"#utility.yul\":9302:9306   */\n      0x00\n        /* \"#utility.yul\":9340:9342   */\n      0x20\n        /* \"#utility.yul\":9329:9338   */\n      dup3\n        /* \"#utility.yul\":9325:9343   */\n      add\n        /* \"#utility.yul\":9317:9343   */\n      swap1\n      pop\n        /* \"#utility.yul\":9353:9422   */\n      tag_373\n        /* \"#utility.yul\":9419:9420   */\n      0x00\n        /* \"#utility.yul\":9408:9417   */\n      dup4\n        /* \"#utility.yul\":9404:9421   */\n      add\n        /* \"#utility.yul\":9395:9401   */\n      dup5\n        /* \"#utility.yul\":9353:9422   */\n      tag_236\n      jump\t// in\n    tag_373:\n        /* \"#utility.yul\":9211:9429   */\n      swap3\n      swap2\n      pop\n      pop\n      jump\t// out\n        /* \"#utility.yul\":9435:9552   */\n    tag_237:\n        /* \"#utility.yul\":9544:9545   */\n      0x00\n        /* \"#utility.yul\":9541:9542   */\n      dup1\n        /* \"#utility.yul\":9534:9546   */\n      revert\n        /* \"#utility.yul\":9558:9675   */\n    tag_238:\n        /* \"#utility.yul\":9667:9668   */\n      0x00\n        /* \"#utility.yul\":9664:9665   */\n      dup1\n        /* \"#utility.yul\":9657:9669   */\n      revert\n        /* \"#utility.yul\":9681:9861   */\n    tag_239:\n        /* \"#utility.yul\":9729:9806   */\n      0x4e487b7100000000000000000000000000000000000000000000000000000000\n        /* \"#utility.yul\":9726:9727   */\n      0x00\n        /* \"#utility.yul\":9719:9807   */\n      mstore\n        /* \"#utility.yul\":9826:9830   */\n      0x41\n        /* \"#utility.yul\":9823:9824   */\n      0x04\n        /* \"#utility.yul\":9816:9831   */\n      mstore\n        /* \"#utility.yul\":9850:9854   */\n      0x24\n        /* \"#utility.yul\":9847:9848   */\n      0x00\n        /* \"#utility.yul\":9840:9855   */\n      revert\n        /* \"#utility.yul\":9867:10148   */\n    tag_240:\n        /* \"#utility.yul\":9950:9977   */\n      tag_378\n        /* \"#utility.yul\":9972:9976   */\n      dup3\n        /* \"#utility.yul\":9950:9977   */\n      tag_220\n      jump\t// in\n    tag_378:\n        /* \"#utility.yul\":9942:9948   */\n      dup2\n        /* \"#utility.yul\":9938:9978   */\n      add\n        /* \"#utility.yul\":10080:10086   */\n      dup2\n        /* \"#utility.yul\":10068:10078   */\n      dup2\n        /* \"#utility.yul\":10065:10087   */\n      lt\n        /* \"#utility.yul\":10044:10062   */\n      0xffffffffffffffff\n        /* \"#utility.yul\":10032:10042   */\n      dup3\n        /* \"#utility.yul\":10029:10063   */\n      gt\n        /* \"#utility.yul\":10026:10088   */\n      or\n        /* \"#utility.yul\":10023:10111   */\n      iszero\n      tag_379\n      jumpi\n        /* \"#utility.yul\":10091:10109   */\n      tag_380\n      tag_239\n      jump\t// in\n    tag_380:\n        /* \"#utility.yul\":10023:10111   */\n    tag_379:\n        /* \"#utility.yul\":10131:10141   */\n      dup1\n        /* \"#utility.yul\":10127:10129   */\n      0x40\n        /* \"#utility.yul\":10120:10142   */\n      mstore\n        /* \"#utility.yul\":9910:10148   */\n      pop\n        /* \"#utility.yul\":9867:10148   */\n      pop\n      pop\n      jump\t// out\n        /* \"#utility.yul\":10154:10283   */\n    tag_241:\n        /* \"#utility.yul\":10188:10194   */\n      0x00\n        /* \"#utility.yul\":10215:10235   */\n      tag_382\n      tag_205\n      jump\t// in\n    tag_382:\n        /* \"#utility.yul\":10205:10235   */\n      swap1\n      pop\n        /* \"#utility.yul\":10244:10277   */\n      tag_383\n        /* \"#utility.yul\":10272:10276   */\n      dup3\n        /* \"#utility.yul\":10264:10270   */\n      dup3\n        /* \"#utility.yul\":10244:10277   */\n      tag_240\n      jump\t// in\n    tag_383:\n        /* \"#utility.yul\":10154:10283   */\n      swap2\n      swap1\n      pop\n      jump\t// out\n        /* \"#utility.yul\":10289:10597   */\n    tag_242:\n        /* \"#utility.yul\":10351:10355   */\n      0x00\n        /* \"#utility.yul\":10441:10459   */\n      0xffffffffffffffff\n        /* \"#utility.yul\":10433:10439   */\n      dup3\n        /* \"#utility.yul\":10430:10460   */\n      gt\n        /* \"#utility.yul\":10427:10483   */\n      iszero\n      tag_385\n      jumpi\n        /* \"#utility.yul\":10463:10481   */\n      tag_386\n      tag_239\n      jump\t// in\n    tag_386:\n        /* \"#utility.yul\":10427:10483   */\n    tag_385:\n        /* \"#utility.yul\":10501:10530   */\n      tag_387\n        /* \"#utility.yul\":10523:10529   */\n      dup3\n        /* \"#utility.yul\":10501:10530   */\n      tag_220\n      jump\t// in\n    tag_387:\n        /* \"#utility.yul\":10493:10530   */\n      swap1\n      pop\n        /* \"#utility.yul\":10585:10589   */\n      0x20\n        /* \"#utility.yul\":10579:10583   */\n      dup2\n        /* \"#utility.yul\":10575:10590   */\n      add\n        /* \"#utility.yul\":10567:10590   */\n      swap1\n      pop\n        /* \"#utility.yul\":10289:10597   */\n      swap2\n      swap1\n      pop\n      jump\t// out\n        /* \"#utility.yul\":10603:10751   */\n    tag_243:\n        /* \"#utility.yul\":10701:10707   */\n      dup3\n        /* \"#utility.yul\":10696:10699   */\n      dup2\n        /* \"#utility.yul\":10691:10694   */\n      dup4\n        /* \"#utility.yul\":10678:10708   */\n      calldatacopy\n        /* \"#utility.yul\":10742:10743   */\n      0x00\n        /* \"#utility.yul\":10733:10739   */\n      dup4\n        /* \"#utility.yul\":10728:10731   */\n      dup4\n        /* \"#utility.yul\":10724:10740   */\n      add\n        /* \"#utility.yul\":10717:10744   */\n      mstore\n        /* \"#utility.yul\":10603:10751   */\n      pop\n      pop\n      pop\n      jump\t// out\n        /* \"#utility.yul\":10757:11182   */\n    tag_244:\n        /* \"#utility.yul\":10835:10840   */\n      0x00\n        /* \"#utility.yul\":10860:10926   */\n      tag_390\n        /* \"#utility.yul\":10876:10925   */\n      tag_391\n        /* \"#utility.yul\":10918:10924   */\n      dup5\n        /* \"#utility.yul\":10876:10925   */\n      tag_242\n      jump\t// in\n    tag_391:\n        /* \"#utility.yul\":10860:10926   */\n      tag_241\n      jump\t// in\n    tag_390:\n        /* \"#utility.yul\":10851:10926   */\n      swap1\n      pop\n        /* \"#utility.yul\":10949:10955   */\n      dup3\n        /* \"#utility.yul\":10942:10947   */\n      dup2\n        /* \"#utility.yul\":10935:10956   */\n      mstore\n        /* \"#utility.yul\":10987:10991   */\n      0x20\n        /* \"#utility.yul\":10980:10985   */\n      dup2\n        /* \"#utility.yul\":10976:10992   */\n      add\n        /* \"#utility.yul\":11025:11028   */\n      dup5\n        /* \"#utility.yul\":11016:11022   */\n      dup5\n        /* \"#utility.yul\":11011:11014   */\n      dup5\n        /* \"#utility.yul\":11007:11023   */\n      add\n        /* \"#utility.yul\":11004:11029   */\n      gt\n        /* \"#utility.yul\":11001:11113   */\n      iszero\n      tag_392\n      jumpi\n        /* \"#utility.yul\":11032:11111   */\n      tag_393\n      tag_238\n      jump\t// in\n    tag_393:\n        /* \"#utility.yul\":11001:11113   */\n    tag_392:\n        /* \"#utility.yul\":11122:11176   */\n      tag_394\n        /* \"#utility.yul\":11169:11175   */\n      dup5\n        /* \"#utility.yul\":11164:11167   */\n      dup3\n        /* \"#utility.yul\":11159:11162   */\n      dup6\n        /* \"#utility.yul\":11122:11176   */\n      tag_243\n      jump\t// in\n    tag_394:\n        /* \"#utility.yul\":10841:11182   */\n      pop\n        /* \"#utility.yul\":10757:11182   */\n      swap4\n      swap3\n      pop\n      pop\n      pop\n      jump\t// out\n        /* \"#utility.yul\":11202:11542   */\n    tag_245:\n        /* \"#utility.yul\":11258:11263   */\n      0x00\n        /* \"#utility.yul\":11307:11310   */\n      dup3\n        /* \"#utility.yul\":11300:11304   */\n      0x1f\n        /* \"#utility.yul\":11292:11298   */\n      dup4\n        /* \"#utility.yul\":11288:11305   */\n      add\n        /* \"#utility.yul\":11284:11311   */\n      slt\n        /* \"#utility.yul\":11274:11396   */\n      tag_396\n      jumpi\n        /* \"#utility.yul\":11315:11394   */\n      tag_397\n      tag_237\n      jump\t// in\n    tag_397:\n        /* \"#utility.yul\":11274:11396   */\n    tag_396:\n        /* \"#utility.yul\":11432:11438   */\n      dup2\n        /* \"#utility.yul\":11419:11439   */\n      calldataload\n        /* \"#utility.yul\":11457:11536   */\n      tag_398\n        /* \"#utility.yul\":11532:11535   */\n      dup5\n        /* \"#utility.yul\":11524:11530   */\n      dup3\n        /* \"#utility.yul\":11517:11521   */\n      0x20\n        /* \"#utility.yul\":11509:11515   */\n      dup7\n        /* \"#utility.yul\":11505:11522   */\n      add\n        /* \"#utility.yul\":11457:11536   */\n      tag_244\n      jump\t// in\n    tag_398:\n        /* \"#utility.yul\":11448:11536   */\n      swap2\n      pop\n        /* \"#utility.yul\":11264:11542   */\n      pop\n        /* \"#utility.yul\":11202:11542   */\n      swap3\n      swap2\n      pop\n      pop\n      jump\t// out\n        /* \"#utility.yul\":11548:12057   */\n    tag_45:\n        /* \"#utility.yul\":11617:11623   */\n      0x00\n        /* \"#utility.yul\":11666:11668   */\n      0x20\n        /* \"#utility.yul\":11654:11663   */\n      dup3\n        /* \"#utility.yul\":11645:11652   */\n      dup5\n        /* \"#utility.yul\":11641:11664   */\n      sub\n        /* \"#utility.yul\":11637:11669   */\n      slt\n        /* \"#utility.yul\":11634:11753   */\n      iszero\n      tag_400\n      jumpi\n        /* \"#utility.yul\":11672:11751   */\n      tag_401\n      tag_206\n      jump\t// in\n    tag_401:\n        /* \"#utility.yul\":11634:11753   */\n    tag_400:\n        /* \"#utility.yul\":11820:11821   */\n      0x00\n        /* \"#utility.yul\":11809:11818   */\n      dup3\n        /* \"#utility.yul\":11805:11822   */\n      add\n        /* \"#utility.yul\":11792:11823   */\n      calldataload\n        /* \"#utility.yul\":11850:11868   */\n      0xffffffffffffffff\n        /* \"#utility.yul\":11842:11848   */\n      dup2\n        /* \"#utility.yul\":11839:11869   */\n      gt\n        /* \"#utility.yul\":11836:11953   */\n      iszero\n      tag_402\n      jumpi\n        /* \"#utility.yul\":11872:11951   */\n      tag_403\n      tag_207\n      jump\t// in\n    tag_403:\n        /* \"#utility.yul\":11836:11953   */\n    tag_402:\n        /* \"#utility.yul\":11977:12040   */\n      tag_404\n        /* \"#utility.yul\":12032:12039   */\n      dup5\n        /* \"#utility.yul\":12023:12029   */\n      dup3\n        /* \"#utility.yul\":12012:12021   */\n      dup6\n        /* \"#utility.yul\":12008:12030   */\n      add\n        /* \"#utility.yul\":11977:12040   */\n      tag_245\n      jump\t// in\n    tag_404:\n        /* \"#utility.yul\":11967:12040   */\n      swap2\n      pop\n        /* \"#utility.yul\":11763:12050   */\n      pop\n        /* \"#utility.yul\":11548:12057   */\n      swap3\n      swap2\n      pop\n      pop\n      jump\t// out\n        /* \"#utility.yul\":12063:12285   */\n    tag_51:\n        /* \"#utility.yul\":12156:12160   */\n      0x00\n        /* \"#utility.yul\":12194:12196   */\n      0x20\n        /* \"#utility.yul\":12183:12192   */\n      dup3\n        /* \"#utility.yul\":12179:12197   */\n      add\n        /* \"#utility.yul\":12171:12197   */\n      swap1\n      pop\n        /* \"#utility.yul\":12207:12278   */\n      tag_406\n        /* \"#utility.yul\":12275:12276   */\n      0x00\n        /* \"#utility.yul\":12264:12273   */\n      dup4\n        /* \"#utility.yul\":12260:12277   */\n      add\n        /* \"#utility.yul\":12251:12257   */\n      dup5\n        /* \"#utility.yul\":12207:12278   */\n      tag_215\n      jump\t// in\n    tag_406:\n        /* \"#utility.yul\":12063:12285   */\n      swap3\n      swap2\n      pop\n      pop\n      jump\t// out\n        /* \"#utility.yul\":12291:12513   */\n    tag_55:\n        /* \"#utility.yul\":12384:12388   */\n      0x00\n        /* \"#utility.yul\":12422:12424   */\n      0x20\n        /* \"#utility.yul\":12411:12420   */\n      dup3\n        /* \"#utility.yul\":12407:12425   */\n      add\n        /* \"#utility.yul\":12399:12425   */\n      swap1\n      pop\n        /* \"#utility.yul\":12435:12506   */\n      tag_408\n        /* \"#utility.yul\":12503:12504   */\n      0x00\n        /* \"#utility.yul\":12492:12501   */\n      dup4\n        /* \"#utility.yul\":12488:12505   */\n      add\n        /* \"#utility.yul\":12479:12485   */\n      dup5\n        /* \"#utility.yul\":12435:12506   */\n      tag_216\n      jump\t// in\n    tag_408:\n        /* \"#utility.yul\":12291:12513   */\n      swap3\n      swap2\n      pop\n      pop\n      jump\t// out\n        /* \"#utility.yul\":12519:12579   */\n    tag_246:\n        /* \"#utility.yul\":12547:12550   */\n      0x00\n        /* \"#utility.yul\":12568:12573   */\n      dup2\n        /* \"#utility.yul\":12561:12573   */\n      swap1\n      pop\n        /* \"#utility.yul\":12519:12579   */\n      swap2\n      swap1\n      pop\n      jump\t// out\n        /* \"#utility.yul\":12585:12727   */\n    tag_247:\n        /* \"#utility.yul\":12635:12644   */\n      0x00\n        /* \"#utility.yul\":12668:12721   */\n      tag_411\n        /* \"#utility.yul\":12686:12720   */\n      tag_412\n        /* \"#utility.yul\":12695:12719   */\n      tag_413\n        /* \"#utility.yul\":12713:12718   */\n      dup5\n        /* \"#utility.yul\":12695:12719   */\n      tag_208\n      jump\t// in\n    tag_413:\n        /* \"#utility.yul\":12686:12720   */\n      tag_246\n      jump\t// in\n    tag_412:\n        /* \"#utility.yul\":12668:12721   */\n      tag_208\n      jump\t// in\n    tag_411:\n        /* \"#utility.yul\":12655:12721   */\n      swap1\n      pop\n        /* \"#utility.yul\":12585:12727   */\n      swap2\n      swap1\n      pop\n      jump\t// out\n        /* \"#utility.yul\":12733:12859   */\n    tag_248:\n        /* \"#utility.yul\":12783:12792   */\n      0x00\n        /* \"#utility.yul\":12816:12853   */\n      tag_415\n        /* \"#utility.yul\":12847:12852   */\n      dup3\n        /* \"#utility.yul\":12816:12853   */\n      tag_247\n      jump\t// in\n    tag_415:\n        /* \"#utility.yul\":12803:12853   */\n      swap1\n      pop\n        /* \"#utility.yul\":12733:12859   */\n      swap2\n      swap1\n      pop\n      jump\t// out\n        /* \"#utility.yul\":12865:13007   */\n    tag_249:\n        /* \"#utility.yul\":12931:12940   */\n      0x00\n        /* \"#utility.yul\":12964:13001   */\n      tag_417\n        /* \"#utility.yul\":12995:13000   */\n      dup3\n        /* \"#utility.yul\":12964:13001   */\n      tag_248\n      jump\t// in\n    tag_417:\n        /* \"#utility.yul\":12951:13001   */\n      swap1\n      pop\n        /* \"#utility.yul\":12865:13007   */\n      swap2\n      swap1\n      pop\n      jump\t// out\n        /* \"#utility.yul\":13013:13176   */\n    tag_250:\n        /* \"#utility.yul\":13116:13169   */\n      tag_419\n        /* \"#utility.yul\":13163:13168   */\n      dup2\n        /* \"#utility.yul\":13116:13169   */\n      tag_249\n      jump\t// in\n    tag_419:\n        /* \"#utility.yul\":13111:13114   */\n      dup3\n        /* \"#utility.yul\":13104:13170   */\n      mstore\n        /* \"#utility.yul\":13013:13176   */\n      pop\n      pop\n      jump\t// out\n        /* \"#utility.yul\":13182:13436   */\n    tag_62:\n        /* \"#utility.yul\":13291:13295   */\n      0x00\n        /* \"#utility.yul\":13329:13331   */\n      0x20\n        /* \"#utility.yul\":13318:13327   */\n      dup3\n        /* \"#utility.yul\":13314:13332   */\n      add\n        /* \"#utility.yul\":13306:13332   */\n      swap1\n      pop\n        /* \"#utility.yul\":13342:13429   */\n      tag_421\n        /* \"#utility.yul\":13426:13427   */\n      0x00\n        /* \"#utility.yul\":13415:13424   */\n      dup4\n        /* \"#utility.yul\":13411:13428   */\n      add\n        /* \"#utility.yul\":13402:13408   */\n      dup5\n        /* \"#utility.yul\":13342:13429   */\n      tag_250\n      jump\t// in\n    tag_421:\n        /* \"#utility.yul\":13182:13436   */\n      swap3\n      swap2\n      pop\n      pop\n      jump\t// out\n        /* \"#utility.yul\":13442:13771   */\n    tag_65:\n        /* \"#utility.yul\":13501:13507   */\n      0x00\n        /* \"#utility.yul\":13550:13552   */\n      0x20\n        /* \"#utility.yul\":13538:13547   */\n      dup3\n        /* \"#utility.yul\":13529:13536   */\n      dup5\n        /* \"#utility.yul\":13525:13548   */\n      sub\n        /* \"#utility.yul\":13521:13553   */\n      slt\n        /* \"#utility.yul\":13518:13637   */\n      iszero\n      tag_423\n      jumpi\n        /* \"#utility.yul\":13556:13635   */\n      tag_424\n      tag_206\n      jump\t// in\n    tag_424:\n        /* \"#utility.yul\":13518:13637   */\n    tag_423:\n        /* \"#utility.yul\":13676:13677   */\n      0x00\n        /* \"#utility.yul\":13701:13754   */\n      tag_425\n        /* \"#utility.yul\":13746:13753   */\n      dup5\n        /* \"#utility.yul\":13737:13743   */\n      dup3\n        /* \"#utility.yul\":13726:13735   */\n      dup6\n        /* \"#utility.yul\":13722:13744   */\n      add\n        /* \"#utility.yul\":13701:13754   */\n      tag_214\n      jump\t// in\n    tag_425:\n        /* \"#utility.yul\":13691:13754   */\n      swap2\n      pop\n        /* \"#utility.yul\":13647:13764   */\n      pop\n        /* \"#utility.yul\":13442:13771   */\n      swap3\n      swap2\n      pop\n      pop\n      jump\t// out\n        /* \"#utility.yul\":13829:14960   */\n    tag_251:\n        /* \"#utility.yul\":13942:13945   */\n      0x00\n        /* \"#utility.yul\":13978:13982   */\n      0xa0\n        /* \"#utility.yul\":13973:13976   */\n      dup4\n        /* \"#utility.yul\":13969:13983   */\n      add\n        /* \"#utility.yul\":14063:14067   */\n      0x00\n        /* \"#utility.yul\":14056:14061   */\n      dup4\n        /* \"#utility.yul\":14052:14068   */\n      add\n        /* \"#utility.yul\":14046:14069   */\n      mload\n        /* \"#utility.yul\":14082:14145   */\n      tag_427\n        /* \"#utility.yul\":14139:14143   */\n      0x00\n        /* \"#utility.yul\":14134:14137   */\n      dup7\n        /* \"#utility.yul\":14130:14144   */\n      add\n        /* \"#utility.yul\":14116:14128   */\n      dup3\n        /* \"#utility.yul\":14082:14145   */\n      tag_225\n      jump\t// in\n    tag_427:\n        /* \"#utility.yul\":13993:14155   */\n      pop\n        /* \"#utility.yul\":14239:14243   */\n      0x20\n        /* \"#utility.yul\":14232:14237   */\n      dup4\n        /* \"#utility.yul\":14228:14244   */\n      add\n        /* \"#utility.yul\":14222:14245   */\n      mload\n        /* \"#utility.yul\":14258:14321   */\n      tag_428\n        /* \"#utility.yul\":14315:14319   */\n      0x20\n        /* \"#utility.yul\":14310:14313   */\n      dup7\n        /* \"#utility.yul\":14306:14320   */\n      add\n        /* \"#utility.yul\":14292:14304   */\n      dup3\n        /* \"#utility.yul\":14258:14321   */\n      tag_226\n      jump\t// in\n    tag_428:\n        /* \"#utility.yul\":14165:14331   */\n      pop\n        /* \"#utility.yul\":14416:14420   */\n      0x40\n        /* \"#utility.yul\":14409:14414   */\n      dup4\n        /* \"#utility.yul\":14405:14421   */\n      add\n        /* \"#utility.yul\":14399:14422   */\n      mload\n        /* \"#utility.yul\":14469:14472   */\n      dup5\n        /* \"#utility.yul\":14463:14467   */\n      dup3\n        /* \"#utility.yul\":14459:14473   */\n      sub\n        /* \"#utility.yul\":14452:14456   */\n      0x40\n        /* \"#utility.yul\":14447:14450   */\n      dup7\n        /* \"#utility.yul\":14443:14457   */\n      add\n        /* \"#utility.yul\":14436:14474   */\n      mstore\n        /* \"#utility.yul\":14495:14568   */\n      tag_429\n        /* \"#utility.yul\":14563:14567   */\n      dup3\n        /* \"#utility.yul\":14549:14561   */\n      dup3\n        /* \"#utility.yul\":14495:14568   */\n      tag_228\n      jump\t// in\n    tag_429:\n        /* \"#utility.yul\":14487:14568   */\n      swap2\n      pop\n        /* \"#utility.yul\":14341:14579   */\n      pop\n        /* \"#utility.yul\":14666:14670   */\n      0x60\n        /* \"#utility.yul\":14659:14664   */\n      dup4\n        /* \"#utility.yul\":14655:14671   */\n      add\n        /* \"#utility.yul\":14649:14672   */\n      mload\n        /* \"#utility.yul\":14685:14748   */\n      tag_430\n        /* \"#utility.yul\":14742:14746   */\n      0x60\n        /* \"#utility.yul\":14737:14740   */\n      dup7\n        /* \"#utility.yul\":14733:14747   */\n      add\n        /* \"#utility.yul\":14719:14731   */\n      dup3\n        /* \"#utility.yul\":14685:14748   */\n      tag_225\n      jump\t// in\n    tag_430:\n        /* \"#utility.yul\":14589:14758   */\n      pop\n        /* \"#utility.yul\":14841:14845   */\n      0x80\n        /* \"#utility.yul\":14834:14839   */\n      dup4\n        /* \"#utility.yul\":14830:14846   */\n      add\n        /* \"#utility.yul\":14824:14847   */\n      mload\n        /* \"#utility.yul\":14860:14923   */\n      tag_431\n        /* \"#utility.yul\":14917:14921   */\n      0x80\n        /* \"#utility.yul\":14912:14915   */\n      dup7\n        /* \"#utility.yul\":14908:14922   */\n      add\n        /* \"#utility.yul\":14894:14906   */\n      dup3\n        /* \"#utility.yul\":14860:14923   */\n      tag_225\n      jump\t// in\n    tag_431:\n        /* \"#utility.yul\":14768:14933   */\n      pop\n        /* \"#utility.yul\":14950:14954   */\n      dup1\n        /* \"#utility.yul\":14943:14954   */\n      swap2\n      pop\n        /* \"#utility.yul\":13947:14960   */\n      pop\n        /* \"#utility.yul\":13829:14960   */\n      swap3\n      swap2\n      pop\n      pop\n      jump\t// out\n        /* \"#utility.yul\":14966:15327   */\n    tag_68:\n        /* \"#utility.yul\":15103:15107   */\n      0x00\n        /* \"#utility.yul\":15141:15143   */\n      0x20\n        /* \"#utility.yul\":15130:15139   */\n      dup3\n        /* \"#utility.yul\":15126:15144   */\n      add\n        /* \"#utility.yul\":15118:15144   */\n      swap1\n      pop\n        /* \"#utility.yul\":15190:15199   */\n      dup2\n        /* \"#utility.yul\":15184:15188   */\n      dup2\n        /* \"#utility.yul\":15180:15200   */\n      sub\n        /* \"#utility.yul\":15176:15177   */\n      0x00\n        /* \"#utility.yul\":15165:15174   */\n      dup4\n        /* \"#utility.yul\":15161:15178   */\n      add\n        /* \"#utility.yul\":15154:15201   */\n      mstore\n        /* \"#utility.yul\":15218:15320   */\n      tag_433\n        /* \"#utility.yul\":15315:15319   */\n      dup2\n        /* \"#utility.yul\":15306:15312   */\n      dup5\n        /* \"#utility.yul\":15218:15320   */\n      tag_251\n      jump\t// in\n    tag_433:\n        /* \"#utility.yul\":15210:15320   */\n      swap1\n      pop\n        /* \"#utility.yul\":14966:15327   */\n      swap3\n      swap2\n      pop\n      pop\n      jump\t// out\n        /* \"#utility.yul\":15333:15513   */\n    tag_252:\n        /* \"#utility.yul\":15381:15458   */\n      0x4e487b7100000000000000000000000000000000000000000000000000000000\n        /* \"#utility.yul\":15378:15379   */\n      0x00\n        /* \"#utility.yul\":15371:15459   */\n      mstore\n        /* \"#utility.yul\":15478:15482   */\n      0x22\n        /* \"#utility.yul\":15475:15476   */\n      0x04\n        /* \"#utility.yul\":15468:15483   */\n      mstore\n        /* \"#utility.yul\":15502:15506   */\n      0x24\n        /* \"#utility.yul\":15499:15500   */\n      0x00\n        /* \"#utility.yul\":15492:15507   */\n      revert\n        /* \"#utility.yul\":15519:15839   */\n    tag_75:\n        /* \"#utility.yul\":15563:15569   */\n      0x00\n        /* \"#utility.yul\":15600:15601   */\n      0x02\n        /* \"#utility.yul\":15594:15598   */\n      dup3\n        /* \"#utility.yul\":15590:15602   */\n      div\n        /* \"#utility.yul\":15580:15602   */\n      swap1\n      pop\n        /* \"#utility.yul\":15647:15648   */\n      0x01\n        /* \"#utility.yul\":15641:15645   */\n      dup3\n        /* \"#utility.yul\":15637:15649   */\n      and\n        /* \"#utility.yul\":15668:15686   */\n      dup1\n        /* \"#utility.yul\":15658:15739   */\n      tag_436\n      jumpi\n        /* \"#utility.yul\":15724:15728   */\n      0x7f\n        /* \"#utility.yul\":15716:15722   */\n      dup3\n        /* \"#utility.yul\":15712:15729   */\n      and\n        /* \"#utility.yul\":15702:15729   */\n      swap2\n      pop\n        /* \"#utility.yul\":15658:15739   */\n    tag_436:\n        /* \"#utility.yul\":15786:15788   */\n      0x20\n        /* \"#utility.yul\":15778:15784   */\n      dup3\n        /* \"#utility.yul\":15775:15789   */\n      lt\n        /* \"#utility.yul\":15755:15773   */\n      dup2\n        /* \"#utility.yul\":15752:15790   */\n      sub\n        /* \"#utility.yul\":15749:15833   */\n      tag_437\n      jumpi\n        /* \"#utility.yul\":15805:15823   */\n      tag_438\n      tag_252\n      jump\t// in\n    tag_438:\n        /* \"#utility.yul\":15749:15833   */\n    tag_437:\n        /* \"#utility.yul\":15570:15839   */\n      pop\n        /* \"#utility.yul\":15519:15839   */\n      swap2\n      swap1\n      pop\n      jump\t// out\n        /* \"#utility.yul\":15845:15962   */\n    tag_253:\n        /* \"#utility.yul\":15954:15955   */\n      0x00\n        /* \"#utility.yul\":15951:15952   */\n      dup1\n        /* \"#utility.yul\":15944:15956   */\n      revert\n        /* \"#utility.yul\":15968:16085   */\n    tag_254:\n        /* \"#utility.yul\":16077:16078   */\n      0x00\n        /* \"#utility.yul\":16074:16075   */\n      dup1\n        /* \"#utility.yul\":16067:16079   */\n      revert\n        /* \"#utility.yul\":16091:16525   */\n    tag_255:\n        /* \"#utility.yul\":16180:16185   */\n      0x00\n        /* \"#utility.yul\":16205:16271   */\n      tag_442\n        /* \"#utility.yul\":16221:16270   */\n      tag_443\n        /* \"#utility.yul\":16263:16269   */\n      dup5\n        /* \"#utility.yul\":16221:16270   */\n      tag_242\n      jump\t// in\n    tag_443:\n        /* \"#utility.yul\":16205:16271   */\n      tag_241\n      jump\t// in\n    tag_442:\n        /* \"#utility.yul\":16196:16271   */\n      swap1\n      pop\n        /* \"#utility.yul\":16294:16300   */\n      dup3\n        /* \"#utility.yul\":16287:16292   */\n      dup2\n        /* \"#utility.yul\":16280:16301   */\n      mstore\n        /* \"#utility.yul\":16332:16336   */\n      0x20\n        /* \"#utility.yul\":16325:16330   */\n      dup2\n        /* \"#utility.yul\":16321:16337   */\n      add\n        /* \"#utility.yul\":16370:16373   */\n      dup5\n        /* \"#utility.yul\":16361:16367   */\n      dup5\n        /* \"#utility.yul\":16356:16359   */\n      dup5\n        /* \"#utility.yul\":16352:16368   */\n      add\n        /* \"#utility.yul\":16349:16374   */\n      gt\n        /* \"#utility.yul\":16346:16458   */\n      iszero\n      tag_444\n      jumpi\n        /* \"#utility.yul\":16377:16456   */\n      tag_445\n      tag_238\n      jump\t// in\n    tag_445:\n        /* \"#utility.yul\":16346:16458   */\n    tag_444:\n        /* \"#utility.yul\":16467:16519   */\n      tag_446\n        /* \"#utility.yul\":16512:16518   */\n      dup5\n        /* \"#utility.yul\":16507:16510   */\n      dup3\n        /* \"#utility.yul\":16502:16505   */\n      dup6\n        /* \"#utility.yul\":16467:16519   */\n      tag_219\n      jump\t// in\n    tag_446:\n        /* \"#utility.yul\":16186:16525   */\n      pop\n        /* \"#utility.yul\":16091:16525   */\n      swap4\n      swap3\n      pop\n      pop\n      pop\n      jump\t// out\n        /* \"#utility.yul\":16545:16900   */\n    tag_256:\n        /* \"#utility.yul\":16612:16617   */\n      0x00\n        /* \"#utility.yul\":16661:16664   */\n      dup3\n        /* \"#utility.yul\":16654:16658   */\n      0x1f\n        /* \"#utility.yul\":16646:16652   */\n      dup4\n        /* \"#utility.yul\":16642:16659   */\n      add\n        /* \"#utility.yul\":16638:16665   */\n      slt\n        /* \"#utility.yul\":16628:16750   */\n      tag_448\n      jumpi\n        /* \"#utility.yul\":16669:16748   */\n      tag_449\n      tag_237\n      jump\t// in\n    tag_449:\n        /* \"#utility.yul\":16628:16750   */\n    tag_448:\n        /* \"#utility.yul\":16779:16785   */\n      dup2\n        /* \"#utility.yul\":16773:16786   */\n      mload\n        /* \"#utility.yul\":16804:16894   */\n      tag_450\n        /* \"#utility.yul\":16890:16893   */\n      dup5\n        /* \"#utility.yul\":16882:16888   */\n      dup3\n        /* \"#utility.yul\":16875:16879   */\n      0x20\n        /* \"#utility.yul\":16867:16873   */\n      dup7\n        /* \"#utility.yul\":16863:16880   */\n      add\n        /* \"#utility.yul\":16804:16894   */\n      tag_255\n      jump\t// in\n    tag_450:\n        /* \"#utility.yul\":16795:16894   */\n      swap2\n      pop\n        /* \"#utility.yul\":16618:16900   */\n      pop\n        /* \"#utility.yul\":16545:16900   */\n      swap3\n      swap2\n      pop\n      pop\n      jump\t// out\n        /* \"#utility.yul\":16941:17883   */\n    tag_257:\n        /* \"#utility.yul\":17029:17034   */\n      0x00\n        /* \"#utility.yul\":17073:17077   */\n      0x40\n        /* \"#utility.yul\":17061:17070   */\n      dup3\n        /* \"#utility.yul\":17056:17059   */\n      dup5\n        /* \"#utility.yul\":17052:17071   */\n      sub\n        /* \"#utility.yul\":17048:17078   */\n      slt\n        /* \"#utility.yul\":17045:17162   */\n      iszero\n      tag_452\n      jumpi\n        /* \"#utility.yul\":17081:17160   */\n      tag_453\n      tag_253\n      jump\t// in\n    tag_453:\n        /* \"#utility.yul\":17045:17162   */\n    tag_452:\n        /* \"#utility.yul\":17180:17201   */\n      tag_454\n        /* \"#utility.yul\":17196:17200   */\n      0x40\n        /* \"#utility.yul\":17180:17201   */\n      tag_241\n      jump\t// in\n    tag_454:\n        /* \"#utility.yul\":17171:17201   */\n      swap1\n      pop\n        /* \"#utility.yul\":17288:17289   */\n      0x00\n        /* \"#utility.yul\":17277:17286   */\n      dup3\n        /* \"#utility.yul\":17273:17290   */\n      add\n        /* \"#utility.yul\":17267:17291   */\n      mload\n        /* \"#utility.yul\":17318:17336   */\n      0xffffffffffffffff\n        /* \"#utility.yul\":17310:17316   */\n      dup2\n        /* \"#utility.yul\":17307:17337   */\n      gt\n        /* \"#utility.yul\":17304:17421   */\n      iszero\n      tag_455\n      jumpi\n        /* \"#utility.yul\":17340:17419   */\n      tag_456\n      tag_254\n      jump\t// in\n    tag_456:\n        /* \"#utility.yul\":17304:17421   */\n    tag_455:\n        /* \"#utility.yul\":17460:17530   */\n      tag_457\n        /* \"#utility.yul\":17526:17529   */\n      dup5\n        /* \"#utility.yul\":17517:17523   */\n      dup3\n        /* \"#utility.yul\":17506:17515   */\n      dup6\n        /* \"#utility.yul\":17502:17524   */\n      add\n        /* \"#utility.yul\":17460:17530   */\n      tag_256\n      jump\t// in\n    tag_457:\n        /* \"#utility.yul\":17453:17457   */\n      0x00\n        /* \"#utility.yul\":17446:17451   */\n      dup4\n        /* \"#utility.yul\":17442:17458   */\n      add\n        /* \"#utility.yul\":17435:17531   */\n      mstore\n        /* \"#utility.yul\":17211:17542   */\n      pop\n        /* \"#utility.yul\":17621:17623   */\n      0x20\n        /* \"#utility.yul\":17610:17619   */\n      dup3\n        /* \"#utility.yul\":17606:17624   */\n      add\n        /* \"#utility.yul\":17600:17625   */\n      mload\n        /* \"#utility.yul\":17652:17670   */\n      0xffffffffffffffff\n        /* \"#utility.yul\":17644:17650   */\n      dup2\n        /* \"#utility.yul\":17641:17671   */\n      gt\n        /* \"#utility.yul\":17638:17755   */\n      iszero\n      tag_458\n      jumpi\n        /* \"#utility.yul\":17674:17753   */\n      tag_459\n      tag_254\n      jump\t// in\n    tag_459:\n        /* \"#utility.yul\":17638:17755   */\n    tag_458:\n        /* \"#utility.yul\":17794:17864   */\n      tag_460\n        /* \"#utility.yul\":17860:17863   */\n      dup5\n        /* \"#utility.yul\":17851:17857   */\n      dup3\n        /* \"#utility.yul\":17840:17849   */\n      dup6\n        /* \"#utility.yul\":17836:17858   */\n      add\n        /* \"#utility.yul\":17794:17864   */\n      tag_256\n      jump\t// in\n    tag_460:\n        /* \"#utility.yul\":17787:17791   */\n      0x20\n        /* \"#utility.yul\":17780:17785   */\n      dup4\n        /* \"#utility.yul\":17776:17792   */\n      add\n        /* \"#utility.yul\":17769:17865   */\n      mstore\n        /* \"#utility.yul\":17552:17876   */\n      pop\n        /* \"#utility.yul\":16941:17883   */\n      swap3\n      swap2\n      pop\n      pop\n      jump\t// out\n        /* \"#utility.yul\":17889:18449   */\n    tag_98:\n        /* \"#utility.yul\":17987:17993   */\n      0x00\n        /* \"#utility.yul\":18036:18038   */\n      0x20\n        /* \"#utility.yul\":18024:18033   */\n      dup3\n        /* \"#utility.yul\":18015:18022   */\n      dup5\n        /* \"#utility.yul\":18011:18034   */\n      sub\n        /* \"#utility.yul\":18007:18039   */\n      slt\n        /* \"#utility.yul\":18004:18123   */\n      iszero\n      tag_462\n      jumpi\n        /* \"#utility.yul\":18042:18121   */\n      tag_463\n      tag_206\n      jump\t// in\n    tag_463:\n        /* \"#utility.yul\":18004:18123   */\n    tag_462:\n        /* \"#utility.yul\":18183:18184   */\n      0x00\n        /* \"#utility.yul\":18172:18181   */\n      dup3\n        /* \"#utility.yul\":18168:18185   */\n      add\n        /* \"#utility.yul\":18162:18186   */\n      mload\n        /* \"#utility.yul\":18213:18231   */\n      0xffffffffffffffff\n        /* \"#utility.yul\":18205:18211   */\n      dup2\n        /* \"#utility.yul\":18202:18232   */\n      gt\n        /* \"#utility.yul\":18199:18316   */\n      iszero\n      tag_464\n      jumpi\n        /* \"#utility.yul\":18235:18314   */\n      tag_465\n      tag_207\n      jump\t// in\n    tag_465:\n        /* \"#utility.yul\":18199:18316   */\n    tag_464:\n        /* \"#utility.yul\":18340:18432   */\n      tag_466\n        /* \"#utility.yul\":18424:18431   */\n      dup5\n        /* \"#utility.yul\":18415:18421   */\n      dup3\n        /* \"#utility.yul\":18404:18413   */\n      dup6\n        /* \"#utility.yul\":18400:18422   */\n      add\n        /* \"#utility.yul\":18340:18432   */\n      tag_257\n      jump\t// in\n    tag_466:\n        /* \"#utility.yul\":18330:18432   */\n      swap2\n      pop\n        /* \"#utility.yul\":18133:18442   */\n      pop\n        /* \"#utility.yul\":17889:18449   */\n      swap3\n      swap2\n      pop\n      pop\n      jump\t// out\n        /* \"#utility.yul\":18455:18625   */\n    tag_258:\n        /* \"#utility.yul\":18595:18617   */\n      0x75736572206e6f74207265676973746572656420000000000000000000000000\n        /* \"#utility.yul\":18591:18592   */\n      0x00\n        /* \"#utility.yul\":18583:18589   */\n      dup3\n        /* \"#utility.yul\":18579:18593   */\n      add\n        /* \"#utility.yul\":18572:18618   */\n      mstore\n        /* \"#utility.yul\":18455:18625   */\n      pop\n      jump\t// out\n        /* \"#utility.yul\":18631:18997   */\n    tag_259:\n        /* \"#utility.yul\":18773:18776   */\n      0x00\n        /* \"#utility.yul\":18794:18861   */\n      tag_469\n        /* \"#utility.yul\":18858:18860   */\n      0x14\n        /* \"#utility.yul\":18853:18856   */\n      dup4\n        /* \"#utility.yul\":18794:18861   */\n      tag_218\n      jump\t// in\n    tag_469:\n        /* \"#utility.yul\":18787:18861   */\n      swap2\n      pop\n        /* \"#utility.yul\":18870:18963   */\n      tag_470\n        /* \"#utility.yul\":18959:18962   */\n      dup3\n        /* \"#utility.yul\":18870:18963   */\n      tag_258\n      jump\t// in\n    tag_470:\n        /* \"#utility.yul\":18988:18990   */\n      0x20\n        /* \"#utility.yul\":18983:18986   */\n      dup3\n        /* \"#utility.yul\":18979:18991   */\n      add\n        /* \"#utility.yul\":18972:18991   */\n      swap1\n      pop\n        /* \"#utility.yul\":18631:18997   */\n      swap2\n      swap1\n      pop\n      jump\t// out\n        /* \"#utility.yul\":19003:19422   */\n    tag_101:\n        /* \"#utility.yul\":19169:19173   */\n      0x00\n        /* \"#utility.yul\":19207:19209   */\n      0x20\n        /* \"#utility.yul\":19196:19205   */\n      dup3\n        /* \"#utility.yul\":19192:19210   */\n      add\n        /* \"#utility.yul\":19184:19210   */\n      swap1\n      pop\n        /* \"#utility.yul\":19256:19265   */\n      dup2\n        /* \"#utility.yul\":19250:19254   */\n      dup2\n        /* \"#utility.yul\":19246:19266   */\n      sub\n        /* \"#utility.yul\":19242:19243   */\n      0x00\n        /* \"#utility.yul\":19231:19240   */\n      dup4\n        /* \"#utility.yul\":19227:19244   */\n      add\n        /* \"#utility.yul\":19220:19267   */\n      mstore\n        /* \"#utility.yul\":19284:19415   */\n      tag_472\n        /* \"#utility.yul\":19410:19414   */\n      dup2\n        /* \"#utility.yul\":19284:19415   */\n      tag_259\n      jump\t// in\n    tag_472:\n        /* \"#utility.yul\":19276:19415   */\n      swap1\n      pop\n        /* \"#utility.yul\":19003:19422   */\n      swap2\n      swap1\n      pop\n      jump\t// out\n        /* \"#utility.yul\":19428:19608   */\n    tag_105:\n        /* \"#utility.yul\":19476:19553   */\n      0x4e487b7100000000000000000000000000000000000000000000000000000000\n        /* \"#utility.yul\":19473:19474   */\n      0x00\n        /* \"#utility.yul\":19466:19554   */\n      mstore\n        /* \"#utility.yul\":19573:19577   */\n      0x32\n        /* \"#utility.yul\":19570:19571   */\n      0x04\n        /* \"#utility.yul\":19563:19578   */\n      mstore\n        /* \"#utility.yul\":19597:19601   */\n      0x24\n        /* \"#utility.yul\":19594:19595   */\n      0x00\n        /* \"#utility.yul\":19587:19602   */\n      revert\n        /* \"#utility.yul\":19614:19784   */\n    tag_260:\n        /* \"#utility.yul\":19754:19776   */\n      0x547765657420646f6573206e6f74206578697374000000000000000000000000\n        /* \"#utility.yul\":19750:19751   */\n      0x00\n        /* \"#utility.yul\":19742:19748   */\n      dup3\n        /* \"#utility.yul\":19738:19752   */\n      add\n        /* \"#utility.yul\":19731:19777   */\n      mstore\n        /* \"#utility.yul\":19614:19784   */\n      pop\n      jump\t// out\n        /* \"#utility.yul\":19790:20156   */\n    tag_261:\n        /* \"#utility.yul\":19932:19935   */\n      0x00\n        /* \"#utility.yul\":19953:20020   */\n      tag_476\n        /* \"#utility.yul\":20017:20019   */\n      0x14\n        /* \"#utility.yul\":20012:20015   */\n      dup4\n        /* \"#utility.yul\":19953:20020   */\n      tag_218\n      jump\t// in\n    tag_476:\n        /* \"#utility.yul\":19946:20020   */\n      swap2\n      pop\n        /* \"#utility.yul\":20029:20122   */\n      tag_477\n        /* \"#utility.yul\":20118:20121   */\n      dup3\n        /* \"#utility.yul\":20029:20122   */\n      tag_260\n      jump\t// in\n    tag_477:\n        /* \"#utility.yul\":20147:20149   */\n      0x20\n        /* \"#utility.yul\":20142:20145   */\n      dup3\n        /* \"#utility.yul\":20138:20150   */\n      add\n        /* \"#utility.yul\":20131:20150   */\n      swap1\n      pop\n        /* \"#utility.yul\":19790:20156   */\n      swap2\n      swap1\n      pop\n      jump\t// out\n        /* \"#utility.yul\":20162:20581   */\n    tag_109:\n        /* \"#utility.yul\":20328:20332   */\n      0x00\n        /* \"#utility.yul\":20366:20368   */\n      0x20\n        /* \"#utility.yul\":20355:20364   */\n      dup3\n        /* \"#utility.yul\":20351:20369   */\n      add\n        /* \"#utility.yul\":20343:20369   */\n      swap1\n      pop\n        /* \"#utility.yul\":20415:20424   */\n      dup2\n        /* \"#utility.yul\":20409:20413   */\n      dup2\n        /* \"#utility.yul\":20405:20425   */\n      sub\n        /* \"#utility.yul\":20401:20402   */\n      0x00\n        /* \"#utility.yul\":20390:20399   */\n      dup4\n        /* \"#utility.yul\":20386:20403   */\n      add\n        /* \"#utility.yul\":20379:20426   */\n      mstore\n        /* \"#utility.yul\":20443:20574   */\n      tag_479\n        /* \"#utility.yul\":20569:20573   */\n      dup2\n        /* \"#utility.yul\":20443:20574   */\n      tag_261\n      jump\t// in\n    tag_479:\n        /* \"#utility.yul\":20435:20574   */\n      swap1\n      pop\n        /* \"#utility.yul\":20162:20581   */\n      swap2\n      swap1\n      pop\n      jump\t// out\n        /* \"#utility.yul\":20587:20767   */\n    tag_262:\n        /* \"#utility.yul\":20635:20712   */\n      0x4e487b7100000000000000000000000000000000000000000000000000000000\n        /* \"#utility.yul\":20632:20633   */\n      0x00\n        /* \"#utility.yul\":20625:20713   */\n      mstore\n        /* \"#utility.yul\":20732:20736   */\n      0x11\n        /* \"#utility.yul\":20729:20730   */\n      0x04\n        /* \"#utility.yul\":20722:20737   */\n      mstore\n        /* \"#utility.yul\":20756:20760   */\n      0x24\n        /* \"#utility.yul\":20753:20754   */\n      0x00\n        /* \"#utility.yul\":20746:20761   */\n      revert\n        /* \"#utility.yul\":20773:21006   */\n    tag_114:\n        /* \"#utility.yul\":20812:20815   */\n      0x00\n        /* \"#utility.yul\":20835:20859   */\n      tag_482\n        /* \"#utility.yul\":20853:20858   */\n      dup3\n        /* \"#utility.yul\":20835:20859   */\n      tag_212\n      jump\t// in\n    tag_482:\n        /* \"#utility.yul\":20826:20859   */\n      swap2\n      pop\n        /* \"#utility.yul\":20881:20947   */\n      0xffffffffffffffffffffffffffffffffffffffffffffffffffffffffffffffff\n        /* \"#utility.yul\":20874:20879   */\n      dup3\n        /* \"#utility.yul\":20871:20948   */\n      sub\n        /* \"#utility.yul\":20868:20971   */\n      tag_483\n      jumpi\n        /* \"#utility.yul\":20951:20969   */\n      tag_484\n      tag_262\n      jump\t// in\n    tag_484:\n        /* \"#utility.yul\":20868:20971   */\n    tag_483:\n        /* \"#utility.yul\":20998:20999   */\n      0x01\n        /* \"#utility.yul\":20991:20996   */\n      dup3\n        /* \"#utility.yul\":20987:21000   */\n      add\n        /* \"#utility.yul\":20980:21000   */\n      swap1\n      pop\n        /* \"#utility.yul\":20773:21006   */\n      swap2\n      swap1\n      pop\n      jump\t// out\n        /* \"#utility.yul\":21012:21565   */\n    tag_119:\n        /* \"#utility.yul\":21189:21193   */\n      0x00\n        /* \"#utility.yul\":21227:21230   */\n      0x80\n        /* \"#utility.yul\":21216:21225   */\n      dup3\n        /* \"#utility.yul\":21212:21231   */\n      add\n        /* \"#utility.yul\":21204:21231   */\n      swap1\n      pop\n        /* \"#utility.yul\":21241:21312   */\n      tag_486\n        /* \"#utility.yul\":21309:21310   */\n      0x00\n        /* \"#utility.yul\":21298:21307   */\n      dup4\n        /* \"#utility.yul\":21294:21311   */\n      add\n        /* \"#utility.yul\":21285:21291   */\n      dup8\n        /* \"#utility.yul\":21241:21312   */\n      tag_216\n      jump\t// in\n    tag_486:\n        /* \"#utility.yul\":21322:21394   */\n      tag_487\n        /* \"#utility.yul\":21390:21392   */\n      0x20\n        /* \"#utility.yul\":21379:21388   */\n      dup4\n        /* \"#utility.yul\":21375:21393   */\n      add\n        /* \"#utility.yul\":21366:21372   */\n      dup7\n        /* \"#utility.yul\":21322:21394   */\n      tag_216\n      jump\t// in\n    tag_487:\n        /* \"#utility.yul\":21404:21476   */\n      tag_488\n        /* \"#utility.yul\":21472:21474   */\n      0x40\n        /* \"#utility.yul\":21461:21470   */\n      dup4\n        /* \"#utility.yul\":21457:21475   */\n      add\n        /* \"#utility.yul\":21448:21454   */\n      dup6\n        /* \"#utility.yul\":21404:21476   */\n      tag_215\n      jump\t// in\n    tag_488:\n        /* \"#utility.yul\":21486:21558   */\n      tag_489\n        /* \"#utility.yul\":21554:21556   */\n      0x60\n        /* \"#utility.yul\":21543:21552   */\n      dup4\n        /* \"#utility.yul\":21539:21557   */\n      add\n        /* \"#utility.yul\":21530:21536   */\n      dup5\n        /* \"#utility.yul\":21486:21558   */\n      tag_215\n      jump\t// in\n    tag_489:\n        /* \"#utility.yul\":21012:21565   */\n      swap6\n      swap5\n      pop\n      pop\n      pop\n      pop\n      pop\n      jump\t// out\n        /* \"#utility.yul\":21571:21749   */\n    tag_263:\n        /* \"#utility.yul\":21711:21741   */\n      0x547765657420697320746f6f206c6f6e672062726f212063616c6d6100000000\n        /* \"#utility.yul\":21707:21708   */\n      0x00\n        /* \"#utility.yul\":21699:21705   */\n      dup3\n        /* \"#utility.yul\":21695:21709   */\n      add\n        /* \"#utility.yul\":21688:21742   */\n      mstore\n        /* \"#utility.yul\":21571:21749   */\n      pop\n      jump\t// out\n        /* \"#utility.yul\":21755:22121   */\n    tag_264:\n        /* \"#utility.yul\":21897:21900   */\n      0x00\n        /* \"#utility.yul\":21918:21985   */\n      tag_492\n        /* \"#utility.yul\":21982:21984   */\n      0x1c\n        /* \"#utility.yul\":21977:21980   */\n      dup4\n        /* \"#utility.yul\":21918:21985   */\n      tag_218\n      jump\t// in\n    tag_492:\n        /* \"#utility.yul\":21911:21985   */\n      swap2\n      pop\n        /* \"#utility.yul\":21994:22087   */\n      tag_493\n        /* \"#utility.yul\":22083:22086   */\n      dup3\n        /* \"#utility.yul\":21994:22087   */\n      tag_263\n      jump\t// in\n    tag_493:\n        /* \"#utility.yul\":22112:22114   */\n      0x20\n        /* \"#utility.yul\":22107:22110   */\n      dup3\n        /* \"#utility.yul\":22103:22115   */\n      add\n        /* \"#utility.yul\":22096:22115   */\n      swap1\n      pop\n        /* \"#utility.yul\":21755:22121   */\n      swap2\n      swap1\n      pop\n      jump\t// out\n        /* \"#utility.yul\":22127:22546   */\n    tag_135:\n        /* \"#utility.yul\":22293:22297   */\n      0x00\n        /* \"#utility.yul\":22331:22333   */\n      0x20\n        /* \"#utility.yul\":22320:22329   */\n      dup3\n        /* \"#utility.yul\":22316:22334   */\n      add\n        /* \"#utility.yul\":22308:22334   */\n      swap1\n      pop\n        /* \"#utility.yul\":22380:22389   */\n      dup2\n        /* \"#utility.yul\":22374:22378   */\n      dup2\n        /* \"#utility.yul\":22370:22390   */\n      sub\n        /* \"#utility.yul\":22366:22367   */\n      0x00\n        /* \"#utility.yul\":22355:22364   */\n      dup4\n        /* \"#utility.yul\":22351:22368   */\n      add\n        /* \"#utility.yul\":22344:22391   */\n      mstore\n        /* \"#utility.yul\":22408:22539   */\n      tag_495\n        /* \"#utility.yul\":22534:22538   */\n      dup2\n        /* \"#utility.yul\":22408:22539   */\n      tag_264\n      jump\t// in\n    tag_495:\n        /* \"#utility.yul\":22400:22539   */\n      swap1\n      pop\n        /* \"#utility.yul\":22127:22546   */\n      swap2\n      swap1\n      pop\n      jump\t// out\n        /* \"#utility.yul\":22552:22693   */\n    tag_265:\n        /* \"#utility.yul\":22601:22605   */\n      0x00\n        /* \"#utility.yul\":22624:22627   */\n      dup2\n        /* \"#utility.yul\":22616:22627   */\n      swap1\n      pop\n        /* \"#utility.yul\":22647:22650   */\n      dup2\n        /* \"#utility.yul\":22644:22645   */\n      0x00\n        /* \"#utility.yul\":22637:22651   */\n      mstore\n        /* \"#utility.yul\":22681:22685   */\n      0x20\n        /* \"#utility.yul\":22678:22679   */\n      0x00\n        /* \"#utility.yul\":22668:22686   */\n      keccak256\n        /* \"#utility.yul\":22660:22686   */\n      swap1\n      pop\n        /* \"#utility.yul\":22552:22693   */\n      swap2\n      swap1\n      pop\n      jump\t// out\n        /* \"#utility.yul\":22699:22792   */\n    tag_266:\n        /* \"#utility.yul\":22736:22742   */\n      0x00\n        /* \"#utility.yul\":22783:22785   */\n      0x20\n        /* \"#utility.yul\":22778:22780   */\n      0x1f\n        /* \"#utility.yul\":22771:22776   */\n      dup4\n        /* \"#utility.yul\":22767:22781   */\n      add\n        /* \"#utility.yul\":22763:22786   */\n      div\n        /* \"#utility.yul\":22753:22786   */\n      swap1\n      pop\n        /* \"#utility.yul\":22699:22792   */\n      swap2\n      swap1\n      pop\n      jump\t// out\n        /* \"#utility.yul\":22798:22905   */\n    tag_267:\n        /* \"#utility.yul\":22842:22850   */\n      0x00\n        /* \"#utility.yul\":22892:22897   */\n      dup3\n        /* \"#utility.yul\":22886:22890   */\n      dup3\n        /* \"#utility.yul\":22882:22898   */\n      shl\n        /* \"#utility.yul\":22861:22898   */\n      swap1\n      pop\n        /* \"#utility.yul\":22798:22905   */\n      swap3\n      swap2\n      pop\n      pop\n      jump\t// out\n        /* \"#utility.yul\":22911:23304   */\n    tag_268:\n        /* \"#utility.yul\":22980:22986   */\n      0x00\n        /* \"#utility.yul\":23030:23031   */\n      0x08\n        /* \"#utility.yul\":23018:23028   */\n      dup4\n        /* \"#utility.yul\":23014:23032   */\n      mul\n        /* \"#utility.yul\":23053:23150   */\n      tag_500\n        /* \"#utility.yul\":23083:23149   */\n      0xffffffffffffffffffffffffffffffffffffffffffffffffffffffffffffffff\n        /* \"#utility.yul\":23072:23081   */\n      dup3\n        /* \"#utility.yul\":23053:23150   */\n      tag_267\n      jump\t// in\n    tag_500:\n        /* \"#utility.yul\":23171:23210   */\n      tag_501\n        /* \"#utility.yul\":23201:23209   */\n      dup7\n        /* \"#utility.yul\":23190:23199   */\n      dup4\n        /* \"#utility.yul\":23171:23210   */\n      tag_267\n      jump\t// in\n    tag_501:\n        /* \"#utility.yul\":23159:23210   */\n      swap6\n      pop\n        /* \"#utility.yul\":23243:23247   */\n      dup1\n        /* \"#utility.yul\":23239:23248   */\n      not\n        /* \"#utility.yul\":23232:23237   */\n      dup5\n        /* \"#utility.yul\":23228:23249   */\n      and\n        /* \"#utility.yul\":23219:23249   */\n      swap4\n      pop\n        /* \"#utility.yul\":23292:23296   */\n      dup1\n        /* \"#utility.yul\":23282:23290   */\n      dup7\n        /* \"#utility.yul\":23278:23297   */\n      and\n        /* \"#utility.yul\":23271:23276   */\n      dup5\n        /* \"#utility.yul\":23268:23298   */\n      or\n        /* \"#utility.yul\":23258:23298   */\n      swap3\n      pop\n        /* \"#utility.yul\":22987:23304   */\n      pop\n      pop\n        /* \"#utility.yul\":22911:23304   */\n      swap4\n      swap3\n      pop\n      pop\n      pop\n      jump\t// out\n        /* \"#utility.yul\":23310:23452   */\n    tag_269:\n        /* \"#utility.yul\":23360:23369   */\n      0x00\n        /* \"#utility.yul\":23393:23446   */\n      tag_503\n        /* \"#utility.yul\":23411:23445   */\n      tag_504\n        /* \"#utility.yul\":23420:23444   */\n      tag_505\n        /* \"#utility.yul\":23438:23443   */\n      dup5\n        /* \"#utility.yul\":23420:23444   */\n      tag_212\n      jump\t// in\n    tag_505:\n        /* \"#utility.yul\":23411:23445   */\n      tag_246\n      jump\t// in\n    tag_504:\n        /* \"#utility.yul\":23393:23446   */\n      tag_212\n      jump\t// in\n    tag_503:\n        /* \"#utility.yul\":23380:23446   */\n      swap1\n      pop\n        /* \"#utility.yul\":23310:23452   */\n      swap2\n      swap1\n      pop\n      jump\t// out\n        /* \"#utility.yul\":23458:23533   */\n    tag_270:\n        /* \"#utility.yul\":23501:23504   */\n      0x00\n        /* \"#utility.yul\":23522:23527   */\n      dup2\n        /* \"#utility.yul\":23515:23527   */\n      swap1\n      pop\n        /* \"#utility.yul\":23458:23533   */\n      swap2\n      swap1\n      pop\n      jump\t// out\n        /* \"#utility.yul\":23539:23808   */\n    tag_271:\n        /* \"#utility.yul\":23649:23688   */\n      tag_508\n        /* \"#utility.yul\":23680:23687   */\n      dup4\n        /* \"#utility.yul\":23649:23688   */\n      tag_269\n      jump\t// in\n    tag_508:\n        /* \"#utility.yul\":23710:23801   */\n      tag_509\n        /* \"#utility.yul\":23759:23800   */\n      tag_510\n        /* \"#utility.yul\":23783:23799   */\n      dup3\n        /* \"#utility.yul\":23759:23800   */\n      tag_270\n      jump\t// in\n    tag_510:\n        /* \"#utility.yul\":23751:23757   */\n      dup5\n        /* \"#utility.yul\":23744:23748   */\n      dup5\n        /* \"#utility.yul\":23738:23749   */\n      sload\n        /* \"#utility.yul\":23710:23801   */\n      tag_268\n      jump\t// in\n    tag_509:\n        /* \"#utility.yul\":23704:23708   */\n      dup3\n        /* \"#utility.yul\":23697:23802   */\n      sstore\n        /* \"#utility.yul\":23615:23808   */\n      pop\n        /* \"#utility.yul\":23539:23808   */\n      pop\n      pop\n      pop\n      jump\t// out\n        /* \"#utility.yul\":23814:23887   */\n    tag_272:\n        /* \"#utility.yul\":23859:23862   */\n      0x00\n        /* \"#utility.yul\":23814:23887   */\n      swap1\n      jump\t// out\n        /* \"#utility.yul\":23893:24082   */\n    tag_273:\n        /* \"#utility.yul\":23970:24002   */\n      tag_513\n      tag_272\n      jump\t// in\n    tag_513:\n        /* \"#utility.yul\":24011:24076   */\n      tag_514\n        /* \"#utility.yul\":24069:24075   */\n      dup2\n        /* \"#utility.yul\":24061:24067   */\n      dup5\n        /* \"#utility.yul\":24055:24059   */\n      dup5\n        /* \"#utility.yul\":24011:24076   */\n      tag_271\n      jump\t// in\n    tag_514:\n        /* \"#utility.yul\":23946:24082   */\n      pop\n        /* \"#utility.yul\":23893:24082   */\n      pop\n      pop\n      jump\t// out\n        /* \"#utility.yul\":24088:24274   */\n    tag_274:\n        /* \"#utility.yul\":24148:24268   */\n    tag_516:\n        /* \"#utility.yul\":24165:24168   */\n      dup2\n        /* \"#utility.yul\":24158:24163   */\n      dup2\n        /* \"#utility.yul\":24155:24169   */\n      lt\n        /* \"#utility.yul\":24148:24268   */\n      iszero\n      tag_518\n      jumpi\n        /* \"#utility.yul\":24219:24258   */\n      tag_519\n        /* \"#utility.yul\":24256:24257   */\n      0x00\n        /* \"#utility.yul\":24249:24254   */\n      dup3\n        /* \"#utility.yul\":24219:24258   */\n      tag_273\n      jump\t// in\n    tag_519:\n        /* \"#utility.yul\":24192:24193   */\n      0x01\n        /* \"#utility.yul\":24185:24190   */\n      dup2\n        /* \"#utility.yul\":24181:24194   */\n      add\n        /* \"#utility.yul\":24172:24194   */\n      swap1\n      pop\n        /* \"#utility.yul\":24148:24268   */\n      jump(tag_516)\n    tag_518:\n        /* \"#utility.yul\":24088:24274   */\n      pop\n      pop\n      jump\t// out\n        /* \"#utility.yul\":24280:24823   */\n    tag_275:\n        /* \"#utility.yul\":24381:24383   */\n      0x1f\n        /* \"#utility.yul\":24376:24379   */\n      dup3\n        /* \"#utility.yul\":24373:24384   */\n      gt\n        /* \"#utility.yul\":24370:24816   */\n      iszero\n      tag_521\n      jumpi\n        /* \"#utility.yul\":24415:24453   */\n      tag_522\n        /* \"#utility.yul\":24447:24452   */\n      dup2\n        /* \"#utility.yul\":24415:24453   */\n      tag_265\n      jump\t// in\n    tag_522:\n        /* \"#utility.yul\":24499:24528   */\n      tag_523\n        /* \"#utility.yul\":24517:24527   */\n      dup5\n        /* \"#utility.yul\":24499:24528   */\n      tag_266\n      jump\t// in\n    tag_523:\n        /* \"#utility.yul\":24489:24497   */\n      dup2\n        /* \"#utility.yul\":24485:24529   */\n      add\n        /* \"#utility.yul\":24682:24684   */\n      0x20\n        /* \"#utility.yul\":24670:24680   */\n      dup6\n        /* \"#utility.yul\":24667:24685   */\n      lt\n        /* \"#utility.yul\":24664:24713   */\n      iszero\n      tag_524\n      jumpi\n        /* \"#utility.yul\":24703:24711   */\n      dup2\n        /* \"#utility.yul\":24688:24711   */\n      swap1\n      pop\n        /* \"#utility.yul\":24664:24713   */\n    tag_524:\n        /* \"#utility.yul\":24726:24806   */\n      tag_525\n        /* \"#utility.yul\":24782:24804   */\n      tag_526\n        /* \"#utility.yul\":24800:24803   */\n      dup6\n        /* \"#utility.yul\":24782:24804   */\n      tag_266\n      jump\t// in\n    tag_526:\n        /* \"#utility.yul\":24772:24780   */\n      dup4\n        /* \"#utility.yul\":24768:24805   */\n      add\n        /* \"#utility.yul\":24755:24766   */\n      dup3\n        /* \"#utility.yul\":24726:24806   */\n      tag_274\n      jump\t// in\n    tag_525:\n        /* \"#utility.yul\":24385:24816   */\n      pop\n      pop\n        /* \"#utility.yul\":24370:24816   */\n    tag_521:\n        /* \"#utility.yul\":24280:24823   */\n      pop\n      pop\n      pop\n      jump\t// out\n        /* \"#utility.yul\":24829:24946   */\n    tag_276:\n        /* \"#utility.yul\":24883:24891   */\n      0x00\n        /* \"#utility.yul\":24933:24938   */\n      dup3\n        /* \"#utility.yul\":24927:24931   */\n      dup3\n        /* \"#utility.yul\":24923:24939   */\n      shr\n        /* \"#utility.yul\":24902:24939   */\n      swap1\n      pop\n        /* \"#utility.yul\":24829:24946   */\n      swap3\n      swap2\n      pop\n      pop\n      jump\t// out\n        /* \"#utility.yul\":24952:25121   */\n    tag_277:\n        /* \"#utility.yul\":24996:25002   */\n      0x00\n        /* \"#utility.yul\":25029:25080   */\n      tag_529\n        /* \"#utility.yul\":25077:25078   */\n      0x00\n        /* \"#utility.yul\":25073:25079   */\n      not\n        /* \"#utility.yul\":25065:25070   */\n      dup5\n        /* \"#utility.yul\":25062:25063   */\n      0x08\n        /* \"#utility.yul\":25058:25071   */\n      mul\n        /* \"#utility.yul\":25029:25080   */\n      tag_276\n      jump\t// in\n    tag_529:\n        /* \"#utility.yul\":25025:25081   */\n      not\n        /* \"#utility.yul\":25110:25114   */\n      dup1\n        /* \"#utility.yul\":25104:25108   */\n      dup4\n        /* \"#utility.yul\":25100:25115   */\n      and\n        /* \"#utility.yul\":25090:25115   */\n      swap2\n      pop\n        /* \"#utility.yul\":25003:25121   */\n      pop\n        /* \"#utility.yul\":24952:25121   */\n      swap3\n      swap2\n      pop\n      pop\n      jump\t// out\n        /* \"#utility.yul\":25126:25421   */\n    tag_278:\n        /* \"#utility.yul\":25202:25206   */\n      0x00\n        /* \"#utility.yul\":25348:25377   */\n      tag_531\n        /* \"#utility.yul\":25373:25376   */\n      dup4\n        /* \"#utility.yul\":25367:25371   */\n      dup4\n        /* \"#utility.yul\":25348:25377   */\n      tag_277\n      jump\t// in\n    tag_531:\n        /* \"#utility.yul\":25340:25377   */\n      swap2\n      pop\n        /* \"#utility.yul\":25410:25413   */\n      dup3\n        /* \"#utility.yul\":25407:25408   */\n      0x02\n        /* \"#utility.yul\":25403:25414   */\n      mul\n        /* \"#utility.yul\":25397:25401   */\n      dup3\n        /* \"#utility.yul\":25394:25415   */\n      or\n        /* \"#utility.yul\":25386:25415   */\n      swap1\n      pop\n        /* \"#utility.yul\":25126:25421   */\n      swap3\n      swap2\n      pop\n      pop\n      jump\t// out\n        /* \"#utility.yul\":25426:26821   */\n    tag_138:\n        /* \"#utility.yul\":25543:25580   */\n      tag_533\n        /* \"#utility.yul\":25576:25579   */\n      dup3\n        /* \"#utility.yul\":25543:25580   */\n      tag_217\n      jump\t// in\n    tag_533:\n        /* \"#utility.yul\":25645:25663   */\n      0xffffffffffffffff\n        /* \"#utility.yul\":25637:25643   */\n      dup2\n        /* \"#utility.yul\":25634:25664   */\n      gt\n        /* \"#utility.yul\":25631:25687   */\n      iszero\n      tag_534\n      jumpi\n        /* \"#utility.yul\":25667:25685   */\n      tag_535\n      tag_239\n      jump\t// in\n    tag_535:\n        /* \"#utility.yul\":25631:25687   */\n    tag_534:\n        /* \"#utility.yul\":25711:25749   */\n      tag_536\n        /* \"#utility.yul\":25743:25747   */\n      dup3\n        /* \"#utility.yul\":25737:25748   */\n      sload\n        /* \"#utility.yul\":25711:25749   */\n      tag_75\n      jump\t// in\n    tag_536:\n        /* \"#utility.yul\":25796:25863   */\n      tag_537\n        /* \"#utility.yul\":25856:25862   */\n      dup3\n        /* \"#utility.yul\":25848:25854   */\n      dup3\n        /* \"#utility.yul\":25842:25846   */\n      dup6\n        /* \"#utility.yul\":25796:25863   */\n      tag_275\n      jump\t// in\n    tag_537:\n        /* \"#utility.yul\":25890:25891   */\n      0x00\n        /* \"#utility.yul\":25914:25918   */\n      0x20\n        /* \"#utility.yul\":25901:25918   */\n      swap1\n      pop\n        /* \"#utility.yul\":25946:25948   */\n      0x1f\n        /* \"#utility.yul\":25938:25944   */\n      dup4\n        /* \"#utility.yul\":25935:25949   */\n      gt\n        /* \"#utility.yul\":25963:25964   */\n      0x01\n        /* \"#utility.yul\":25958:26576   */\n      dup2\n      eq\n      tag_539\n      jumpi\n        /* \"#utility.yul\":26620:26621   */\n      0x00\n        /* \"#utility.yul\":26637:26643   */\n      dup5\n        /* \"#utility.yul\":26634:26711   */\n      iszero\n      tag_540\n      jumpi\n        /* \"#utility.yul\":26686:26695   */\n      dup3\n        /* \"#utility.yul\":26681:26684   */\n      dup8\n        /* \"#utility.yul\":26677:26696   */\n      add\n        /* \"#utility.yul\":26671:26697   */\n      mload\n        /* \"#utility.yul\":26662:26697   */\n      swap1\n      pop\n        /* \"#utility.yul\":26634:26711   */\n    tag_540:\n        /* \"#utility.yul\":26737:26804   */\n      tag_541\n        /* \"#utility.yul\":26797:26803   */\n      dup6\n        /* \"#utility.yul\":26790:26795   */\n      dup3\n        /* \"#utility.yul\":26737:26804   */\n      tag_278\n      jump\t// in\n    tag_541:\n        /* \"#utility.yul\":26731:26735   */\n      dup7\n        /* \"#utility.yul\":26724:26805   */\n      sstore\n        /* \"#utility.yul\":26593:26815   */\n      pop\n        /* \"#utility.yul\":25928:26815   */\n      jump(tag_538)\n        /* \"#utility.yul\":25958:26576   */\n    tag_539:\n        /* \"#utility.yul\":26010:26014   */\n      0x1f\n        /* \"#utility.yul\":26006:26015   */\n      not\n        /* \"#utility.yul\":25998:26004   */\n      dup5\n        /* \"#utility.yul\":25994:26016   */\n      and\n        /* \"#utility.yul\":26044:26081   */\n      tag_542\n        /* \"#utility.yul\":26076:26080   */\n      dup7\n        /* \"#utility.yul\":26044:26081   */\n      tag_265\n      jump\t// in\n    tag_542:\n        /* \"#utility.yul\":26103:26104   */\n      0x00\n        /* \"#utility.yul\":26117:26325   */\n    tag_543:\n        /* \"#utility.yul\":26131:26138   */\n      dup3\n        /* \"#utility.yul\":26128:26129   */\n      dup2\n        /* \"#utility.yul\":26125:26139   */\n      lt\n        /* \"#utility.yul\":26117:26325   */\n      iszero\n      tag_545\n      jumpi\n        /* \"#utility.yul\":26210:26219   */\n      dup5\n        /* \"#utility.yul\":26205:26208   */\n      dup10\n        /* \"#utility.yul\":26201:26220   */\n      add\n        /* \"#utility.yul\":26195:26221   */\n      mload\n        /* \"#utility.yul\":26187:26193   */\n      dup3\n        /* \"#utility.yul\":26180:26222   */\n      sstore\n        /* \"#utility.yul\":26261:26262   */\n      0x01\n        /* \"#utility.yul\":26253:26259   */\n      dup3\n        /* \"#utility.yul\":26249:26263   */\n      add\n        /* \"#utility.yul\":26239:26263   */\n      swap2\n      pop\n        /* \"#utility.yul\":26308:26310   */\n      0x20\n        /* \"#utility.yul\":26297:26306   */\n      dup6\n        /* \"#utility.yul\":26293:26311   */\n      add\n        /* \"#utility.yul\":26280:26311   */\n      swap5\n      pop\n        /* \"#utility.yul\":26154:26158   */\n      0x20\n        /* \"#utility.yul\":26151:26152   */\n      dup2\n        /* \"#utility.yul\":26147:26159   */\n      add\n        /* \"#utility.yul\":26142:26159   */\n      swap1\n      pop\n        /* \"#utility.yul\":26117:26325   */\n      jump(tag_543)\n    tag_545:\n        /* \"#utility.yul\":26353:26359   */\n      dup7\n        /* \"#utility.yul\":26344:26351   */\n      dup4\n        /* \"#utility.yul\":26341:26360   */\n      lt\n        /* \"#utility.yul\":26338:26517   */\n      iszero\n      tag_546\n      jumpi\n        /* \"#utility.yul\":26411:26420   */\n      dup5\n        /* \"#utility.yul\":26406:26409   */\n      dup10\n        /* \"#utility.yul\":26402:26421   */\n      add\n        /* \"#utility.yul\":26396:26422   */\n      mload\n        /* \"#utility.yul\":26454:26502   */\n      tag_547\n        /* \"#utility.yul\":26496:26500   */\n      0x1f\n        /* \"#utility.yul\":26488:26494   */\n      dup10\n        /* \"#utility.yul\":26484:26501   */\n      and\n        /* \"#utility.yul\":26473:26482   */\n      dup3\n        /* \"#utility.yul\":26454:26502   */\n      tag_277\n      jump\t// in\n    tag_547:\n        /* \"#utility.yul\":26446:26452   */\n      dup4\n        /* \"#utility.yul\":26439:26503   */\n      sstore\n        /* \"#utility.yul\":26361:26517   */\n      pop\n        /* \"#utility.yul\":26338:26517   */\n    tag_546:\n        /* \"#utility.yul\":26563:26564   */\n      0x01\n        /* \"#utility.yul\":26559:26560   */\n      0x02\n        /* \"#utility.yul\":26551:26557   */\n      dup9\n        /* \"#utility.yul\":26547:26561   */\n      mul\n        /* \"#utility.yul\":26543:26565   */\n      add\n        /* \"#utility.yul\":26537:26541   */\n      dup9\n        /* \"#utility.yul\":26530:26566   */\n      sstore\n        /* \"#utility.yul\":25965:26576   */\n      pop\n      pop\n      pop\n        /* \"#utility.yul\":25928:26815   */\n    tag_538:\n      pop\n        /* \"#utility.yul\":25518:26821   */\n      pop\n      pop\n      pop\n        /* \"#utility.yul\":25426:26821   */\n      pop\n      pop\n      jump\t// out\n        /* \"#utility.yul\":26827:27471   */\n    tag_140:\n        /* \"#utility.yul\":27024:27028   */\n      0x00\n        /* \"#utility.yul\":27062:27065   */\n      0x80\n        /* \"#utility.yul\":27051:27060   */\n      dup3\n        /* \"#utility.yul\":27047:27066   */\n      add\n        /* \"#utility.yul\":27039:27066   */\n      swap1\n      pop\n        /* \"#utility.yul\":27076:27147   */\n      tag_549\n        /* \"#utility.yul\":27144:27145   */\n      0x00\n        /* \"#utility.yul\":27133:27142   */\n      dup4\n        /* \"#utility.yul\":27129:27146   */\n      add\n        /* \"#utility.yul\":27120:27126   */\n      dup8\n        /* \"#utility.yul\":27076:27147   */\n      tag_215\n      jump\t// in\n    tag_549:\n        /* \"#utility.yul\":27157:27229   */\n      tag_550\n        /* \"#utility.yul\":27225:27227   */\n      0x20\n        /* \"#utility.yul\":27214:27223   */\n      dup4\n        /* \"#utility.yul\":27210:27228   */\n      add\n        /* \"#utility.yul\":27201:27207   */\n      dup7\n        /* \"#utility.yul\":27157:27229   */\n      tag_216\n      jump\t// in\n    tag_550:\n        /* \"#utility.yul\":27276:27285   */\n      dup2\n        /* \"#utility.yul\":27270:27274   */\n      dup2\n        /* \"#utility.yul\":27266:27286   */\n      sub\n        /* \"#utility.yul\":27261:27263   */\n      0x40\n        /* \"#utility.yul\":27250:27259   */\n      dup4\n        /* \"#utility.yul\":27246:27264   */\n      add\n        /* \"#utility.yul\":27239:27287   */\n      mstore\n        /* \"#utility.yul\":27304:27382   */\n      tag_551\n        /* \"#utility.yul\":27377:27381   */\n      dup2\n        /* \"#utility.yul\":27368:27374   */\n      dup6\n        /* \"#utility.yul\":27304:27382   */\n      tag_221\n      jump\t// in\n    tag_551:\n        /* \"#utility.yul\":27296:27382   */\n      swap1\n      pop\n        /* \"#utility.yul\":27392:27464   */\n      tag_552\n        /* \"#utility.yul\":27460:27462   */\n      0x60\n        /* \"#utility.yul\":27449:27458   */\n      dup4\n        /* \"#utility.yul\":27445:27463   */\n      add\n        /* \"#utility.yul\":27436:27442   */\n      dup5\n        /* \"#utility.yul\":27392:27464   */\n      tag_215\n      jump\t// in\n    tag_552:\n        /* \"#utility.yul\":26827:27471   */\n      swap6\n      swap5\n      pop\n      pop\n      pop\n      pop\n      pop\n      jump\t// out\n        /* \"#utility.yul\":27477:27668   */\n    tag_149:\n        /* \"#utility.yul\":27517:27520   */\n      0x00\n        /* \"#utility.yul\":27536:27556   */\n      tag_554\n        /* \"#utility.yul\":27554:27555   */\n      dup3\n        /* \"#utility.yul\":27536:27556   */\n      tag_212\n      jump\t// in\n    tag_554:\n        /* \"#utility.yul\":27531:27556   */\n      swap2\n      pop\n        /* \"#utility.yul\":27570:27590   */\n      tag_555\n        /* \"#utility.yul\":27588:27589   */\n      dup4\n        /* \"#utility.yul\":27570:27590   */\n      tag_212\n      jump\t// in\n    tag_555:\n        /* \"#utility.yul\":27565:27590   */\n      swap3\n      pop\n        /* \"#utility.yul\":27613:27614   */\n      dup3\n        /* \"#utility.yul\":27610:27611   */\n      dup3\n        /* \"#utility.yul\":27606:27615   */\n      add\n        /* \"#utility.yul\":27599:27615   */\n      swap1\n      pop\n        /* \"#utility.yul\":27634:27637   */\n      dup1\n        /* \"#utility.yul\":27631:27632   */\n      dup3\n        /* \"#utility.yul\":27628:27638   */\n      gt\n        /* \"#utility.yul\":27625:27661   */\n      iszero\n      tag_556\n      jumpi\n        /* \"#utility.yul\":27641:27659   */\n      tag_557\n      tag_262\n      jump\t// in\n    tag_557:\n        /* \"#utility.yul\":27625:27661   */\n    tag_556:\n        /* \"#utility.yul\":27477:27668   */\n      swap3\n      swap2\n      pop\n      pop\n      jump\t// out\n        /* \"#utility.yul\":27674:27849   */\n    tag_279:\n        /* \"#utility.yul\":27814:27841   */\n      0x547765657420686173206e6f206c696b6573204d52204d414e00000000000000\n        /* \"#utility.yul\":27810:27811   */\n      0x00\n        /* \"#utility.yul\":27802:27808   */\n      dup3\n        /* \"#utility.yul\":27798:27812   */\n      add\n        /* \"#utility.yul\":27791:27842   */\n      mstore\n        /* \"#utility.yul\":27674:27849   */\n      pop\n      jump\t// out\n        /* \"#utility.yul\":27855:28221   */\n    tag_280:\n        /* \"#utility.yul\":27997:28000   */\n      0x00\n        /* \"#utility.yul\":28018:28085   */\n      tag_560\n        /* \"#utility.yul\":28082:28084   */\n      0x19\n        /* \"#utility.yul\":28077:28080   */\n      dup4\n        /* \"#utility.yul\":28018:28085   */\n      tag_218\n      jump\t// in\n    tag_560:\n        /* \"#utility.yul\":28011:28085   */\n      swap2\n      pop\n        /* \"#utility.yul\":28094:28187   */\n      tag_561\n        /* \"#utility.yul\":28183:28186   */\n      dup3\n        /* \"#utility.yul\":28094:28187   */\n      tag_279\n      jump\t// in\n    tag_561:\n        /* \"#utility.yul\":28212:28214   */\n      0x20\n        /* \"#utility.yul\":28207:28210   */\n      dup3\n        /* \"#utility.yul\":28203:28215   */\n      add\n        /* \"#utility.yul\":28196:28215   */\n      swap1\n      pop\n        /* \"#utility.yul\":27855:28221   */\n      swap2\n      swap1\n      pop\n      jump\t// out\n        /* \"#utility.yul\":28227:28646   */\n    tag_169:\n        /* \"#utility.yul\":28393:28397   */\n      0x00\n        /* \"#utility.yul\":28431:28433   */\n      0x20\n        /* \"#utility.yul\":28420:28429   */\n      dup3\n        /* \"#utility.yul\":28416:28434   */\n      add\n        /* \"#utility.yul\":28408:28434   */\n      swap1\n      pop\n        /* \"#utility.yul\":28480:28489   */\n      dup2\n        /* \"#utility.yul\":28474:28478   */\n      dup2\n        /* \"#utility.yul\":28470:28490   */\n      sub\n        /* \"#utility.yul\":28466:28467   */\n      0x00\n        /* \"#utility.yul\":28455:28464   */\n      dup4\n        /* \"#utility.yul\":28451:28468   */\n      add\n        /* \"#utility.yul\":28444:28491   */\n      mstore\n        /* \"#utility.yul\":28508:28639   */\n      tag_563\n        /* \"#utility.yul\":28634:28638   */\n      dup2\n        /* \"#utility.yul\":28508:28639   */\n      tag_280\n      jump\t// in\n    tag_563:\n        /* \"#utility.yul\":28500:28639   */\n      swap1\n      pop\n        /* \"#utility.yul\":28227:28646   */\n      swap2\n      swap1\n      pop\n      jump\t// out\n        /* \"#utility.yul\":28652:28823   */\n    tag_174:\n        /* \"#utility.yul\":28691:28694   */\n      0x00\n        /* \"#utility.yul\":28714:28738   */\n      tag_565\n        /* \"#utility.yul\":28732:28737   */\n      dup3\n        /* \"#utility.yul\":28714:28738   */\n      tag_212\n      jump\t// in\n    tag_565:\n        /* \"#utility.yul\":28705:28738   */\n      swap2\n      pop\n        /* \"#utility.yul\":28760:28764   */\n      0x00\n        /* \"#utility.yul\":28753:28758   */\n      dup3\n        /* \"#utility.yul\":28750:28765   */\n      sub\n        /* \"#utility.yul\":28747:28788   */\n      tag_566\n      jumpi\n        /* \"#utility.yul\":28768:28786   */\n      tag_567\n      tag_262\n      jump\t// in\n    tag_567:\n        /* \"#utility.yul\":28747:28788   */\n    tag_566:\n        /* \"#utility.yul\":28815:28816   */\n      0x01\n        /* \"#utility.yul\":28808:28813   */\n      dup3\n        /* \"#utility.yul\":28804:28817   */\n      sub\n        /* \"#utility.yul\":28797:28817   */\n      swap1\n      pop\n        /* \"#utility.yul\":28652:28823   */\n      swap2\n      swap1\n      pop\n      jump\t// out\n\n    auxdata: 0xa264697066735822122093d010d2ba73281e6b13046600c48f2380be56e9afca45ef32c6bebb2d7522d864736f6c634300081a0033\n}\n",
				"bytecode": {
					"linkReferences": {},
					"object": "60806040526101185f60146101000a81548161ffff021916908361ffff16021790555034801561002d575f80fd5b506040516123b43803806123b4833981810160405281019061004f9190610235565b335f73ffffffffffffffffffffffffffffffffffffffff168173ffffffffffffffffffffffffffffffffffffffff16036100c0575f6040517f1e4fbdf70000000000000000000000000000000000000000000000000000000081526004016100b7919061026f565b60405180910390fd5b6100cf8161011660201b60201c565b508060025f6101000a81548173ffffffffffffffffffffffffffffffffffffffff021916908373ffffffffffffffffffffffffffffffffffffffff16021790555050610288565b5f805f9054906101000a900473ffffffffffffffffffffffffffffffffffffffff169050815f806101000a81548173ffffffffffffffffffffffffffffffffffffffff021916908373ffffffffffffffffffffffffffffffffffffffff1602179055508173ffffffffffffffffffffffffffffffffffffffff168173ffffffffffffffffffffffffffffffffffffffff167f8be0079c531659141344cd1fd0a4f28419497f9722a3daafe3b4186f6b6457e060405160405180910390a35050565b5f80fd5b5f73ffffffffffffffffffffffffffffffffffffffff82169050919050565b5f610204826101db565b9050919050565b610214816101fa565b811461021e575f80fd5b50565b5f8151905061022f8161020b565b92915050565b5f6020828403121561024a576102496101d7565b5b5f61025784828501610221565b91505092915050565b610269816101fa565b82525050565b5f6020820190506102825f830184610260565b92915050565b61211f806102955f395ff3fe608060405234801561000f575f80fd5b50600436106100cd575f3560e01c80637c9cd2bc1161008a5780639ef8633f116100645780639ef8633f146101ff578063a3974b211461021b578063c3ad5ecb14610239578063f2fde38b14610269576100cd565b80637c9cd2bc14610195578063820785cc146101b15780638da5cb5b146101e1576100cd565b806305a1b4a9146100d157806312e7ee1c1461010557806358bfa4ab1461013557806363378216146101515780636eb107971461016d578063715018a61461018b575b5f80fd5b6100eb60048036038101906100e6919061135b565b610285565b6040516100fc959493929190611427565b60405180910390f35b61011f600480360381019061011a919061147f565b610376565b60405161012c919061163e565b60405180910390f35b61014f600480360381019061014a9190611695565b610511565b005b61016b6004803603810190610166919061135b565b610538565b005b6101756107cf565b60405161018291906116cf565b60405180910390f35b6101936107e2565b005b6101af60048036038101906101aa9190611814565b6107f5565b005b6101cb60048036038101906101c6919061147f565b610ae0565b6040516101d8919061185b565b60405180910390f35b6101e9610baf565b6040516101f69190611874565b60405180910390f35b6102196004803603810190610214919061135b565b610bd6565b005b610223610f0d565b60405161023091906118e8565b60405180910390f35b610253600480360381019061024e9190611901565b610f32565b604051610260919061199f565b60405180910390f35b610283600480360381019061027e919061147f565b6110a9565b005b6001602052815f5260405f20818154811061029e575f80fd5b905f5260205f2090600502015f9150915050805f015490806001015f9054906101000a900473ffffffffffffffffffffffffffffffffffffffff16908060020180546102e9906119ec565b80601f0160208091040260200160405190810160405280929190818152602001828054610315906119ec565b80156103605780601f1061033757610100808354040283529160200191610360565b820191905f5260205f20905b81548152906001019060200180831161034357829003601f168201915b5050505050908060030154908060040154905085565b606060015f8373ffffffffffffffffffffffffffffffffffffffff1673ffffffffffffffffffffffffffffffffffffffff1681526020019081526020015f20805480602002602001604051908101604052809291908181526020015f905b82821015610506578382905f5260205f2090600502016040518060a00160405290815f8201548152602001600182015f9054906101000a900473ffffffffffffffffffffffffffffffffffffffff1673ffffffffffffffffffffffffffffffffffffffff1673ffffffffffffffffffffffffffffffffffffffff168152602001600282018054610463906119ec565b80601f016020809104026020016040519081016040528092919081815260200182805461048f906119ec565b80156104da5780601f106104b1576101008083540402835291602001916104da565b820191905f5260205f20905b8154815290600101906020018083116104bd57829003601f168201915b5050505050815260200160038201548152602001600482015481525050815260200190600101906103d4565b505050509050919050565b61051961112d565b805f60146101000a81548161ffff021916908361ffff16021790555050565b5f60025f9054906101000a900473ffffffffffffffffffffffffffffffffffffffff1673ffffffffffffffffffffffffffffffffffffffff16630f53a470336040518263ffffffff1660e01b81526004016105939190611874565b5f60405180830381865afa1580156105ad573d5f803e3d5ffd5b505050506040513d5f823e3d601f19601f820116820180604052508101906105d59190611b17565b90505f815f0151511161061d576040517f08c379a000000000000000000000000000000000000000000000000000000000815260040161061490611ba8565b60405180910390fd5b8160015f8573ffffffffffffffffffffffffffffffffffffffff1673ffffffffffffffffffffffffffffffffffffffff1681526020019081526020015f20838154811061066d5761066c611bc6565b5b905f5260205f2090600502015f0154146106bc576040517f08c379a00000000000000000000000000000000000000000000000000000000081526004016106b390611c3d565b60405180910390fd5b60015f8473ffffffffffffffffffffffffffffffffffffffff1673ffffffffffffffffffffffffffffffffffffffff1681526020019081526020015f20828154811061070b5761070a611bc6565b5b905f5260205f2090600502016004015f81548092919061072a90611c88565b91905055507fe8a76fc0f16d11a00d1e93b689b63d76cf60af914dd3d915375dc41d01a0c3c833848460015f8873ffffffffffffffffffffffffffffffffffffffff1673ffffffffffffffffffffffffffffffffffffffff1681526020019081526020015f2086815481106107a2576107a1611bc6565b5b905f5260205f209060050201600401546040516107c29493929190611ccf565b60405180910390a1505050565b5f60149054906101000a900461ffff1681565b6107ea61112d565b6107f35f6111b4565b565b5f60025f9054906101000a900473ffffffffffffffffffffffffffffffffffffffff1673ffffffffffffffffffffffffffffffffffffffff16630f53a470336040518263ffffffff1660e01b81526004016108509190611874565b5f60405180830381865afa15801561086a573d5f803e3d5ffd5b505050506040513d5f823e3d601f19601f820116820180604052508101906108929190611b17565b90505f815f015151116108da576040517f08c379a00000000000000000000000000000000000000000000000000000000081526004016108d190611ba8565b60405180910390fd5b5f60149054906101000a900461ffff1661ffff1682511115610931576040517f08c379a000000000000000000000000000000000000000000000000000000000815260040161092890611d5c565b60405180910390fd5b5f6040518060a0016040528060015f3373ffffffffffffffffffffffffffffffffffffffff1673ffffffffffffffffffffffffffffffffffffffff1681526020019081526020015f208054905081526020013373ffffffffffffffffffffffffffffffffffffffff1681526020018481526020014281526020015f815250905060015f3373ffffffffffffffffffffffffffffffffffffffff1673ffffffffffffffffffffffffffffffffffffffff1681526020019081526020015f2081908060018154018082558091505060019003905f5260205f2090600502015f909190919091505f820151815f01556020820151816001015f6101000a81548173ffffffffffffffffffffffffffffffffffffffff021916908373ffffffffffffffffffffffffffffffffffffffff1602179055506040820151816002019081610a789190611f0e565b50606082015181600301556080820151816004015550507f16fd3c13e9d46923e0a8bce11c7b473ec508a72e6c96cd2404b29ce972afc29e815f0151826020015183604001518460600151604051610ad39493929190611fdd565b60405180910390a1505050565b5f805f5b60015f8573ffffffffffffffffffffffffffffffffffffffff1673ffffffffffffffffffffffffffffffffffffffff1681526020019081526020015f2080549050811015610ba55760015f8573ffffffffffffffffffffffffffffffffffffffff1673ffffffffffffffffffffffffffffffffffffffff1681526020019081526020015f208181548110610b7b57610b7a611bc6565b5b905f5260205f2090600502016004015482610b969190612027565b91508080600101915050610ae4565b5080915050919050565b5f805f9054906101000a900473ffffffffffffffffffffffffffffffffffffffff16905090565b5f60025f9054906101000a900473ffffffffffffffffffffffffffffffffffffffff1673ffffffffffffffffffffffffffffffffffffffff16630f53a470336040518263ffffffff1660e01b8152600401610c319190611874565b5f60405180830381865afa158015610c4b573d5f803e3d5ffd5b505050506040513d5f823e3d601f19601f82011682018060405250810190610c739190611b17565b90505f815f01515111610cbb576040517f08c379a0000000000000000000000000000000000000000000000000000000008152600401610cb290611ba8565b60405180910390fd5b8160015f8573ffffffffffffffffffffffffffffffffffffffff1673ffffffffffffffffffffffffffffffffffffffff1681526020019081526020015f208381548110610d0b57610d0a611bc6565b5b905f5260205f2090600502015f015414610d5a576040517f08c379a0000000000000000000000000000000000000000000000000000000008152600401610d5190611c3d565b60405180910390fd5b5f60015f8573ffffffffffffffffffffffffffffffffffffffff1673ffffffffffffffffffffffffffffffffffffffff1681526020019081526020015f208381548110610daa57610da9611bc6565b5b905f5260205f2090600502016004015411610dfa576040517f08c379a0000000000000000000000000000000000000000000000000000000008152600401610df1906120a4565b60405180910390fd5b60015f8473ffffffffffffffffffffffffffffffffffffffff1673ffffffffffffffffffffffffffffffffffffffff1681526020019081526020015f208281548110610e4957610e48611bc6565b5b905f5260205f2090600502016004015f815480929190610e68906120c2565b91905055507f273883c252143c4abce776697615e41ca9bc1aac5968c585d1c8ba8ffaa8b3c133848460015f8873ffffffffffffffffffffffffffffffffffffffff1673ffffffffffffffffffffffffffffffffffffffff1681526020019081526020015f208681548110610ee057610edf611bc6565b5b905f5260205f20906005020160040154604051610f009493929190611ccf565b60405180910390a1505050565b60025f9054906101000a900473ffffffffffffffffffffffffffffffffffffffff1681565b610f3a61127c565b60015f3373ffffffffffffffffffffffffffffffffffffffff1673ffffffffffffffffffffffffffffffffffffffff1681526020019081526020015f208281548110610f8957610f88611bc6565b5b905f5260205f2090600502016040518060a00160405290815f8201548152602001600182015f9054906101000a900473ffffffffffffffffffffffffffffffffffffffff1673ffffffffffffffffffffffffffffffffffffffff1673ffffffffffffffffffffffffffffffffffffffff16815260200160028201805461100e906119ec565b80601f016020809104026020016040519081016040528092919081815260200182805461103a906119ec565b80156110855780601f1061105c57610100808354040283529160200191611085565b820191905f5260205f20905b81548152906001019060200180831161106857829003601f168201915b50505050508152602001600382015481526020016004820154815250509050919050565b6110b161112d565b5f73ffffffffffffffffffffffffffffffffffffffff168173ffffffffffffffffffffffffffffffffffffffff1603611121575f6040517f1e4fbdf70000000000000000000000000000000000000000000000000000000081526004016111189190611874565b60405180910390fd5b61112a816111b4565b50565b611135611275565b73ffffffffffffffffffffffffffffffffffffffff16611153610baf565b73ffffffffffffffffffffffffffffffffffffffff16146111b257611176611275565b6040517f118cdaa70000000000000000000000000000000000000000000000000000000081526004016111a99190611874565b60405180910390fd5b565b5f805f9054906101000a900473ffffffffffffffffffffffffffffffffffffffff169050815f806101000a81548173ffffffffffffffffffffffffffffffffffffffff021916908373ffffffffffffffffffffffffffffffffffffffff1602179055508173ffffffffffffffffffffffffffffffffffffffff168173ffffffffffffffffffffffffffffffffffffffff167f8be0079c531659141344cd1fd0a4f28419497f9722a3daafe3b4186f6b6457e060405160405180910390a35050565b5f33905090565b6040518060a001604052805f81526020015f73ffffffffffffffffffffffffffffffffffffffff168152602001606081526020015f81526020015f81525090565b5f604051905090565b5f80fd5b5f80fd5b5f73ffffffffffffffffffffffffffffffffffffffff82169050919050565b5f6112f7826112ce565b9050919050565b611307816112ed565b8114611311575f80fd5b50565b5f81359050611322816112fe565b92915050565b5f819050919050565b61133a81611328565b8114611344575f80fd5b50565b5f8135905061135581611331565b92915050565b5f8060408385031215611371576113706112c6565b5b5f61137e85828601611314565b925050602061138f85828601611347565b9150509250929050565b6113a281611328565b82525050565b6113b1816112ed565b82525050565b5f81519050919050565b5f82825260208201905092915050565b8281835e5f83830152505050565b5f601f19601f8301169050919050565b5f6113f9826113b7565b61140381856113c1565b93506114138185602086016113d1565b61141c816113df565b840191505092915050565b5f60a08201905061143a5f830188611399565b61144760208301876113a8565b818103604083015261145981866113ef565b90506114686060830185611399565b6114756080830184611399565b9695505050505050565b5f60208284031215611494576114936112c6565b5b5f6114a184828501611314565b91505092915050565b5f81519050919050565b5f82825260208201905092915050565b5f819050602082019050919050565b6114dc81611328565b82525050565b6114eb816112ed565b82525050565b5f82825260208201905092915050565b5f61150b826113b7565b61151581856114f1565b93506115258185602086016113d1565b61152e816113df565b840191505092915050565b5f60a083015f83015161154e5f8601826114d3565b50602083015161156160208601826114e2565b50604083015184820360408601526115798282611501565b915050606083015161158e60608601826114d3565b5060808301516115a160808601826114d3565b508091505092915050565b5f6115b78383611539565b905092915050565b5f602082019050919050565b5f6115d5826114aa565b6115df81856114b4565b9350836020820285016115f1856114c4565b805f5b8581101561162c578484038952815161160d85826115ac565b9450611618836115bf565b925060208a019950506001810190506115f4565b50829750879550505050505092915050565b5f6020820190508181035f83015261165681846115cb565b905092915050565b5f61ffff82169050919050565b6116748161165e565b811461167e575f80fd5b50565b5f8135905061168f8161166b565b92915050565b5f602082840312156116aa576116a96112c6565b5b5f6116b784828501611681565b91505092915050565b6116c98161165e565b82525050565b5f6020820190506116e25f8301846116c0565b92915050565b5f80fd5b5f80fd5b7f4e487b71000000000000000000000000000000000000000000000000000000005f52604160045260245ffd5b611726826113df565b810181811067ffffffffffffffff82111715611745576117446116f0565b5b80604052505050565b5f6117576112bd565b9050611763828261171d565b919050565b5f67ffffffffffffffff821115611782576117816116f0565b5b61178b826113df565b9050602081019050919050565b828183375f83830152505050565b5f6117b86117b384611768565b61174e565b9050828152602081018484840111156117d4576117d36116ec565b5b6117df848285611798565b509392505050565b5f82601f8301126117fb576117fa6116e8565b5b813561180b8482602086016117a6565b91505092915050565b5f60208284031215611829576118286112c6565b5b5f82013567ffffffffffffffff811115611846576118456112ca565b5b611852848285016117e7565b91505092915050565b5f60208201905061186e5f830184611399565b92915050565b5f6020820190506118875f8301846113a8565b92915050565b5f819050919050565b5f6118b06118ab6118a6846112ce565b61188d565b6112ce565b9050919050565b5f6118c182611896565b9050919050565b5f6118d2826118b7565b9050919050565b6118e2816118c8565b82525050565b5f6020820190506118fb5f8301846118d9565b92915050565b5f60208284031215611916576119156112c6565b5b5f61192384828501611347565b91505092915050565b5f60a083015f8301516119415f8601826114d3565b50602083015161195460208601826114e2565b506040830151848203604086015261196c8282611501565b915050606083015161198160608601826114d3565b50608083015161199460808601826114d3565b508091505092915050565b5f6020820190508181035f8301526119b7818461192c565b905092915050565b7f4e487b71000000000000000000000000000000000000000000000000000000005f52602260045260245ffd5b5f6002820490506001821680611a0357607f821691505b602082108103611a1657611a156119bf565b5b50919050565b5f80fd5b5f80fd5b5f611a36611a3184611768565b61174e565b905082815260208101848484011115611a5257611a516116ec565b5b611a5d8482856113d1565b509392505050565b5f82601f830112611a7957611a786116e8565b5b8151611a89848260208601611a24565b91505092915050565b5f60408284031215611aa757611aa6611a1c565b5b611ab1604061174e565b90505f82015167ffffffffffffffff811115611ad057611acf611a20565b5b611adc84828501611a65565b5f83015250602082015167ffffffffffffffff811115611aff57611afe611a20565b5b611b0b84828501611a65565b60208301525092915050565b5f60208284031215611b2c57611b2b6112c6565b5b5f82015167ffffffffffffffff811115611b4957611b486112ca565b5b611b5584828501611a92565b91505092915050565b7f75736572206e6f742072656769737465726564200000000000000000000000005f82015250565b5f611b926014836113c1565b9150611b9d82611b5e565b602082019050919050565b5f6020820190508181035f830152611bbf81611b86565b9050919050565b7f4e487b71000000000000000000000000000000000000000000000000000000005f52603260045260245ffd5b7f547765657420646f6573206e6f742065786973740000000000000000000000005f82015250565b5f611c276014836113c1565b9150611c3282611bf3565b602082019050919050565b5f6020820190508181035f830152611c5481611c1b565b9050919050565b7f4e487b71000000000000000000000000000000000000000000000000000000005f52601160045260245ffd5b5f611c9282611328565b91507fffffffffffffffffffffffffffffffffffffffffffffffffffffffffffffffff8203611cc457611cc3611c5b565b5b600182019050919050565b5f608082019050611ce25f8301876113a8565b611cef60208301866113a8565b611cfc6040830185611399565b611d096060830184611399565b95945050505050565b7f547765657420697320746f6f206c6f6e672062726f212063616c6d61000000005f82015250565b5f611d46601c836113c1565b9150611d5182611d12565b602082019050919050565b5f6020820190508181035f830152611d7381611d3a565b9050919050565b5f819050815f5260205f209050919050565b5f6020601f8301049050919050565b5f82821b905092915050565b5f60088302611dd67fffffffffffffffffffffffffffffffffffffffffffffffffffffffffffffffff82611d9b565b611de08683611d9b565b95508019841693508086168417925050509392505050565b5f611e12611e0d611e0884611328565b61188d565b611328565b9050919050565b5f819050919050565b611e2b83611df8565b611e3f611e3782611e19565b848454611da7565b825550505050565b5f90565b611e53611e47565b611e5e818484611e22565b505050565b5b81811015611e8157611e765f82611e4b565b600181019050611e64565b5050565b601f821115611ec657611e9781611d7a565b611ea084611d8c565b81016020851015611eaf578190505b611ec3611ebb85611d8c565b830182611e63565b50505b505050565b5f82821c905092915050565b5f611ee65f1984600802611ecb565b1980831691505092915050565b5f611efe8383611ed7565b9150826002028217905092915050565b611f17826113b7565b67ffffffffffffffff811115611f3057611f2f6116f0565b5b611f3a82546119ec565b611f45828285611e85565b5f60209050601f831160018114611f76575f8415611f64578287015190505b611f6e8582611ef3565b865550611fd5565b601f198416611f8486611d7a565b5f5b82811015611fab57848901518255600182019150602085019450602081019050611f86565b86831015611fc85784890151611fc4601f891682611ed7565b8355505b6001600288020188555050505b505050505050565b5f608082019050611ff05f830187611399565b611ffd60208301866113a8565b818103604083015261200f81856113ef565b905061201e6060830184611399565b95945050505050565b5f61203182611328565b915061203c83611328565b925082820190508082111561205457612053611c5b565b5b92915050565b7f547765657420686173206e6f206c696b6573204d52204d414e000000000000005f82015250565b5f61208e6019836113c1565b91506120998261205a565b602082019050919050565b5f6020820190508181035f8301526120bb81612082565b9050919050565b5f6120cc82611328565b91505f82036120de576120dd611c5b565b5b60018203905091905056fea264697066735822122093d010d2ba73281e6b13046600c48f2380be56e9afca45ef32c6bebb2d7522d864736f6c634300081a0033",
					"opcodes": "PUSH1 0x80 PUSH1 0x40 MSTORE PUSH2 0x118 PUSH0 PUSH1 0x14 PUSH2 0x100 EXP DUP2 SLOAD DUP2 PUSH2 0xFFFF MUL NOT AND SWAP1 DUP4 PUSH2 0xFFFF AND MUL OR SWAP1 SSTORE POP CALLVALUE DUP1 ISZERO PUSH2 0x2D JUMPI PUSH0 DUP1 REVERT JUMPDEST POP PUSH1 0x40 MLOAD PUSH2 0x23B4 CODESIZE SUB DUP1 PUSH2 0x23B4 DUP4 CODECOPY DUP2 DUP2 ADD PUSH1 0x40 MSTORE DUP2 ADD SWAP1 PUSH2 0x4F SWAP2 SWAP1 PUSH2 0x235 JUMP JUMPDEST CALLER PUSH0 PUSH20 0xFFFFFFFFFFFFFFFFFFFFFFFFFFFFFFFFFFFFFFFF AND DUP2 PUSH20 0xFFFFFFFFFFFFFFFFFFFFFFFFFFFFFFFFFFFFFFFF AND SUB PUSH2 0xC0 JUMPI PUSH0 PUSH1 0x40 MLOAD PUSH32 0x1E4FBDF700000000000000000000000000000000000000000000000000000000 DUP2 MSTORE PUSH1 0x4 ADD PUSH2 0xB7 SWAP2 SWAP1 PUSH2 0x26F JUMP JUMPDEST PUSH1 0x40 MLOAD DUP1 SWAP2 SUB SWAP1 REVERT JUMPDEST PUSH2 0xCF DUP2 PUSH2 0x116 PUSH1 0x20 SHL PUSH1 0x20 SHR JUMP JUMPDEST POP DUP1 PUSH1 0x2 PUSH0 PUSH2 0x100 EXP DUP2 SLOAD DUP2 PUSH20 0xFFFFFFFFFFFFFFFFFFFFFFFFFFFFFFFFFFFFFFFF MUL NOT AND SWAP1 DUP4 PUSH20 0xFFFFFFFFFFFFFFFFFFFFFFFFFFFFFFFFFFFFFFFF AND MUL OR SWAP1 SSTORE POP POP PUSH2 0x288 JUMP JUMPDEST PUSH0 DUP1 PUSH0 SWAP1 SLOAD SWAP1 PUSH2 0x100 EXP SWAP1 DIV PUSH20 0xFFFFFFFFFFFFFFFFFFFFFFFFFFFFFFFFFFFFFFFF AND SWAP1 POP DUP2 PUSH0 DUP1 PUSH2 0x100 EXP DUP2 SLOAD DUP2 PUSH20 0xFFFFFFFFFFFFFFFFFFFFFFFFFFFFFFFFFFFFFFFF MUL NOT AND SWAP1 DUP4 PUSH20 0xFFFFFFFFFFFFFFFFFFFFFFFFFFFFFFFFFFFFFFFF AND MUL OR SWAP1 SSTORE POP DUP2 PUSH20 0xFFFFFFFFFFFFFFFFFFFFFFFFFFFFFFFFFFFFFFFF AND DUP2 PUSH20 0xFFFFFFFFFFFFFFFFFFFFFFFFFFFFFFFFFFFFFFFF AND PUSH32 0x8BE0079C531659141344CD1FD0A4F28419497F9722A3DAAFE3B4186F6B6457E0 PUSH1 0x40 MLOAD PUSH1 0x40 MLOAD DUP1 SWAP2 SUB SWAP1 LOG3 POP POP JUMP JUMPDEST PUSH0 DUP1 REVERT JUMPDEST PUSH0 PUSH20 0xFFFFFFFFFFFFFFFFFFFFFFFFFFFFFFFFFFFFFFFF DUP3 AND SWAP1 POP SWAP2 SWAP1 POP JUMP JUMPDEST PUSH0 PUSH2 0x204 DUP3 PUSH2 0x1DB JUMP JUMPDEST SWAP1 POP SWAP2 SWAP1 POP JUMP JUMPDEST PUSH2 0x214 DUP2 PUSH2 0x1FA JUMP JUMPDEST DUP2 EQ PUSH2 0x21E JUMPI PUSH0 DUP1 REVERT JUMPDEST POP JUMP JUMPDEST PUSH0 DUP2 MLOAD SWAP1 POP PUSH2 0x22F DUP2 PUSH2 0x20B JUMP JUMPDEST SWAP3 SWAP2 POP POP JUMP JUMPDEST PUSH0 PUSH1 0x20 DUP3 DUP5 SUB SLT ISZERO PUSH2 0x24A JUMPI PUSH2 0x249 PUSH2 0x1D7 JUMP JUMPDEST JUMPDEST PUSH0 PUSH2 0x257 DUP5 DUP3 DUP6 ADD PUSH2 0x221 JUMP JUMPDEST SWAP2 POP POP SWAP3 SWAP2 POP POP JUMP JUMPDEST PUSH2 0x269 DUP2 PUSH2 0x1FA JUMP JUMPDEST DUP3 MSTORE POP POP JUMP JUMPDEST PUSH0 PUSH1 0x20 DUP3 ADD SWAP1 POP PUSH2 0x282 PUSH0 DUP4 ADD DUP5 PUSH2 0x260 JUMP JUMPDEST SWAP3 SWAP2 POP POP JUMP JUMPDEST PUSH2 0x211F DUP1 PUSH2 0x295 PUSH0 CODECOPY PUSH0 RETURN INVALID PUSH1 0x80 PUSH1 0x40 MSTORE CALLVALUE DUP1 ISZERO PUSH2 0xF JUMPI PUSH0 DUP1 REVERT JUMPDEST POP PUSH1 0x4 CALLDATASIZE LT PUSH2 0xCD JUMPI PUSH0 CALLDATALOAD PUSH1 0xE0 SHR DUP1 PUSH4 0x7C9CD2BC GT PUSH2 0x8A JUMPI DUP1 PUSH4 0x9EF8633F GT PUSH2 0x64 JUMPI DUP1 PUSH4 0x9EF8633F EQ PUSH2 0x1FF JUMPI DUP1 PUSH4 0xA3974B21 EQ PUSH2 0x21B JUMPI DUP1 PUSH4 0xC3AD5ECB EQ PUSH2 0x239 JUMPI DUP1 PUSH4 0xF2FDE38B EQ PUSH2 0x269 JUMPI PUSH2 0xCD JUMP JUMPDEST DUP1 PUSH4 0x7C9CD2BC EQ PUSH2 0x195 JUMPI DUP1 PUSH4 0x820785CC EQ PUSH2 0x1B1 JUMPI DUP1 PUSH4 0x8DA5CB5B EQ PUSH2 0x1E1 JUMPI PUSH2 0xCD JUMP JUMPDEST DUP1 PUSH4 0x5A1B4A9 EQ PUSH2 0xD1 JUMPI DUP1 PUSH4 0x12E7EE1C EQ PUSH2 0x105 JUMPI DUP1 PUSH4 0x58BFA4AB EQ PUSH2 0x135 JUMPI DUP1 PUSH4 0x63378216 EQ PUSH2 0x151 JUMPI DUP1 PUSH4 0x6EB10797 EQ PUSH2 0x16D JUMPI DUP1 PUSH4 0x715018A6 EQ PUSH2 0x18B JUMPI JUMPDEST PUSH0 DUP1 REVERT JUMPDEST PUSH2 0xEB PUSH1 0x4 DUP1 CALLDATASIZE SUB DUP2 ADD SWAP1 PUSH2 0xE6 SWAP2 SWAP1 PUSH2 0x135B JUMP JUMPDEST PUSH2 0x285 JUMP JUMPDEST PUSH1 0x40 MLOAD PUSH2 0xFC SWAP6 SWAP5 SWAP4 SWAP3 SWAP2 SWAP1 PUSH2 0x1427 JUMP JUMPDEST PUSH1 0x40 MLOAD DUP1 SWAP2 SUB SWAP1 RETURN JUMPDEST PUSH2 0x11F PUSH1 0x4 DUP1 CALLDATASIZE SUB DUP2 ADD SWAP1 PUSH2 0x11A SWAP2 SWAP1 PUSH2 0x147F JUMP JUMPDEST PUSH2 0x376 JUMP JUMPDEST PUSH1 0x40 MLOAD PUSH2 0x12C SWAP2 SWAP1 PUSH2 0x163E JUMP JUMPDEST PUSH1 0x40 MLOAD DUP1 SWAP2 SUB SWAP1 RETURN JUMPDEST PUSH2 0x14F PUSH1 0x4 DUP1 CALLDATASIZE SUB DUP2 ADD SWAP1 PUSH2 0x14A SWAP2 SWAP1 PUSH2 0x1695 JUMP JUMPDEST PUSH2 0x511 JUMP JUMPDEST STOP JUMPDEST PUSH2 0x16B PUSH1 0x4 DUP1 CALLDATASIZE SUB DUP2 ADD SWAP1 PUSH2 0x166 SWAP2 SWAP1 PUSH2 0x135B JUMP JUMPDEST PUSH2 0x538 JUMP JUMPDEST STOP JUMPDEST PUSH2 0x175 PUSH2 0x7CF JUMP JUMPDEST PUSH1 0x40 MLOAD PUSH2 0x182 SWAP2 SWAP1 PUSH2 0x16CF JUMP JUMPDEST PUSH1 0x40 MLOAD DUP1 SWAP2 SUB SWAP1 RETURN JUMPDEST PUSH2 0x193 PUSH2 0x7E2 JUMP JUMPDEST STOP JUMPDEST PUSH2 0x1AF PUSH1 0x4 DUP1 CALLDATASIZE SUB DUP2 ADD SWAP1 PUSH2 0x1AA SWAP2 SWAP1 PUSH2 0x1814 JUMP JUMPDEST PUSH2 0x7F5 JUMP JUMPDEST STOP JUMPDEST PUSH2 0x1CB PUSH1 0x4 DUP1 CALLDATASIZE SUB DUP2 ADD SWAP1 PUSH2 0x1C6 SWAP2 SWAP1 PUSH2 0x147F JUMP JUMPDEST PUSH2 0xAE0 JUMP JUMPDEST PUSH1 0x40 MLOAD PUSH2 0x1D8 SWAP2 SWAP1 PUSH2 0x185B JUMP JUMPDEST PUSH1 0x40 MLOAD DUP1 SWAP2 SUB SWAP1 RETURN JUMPDEST PUSH2 0x1E9 PUSH2 0xBAF JUMP JUMPDEST PUSH1 0x40 MLOAD PUSH2 0x1F6 SWAP2 SWAP1 PUSH2 0x1874 JUMP JUMPDEST PUSH1 0x40 MLOAD DUP1 SWAP2 SUB SWAP1 RETURN JUMPDEST PUSH2 0x219 PUSH1 0x4 DUP1 CALLDATASIZE SUB DUP2 ADD SWAP1 PUSH2 0x214 SWAP2 SWAP1 PUSH2 0x135B JUMP JUMPDEST PUSH2 0xBD6 JUMP JUMPDEST STOP JUMPDEST PUSH2 0x223 PUSH2 0xF0D JUMP JUMPDEST PUSH1 0x40 MLOAD PUSH2 0x230 SWAP2 SWAP1 PUSH2 0x18E8 JUMP JUMPDEST PUSH1 0x40 MLOAD DUP1 SWAP2 SUB SWAP1 RETURN JUMPDEST PUSH2 0x253 PUSH1 0x4 DUP1 CALLDATASIZE SUB DUP2 ADD SWAP1 PUSH2 0x24E SWAP2 SWAP1 PUSH2 0x1901 JUMP JUMPDEST PUSH2 0xF32 JUMP JUMPDEST PUSH1 0x40 MLOAD PUSH2 0x260 SWAP2 SWAP1 PUSH2 0x199F JUMP JUMPDEST PUSH1 0x40 MLOAD DUP1 SWAP2 SUB SWAP1 RETURN JUMPDEST PUSH2 0x283 PUSH1 0x4 DUP1 CALLDATASIZE SUB DUP2 ADD SWAP1 PUSH2 0x27E SWAP2 SWAP1 PUSH2 0x147F JUMP JUMPDEST PUSH2 0x10A9 JUMP JUMPDEST STOP JUMPDEST PUSH1 0x1 PUSH1 0x20 MSTORE DUP2 PUSH0 MSTORE PUSH1 0x40 PUSH0 KECCAK256 DUP2 DUP2 SLOAD DUP2 LT PUSH2 0x29E JUMPI PUSH0 DUP1 REVERT JUMPDEST SWAP1 PUSH0 MSTORE PUSH1 0x20 PUSH0 KECCAK256 SWAP1 PUSH1 0x5 MUL ADD PUSH0 SWAP2 POP SWAP2 POP POP DUP1 PUSH0 ADD SLOAD SWAP1 DUP1 PUSH1 0x1 ADD PUSH0 SWAP1 SLOAD SWAP1 PUSH2 0x100 EXP SWAP1 DIV PUSH20 0xFFFFFFFFFFFFFFFFFFFFFFFFFFFFFFFFFFFFFFFF AND SWAP1 DUP1 PUSH1 0x2 ADD DUP1 SLOAD PUSH2 0x2E9 SWAP1 PUSH2 0x19EC JUMP JUMPDEST DUP1 PUSH1 0x1F ADD PUSH1 0x20 DUP1 SWAP2 DIV MUL PUSH1 0x20 ADD PUSH1 0x40 MLOAD SWAP1 DUP2 ADD PUSH1 0x40 MSTORE DUP1 SWAP3 SWAP2 SWAP1 DUP2 DUP2 MSTORE PUSH1 0x20 ADD DUP3 DUP1 SLOAD PUSH2 0x315 SWAP1 PUSH2 0x19EC JUMP JUMPDEST DUP1 ISZERO PUSH2 0x360 JUMPI DUP1 PUSH1 0x1F LT PUSH2 0x337 JUMPI PUSH2 0x100 DUP1 DUP4 SLOAD DIV MUL DUP4 MSTORE SWAP2 PUSH1 0x20 ADD SWAP2 PUSH2 0x360 JUMP JUMPDEST DUP3 ADD SWAP2 SWAP1 PUSH0 MSTORE PUSH1 0x20 PUSH0 KECCAK256 SWAP1 JUMPDEST DUP2 SLOAD DUP2 MSTORE SWAP1 PUSH1 0x1 ADD SWAP1 PUSH1 0x20 ADD DUP1 DUP4 GT PUSH2 0x343 JUMPI DUP3 SWAP1 SUB PUSH1 0x1F AND DUP3 ADD SWAP2 JUMPDEST POP POP POP POP POP SWAP1 DUP1 PUSH1 0x3 ADD SLOAD SWAP1 DUP1 PUSH1 0x4 ADD SLOAD SWAP1 POP DUP6 JUMP JUMPDEST PUSH1 0x60 PUSH1 0x1 PUSH0 DUP4 PUSH20 0xFFFFFFFFFFFFFFFFFFFFFFFFFFFFFFFFFFFFFFFF AND PUSH20 0xFFFFFFFFFFFFFFFFFFFFFFFFFFFFFFFFFFFFFFFF AND DUP2 MSTORE PUSH1 0x20 ADD SWAP1 DUP2 MSTORE PUSH1 0x20 ADD PUSH0 KECCAK256 DUP1 SLOAD DUP1 PUSH1 0x20 MUL PUSH1 0x20 ADD PUSH1 0x40 MLOAD SWAP1 DUP2 ADD PUSH1 0x40 MSTORE DUP1 SWAP3 SWAP2 SWAP1 DUP2 DUP2 MSTORE PUSH1 0x20 ADD PUSH0 SWAP1 JUMPDEST DUP3 DUP3 LT ISZERO PUSH2 0x506 JUMPI DUP4 DUP3 SWAP1 PUSH0 MSTORE PUSH1 0x20 PUSH0 KECCAK256 SWAP1 PUSH1 0x5 MUL ADD PUSH1 0x40 MLOAD DUP1 PUSH1 0xA0 ADD PUSH1 0x40 MSTORE SWAP1 DUP2 PUSH0 DUP3 ADD SLOAD DUP2 MSTORE PUSH1 0x20 ADD PUSH1 0x1 DUP3 ADD PUSH0 SWAP1 SLOAD SWAP1 PUSH2 0x100 EXP SWAP1 DIV PUSH20 0xFFFFFFFFFFFFFFFFFFFFFFFFFFFFFFFFFFFFFFFF AND PUSH20 0xFFFFFFFFFFFFFFFFFFFFFFFFFFFFFFFFFFFFFFFF AND PUSH20 0xFFFFFFFFFFFFFFFFFFFFFFFFFFFFFFFFFFFFFFFF AND DUP2 MSTORE PUSH1 0x20 ADD PUSH1 0x2 DUP3 ADD DUP1 SLOAD PUSH2 0x463 SWAP1 PUSH2 0x19EC JUMP JUMPDEST DUP1 PUSH1 0x1F ADD PUSH1 0x20 DUP1 SWAP2 DIV MUL PUSH1 0x20 ADD PUSH1 0x40 MLOAD SWAP1 DUP2 ADD PUSH1 0x40 MSTORE DUP1 SWAP3 SWAP2 SWAP1 DUP2 DUP2 MSTORE PUSH1 0x20 ADD DUP3 DUP1 SLOAD PUSH2 0x48F SWAP1 PUSH2 0x19EC JUMP JUMPDEST DUP1 ISZERO PUSH2 0x4DA JUMPI DUP1 PUSH1 0x1F LT PUSH2 0x4B1 JUMPI PUSH2 0x100 DUP1 DUP4 SLOAD DIV MUL DUP4 MSTORE SWAP2 PUSH1 0x20 ADD SWAP2 PUSH2 0x4DA JUMP JUMPDEST DUP3 ADD SWAP2 SWAP1 PUSH0 MSTORE PUSH1 0x20 PUSH0 KECCAK256 SWAP1 JUMPDEST DUP2 SLOAD DUP2 MSTORE SWAP1 PUSH1 0x1 ADD SWAP1 PUSH1 0x20 ADD DUP1 DUP4 GT PUSH2 0x4BD JUMPI DUP3 SWAP1 SUB PUSH1 0x1F AND DUP3 ADD SWAP2 JUMPDEST POP POP POP POP POP DUP2 MSTORE PUSH1 0x20 ADD PUSH1 0x3 DUP3 ADD SLOAD DUP2 MSTORE PUSH1 0x20 ADD PUSH1 0x4 DUP3 ADD SLOAD DUP2 MSTORE POP POP DUP2 MSTORE PUSH1 0x20 ADD SWAP1 PUSH1 0x1 ADD SWAP1 PUSH2 0x3D4 JUMP JUMPDEST POP POP POP POP SWAP1 POP SWAP2 SWAP1 POP JUMP JUMPDEST PUSH2 0x519 PUSH2 0x112D JUMP JUMPDEST DUP1 PUSH0 PUSH1 0x14 PUSH2 0x100 EXP DUP2 SLOAD DUP2 PUSH2 0xFFFF MUL NOT AND SWAP1 DUP4 PUSH2 0xFFFF AND MUL OR SWAP1 SSTORE POP POP JUMP JUMPDEST PUSH0 PUSH1 0x2 PUSH0 SWAP1 SLOAD SWAP1 PUSH2 0x100 EXP SWAP1 DIV PUSH20 0xFFFFFFFFFFFFFFFFFFFFFFFFFFFFFFFFFFFFFFFF AND PUSH20 0xFFFFFFFFFFFFFFFFFFFFFFFFFFFFFFFFFFFFFFFF AND PUSH4 0xF53A470 CALLER PUSH1 0x40 MLOAD DUP3 PUSH4 0xFFFFFFFF AND PUSH1 0xE0 SHL DUP2 MSTORE PUSH1 0x4 ADD PUSH2 0x593 SWAP2 SWAP1 PUSH2 0x1874 JUMP JUMPDEST PUSH0 PUSH1 0x40 MLOAD DUP1 DUP4 SUB DUP2 DUP7 GAS STATICCALL ISZERO DUP1 ISZERO PUSH2 0x5AD JUMPI RETURNDATASIZE PUSH0 DUP1 RETURNDATACOPY RETURNDATASIZE PUSH0 REVERT JUMPDEST POP POP POP POP PUSH1 0x40 MLOAD RETURNDATASIZE PUSH0 DUP3 RETURNDATACOPY RETURNDATASIZE PUSH1 0x1F NOT PUSH1 0x1F DUP3 ADD AND DUP3 ADD DUP1 PUSH1 0x40 MSTORE POP DUP2 ADD SWAP1 PUSH2 0x5D5 SWAP2 SWAP1 PUSH2 0x1B17 JUMP JUMPDEST SWAP1 POP PUSH0 DUP2 PUSH0 ADD MLOAD MLOAD GT PUSH2 0x61D JUMPI PUSH1 0x40 MLOAD PUSH32 0x8C379A000000000000000000000000000000000000000000000000000000000 DUP2 MSTORE PUSH1 0x4 ADD PUSH2 0x614 SWAP1 PUSH2 0x1BA8 JUMP JUMPDEST PUSH1 0x40 MLOAD DUP1 SWAP2 SUB SWAP1 REVERT JUMPDEST DUP2 PUSH1 0x1 PUSH0 DUP6 PUSH20 0xFFFFFFFFFFFFFFFFFFFFFFFFFFFFFFFFFFFFFFFF AND PUSH20 0xFFFFFFFFFFFFFFFFFFFFFFFFFFFFFFFFFFFFFFFF AND DUP2 MSTORE PUSH1 0x20 ADD SWAP1 DUP2 MSTORE PUSH1 0x20 ADD PUSH0 KECCAK256 DUP4 DUP2 SLOAD DUP2 LT PUSH2 0x66D JUMPI PUSH2 0x66C PUSH2 0x1BC6 JUMP JUMPDEST JUMPDEST SWAP1 PUSH0 MSTORE PUSH1 0x20 PUSH0 KECCAK256 SWAP1 PUSH1 0x5 MUL ADD PUSH0 ADD SLOAD EQ PUSH2 0x6BC JUMPI PUSH1 0x40 MLOAD PUSH32 0x8C379A000000000000000000000000000000000000000000000000000000000 DUP2 MSTORE PUSH1 0x4 ADD PUSH2 0x6B3 SWAP1 PUSH2 0x1C3D JUMP JUMPDEST PUSH1 0x40 MLOAD DUP1 SWAP2 SUB SWAP1 REVERT JUMPDEST PUSH1 0x1 PUSH0 DUP5 PUSH20 0xFFFFFFFFFFFFFFFFFFFFFFFFFFFFFFFFFFFFFFFF AND PUSH20 0xFFFFFFFFFFFFFFFFFFFFFFFFFFFFFFFFFFFFFFFF AND DUP2 MSTORE PUSH1 0x20 ADD SWAP1 DUP2 MSTORE PUSH1 0x20 ADD PUSH0 KECCAK256 DUP3 DUP2 SLOAD DUP2 LT PUSH2 0x70B JUMPI PUSH2 0x70A PUSH2 0x1BC6 JUMP JUMPDEST JUMPDEST SWAP1 PUSH0 MSTORE PUSH1 0x20 PUSH0 KECCAK256 SWAP1 PUSH1 0x5 MUL ADD PUSH1 0x4 ADD PUSH0 DUP2 SLOAD DUP1 SWAP3 SWAP2 SWAP1 PUSH2 0x72A SWAP1 PUSH2 0x1C88 JUMP JUMPDEST SWAP2 SWAP1 POP SSTORE POP PUSH32 0xE8A76FC0F16D11A00D1E93B689B63D76CF60AF914DD3D915375DC41D01A0C3C8 CALLER DUP5 DUP5 PUSH1 0x1 PUSH0 DUP9 PUSH20 0xFFFFFFFFFFFFFFFFFFFFFFFFFFFFFFFFFFFFFFFF AND PUSH20 0xFFFFFFFFFFFFFFFFFFFFFFFFFFFFFFFFFFFFFFFF AND DUP2 MSTORE PUSH1 0x20 ADD SWAP1 DUP2 MSTORE PUSH1 0x20 ADD PUSH0 KECCAK256 DUP7 DUP2 SLOAD DUP2 LT PUSH2 0x7A2 JUMPI PUSH2 0x7A1 PUSH2 0x1BC6 JUMP JUMPDEST JUMPDEST SWAP1 PUSH0 MSTORE PUSH1 0x20 PUSH0 KECCAK256 SWAP1 PUSH1 0x5 MUL ADD PUSH1 0x4 ADD SLOAD PUSH1 0x40 MLOAD PUSH2 0x7C2 SWAP5 SWAP4 SWAP3 SWAP2 SWAP1 PUSH2 0x1CCF JUMP JUMPDEST PUSH1 0x40 MLOAD DUP1 SWAP2 SUB SWAP1 LOG1 POP POP POP JUMP JUMPDEST PUSH0 PUSH1 0x14 SWAP1 SLOAD SWAP1 PUSH2 0x100 EXP SWAP1 DIV PUSH2 0xFFFF AND DUP2 JUMP JUMPDEST PUSH2 0x7EA PUSH2 0x112D JUMP JUMPDEST PUSH2 0x7F3 PUSH0 PUSH2 0x11B4 JUMP JUMPDEST JUMP JUMPDEST PUSH0 PUSH1 0x2 PUSH0 SWAP1 SLOAD SWAP1 PUSH2 0x100 EXP SWAP1 DIV PUSH20 0xFFFFFFFFFFFFFFFFFFFFFFFFFFFFFFFFFFFFFFFF AND PUSH20 0xFFFFFFFFFFFFFFFFFFFFFFFFFFFFFFFFFFFFFFFF AND PUSH4 0xF53A470 CALLER PUSH1 0x40 MLOAD DUP3 PUSH4 0xFFFFFFFF AND PUSH1 0xE0 SHL DUP2 MSTORE PUSH1 0x4 ADD PUSH2 0x850 SWAP2 SWAP1 PUSH2 0x1874 JUMP JUMPDEST PUSH0 PUSH1 0x40 MLOAD DUP1 DUP4 SUB DUP2 DUP7 GAS STATICCALL ISZERO DUP1 ISZERO PUSH2 0x86A JUMPI RETURNDATASIZE PUSH0 DUP1 RETURNDATACOPY RETURNDATASIZE PUSH0 REVERT JUMPDEST POP POP POP POP PUSH1 0x40 MLOAD RETURNDATASIZE PUSH0 DUP3 RETURNDATACOPY RETURNDATASIZE PUSH1 0x1F NOT PUSH1 0x1F DUP3 ADD AND DUP3 ADD DUP1 PUSH1 0x40 MSTORE POP DUP2 ADD SWAP1 PUSH2 0x892 SWAP2 SWAP1 PUSH2 0x1B17 JUMP JUMPDEST SWAP1 POP PUSH0 DUP2 PUSH0 ADD MLOAD MLOAD GT PUSH2 0x8DA JUMPI PUSH1 0x40 MLOAD PUSH32 0x8C379A000000000000000000000000000000000000000000000000000000000 DUP2 MSTORE PUSH1 0x4 ADD PUSH2 0x8D1 SWAP1 PUSH2 0x1BA8 JUMP JUMPDEST PUSH1 0x40 MLOAD DUP1 SWAP2 SUB SWAP1 REVERT JUMPDEST PUSH0 PUSH1 0x14 SWAP1 SLOAD SWAP1 PUSH2 0x100 EXP SWAP1 DIV PUSH2 0xFFFF AND PUSH2 0xFFFF AND DUP3 MLOAD GT ISZERO PUSH2 0x931 JUMPI PUSH1 0x40 MLOAD PUSH32 0x8C379A000000000000000000000000000000000000000000000000000000000 DUP2 MSTORE PUSH1 0x4 ADD PUSH2 0x928 SWAP1 PUSH2 0x1D5C JUMP JUMPDEST PUSH1 0x40 MLOAD DUP1 SWAP2 SUB SWAP1 REVERT JUMPDEST PUSH0 PUSH1 0x40 MLOAD DUP1 PUSH1 0xA0 ADD PUSH1 0x40 MSTORE DUP1 PUSH1 0x1 PUSH0 CALLER PUSH20 0xFFFFFFFFFFFFFFFFFFFFFFFFFFFFFFFFFFFFFFFF AND PUSH20 0xFFFFFFFFFFFFFFFFFFFFFFFFFFFFFFFFFFFFFFFF AND DUP2 MSTORE PUSH1 0x20 ADD SWAP1 DUP2 MSTORE PUSH1 0x20 ADD PUSH0 KECCAK256 DUP1 SLOAD SWAP1 POP DUP2 MSTORE PUSH1 0x20 ADD CALLER PUSH20 0xFFFFFFFFFFFFFFFFFFFFFFFFFFFFFFFFFFFFFFFF AND DUP2 MSTORE PUSH1 0x20 ADD DUP5 DUP2 MSTORE PUSH1 0x20 ADD TIMESTAMP DUP2 MSTORE PUSH1 0x20 ADD PUSH0 DUP2 MSTORE POP SWAP1 POP PUSH1 0x1 PUSH0 CALLER PUSH20 0xFFFFFFFFFFFFFFFFFFFFFFFFFFFFFFFFFFFFFFFF AND PUSH20 0xFFFFFFFFFFFFFFFFFFFFFFFFFFFFFFFFFFFFFFFF AND DUP2 MSTORE PUSH1 0x20 ADD SWAP1 DUP2 MSTORE PUSH1 0x20 ADD PUSH0 KECCAK256 DUP2 SWAP1 DUP1 PUSH1 0x1 DUP2 SLOAD ADD DUP1 DUP3 SSTORE DUP1 SWAP2 POP POP PUSH1 0x1 SWAP1 SUB SWAP1 PUSH0 MSTORE PUSH1 0x20 PUSH0 KECCAK256 SWAP1 PUSH1 0x5 MUL ADD PUSH0 SWAP1 SWAP2 SWAP1 SWAP2 SWAP1 SWAP2 POP PUSH0 DUP3 ADD MLOAD DUP2 PUSH0 ADD SSTORE PUSH1 0x20 DUP3 ADD MLOAD DUP2 PUSH1 0x1 ADD PUSH0 PUSH2 0x100 EXP DUP2 SLOAD DUP2 PUSH20 0xFFFFFFFFFFFFFFFFFFFFFFFFFFFFFFFFFFFFFFFF MUL NOT AND SWAP1 DUP4 PUSH20 0xFFFFFFFFFFFFFFFFFFFFFFFFFFFFFFFFFFFFFFFF AND MUL OR SWAP1 SSTORE POP PUSH1 0x40 DUP3 ADD MLOAD DUP2 PUSH1 0x2 ADD SWAP1 DUP2 PUSH2 0xA78 SWAP2 SWAP1 PUSH2 0x1F0E JUMP JUMPDEST POP PUSH1 0x60 DUP3 ADD MLOAD DUP2 PUSH1 0x3 ADD SSTORE PUSH1 0x80 DUP3 ADD MLOAD DUP2 PUSH1 0x4 ADD SSTORE POP POP PUSH32 0x16FD3C13E9D46923E0A8BCE11C7B473EC508A72E6C96CD2404B29CE972AFC29E DUP2 PUSH0 ADD MLOAD DUP3 PUSH1 0x20 ADD MLOAD DUP4 PUSH1 0x40 ADD MLOAD DUP5 PUSH1 0x60 ADD MLOAD PUSH1 0x40 MLOAD PUSH2 0xAD3 SWAP5 SWAP4 SWAP3 SWAP2 SWAP1 PUSH2 0x1FDD JUMP JUMPDEST PUSH1 0x40 MLOAD DUP1 SWAP2 SUB SWAP1 LOG1 POP POP POP JUMP JUMPDEST PUSH0 DUP1 PUSH0 JUMPDEST PUSH1 0x1 PUSH0 DUP6 PUSH20 0xFFFFFFFFFFFFFFFFFFFFFFFFFFFFFFFFFFFFFFFF AND PUSH20 0xFFFFFFFFFFFFFFFFFFFFFFFFFFFFFFFFFFFFFFFF AND DUP2 MSTORE PUSH1 0x20 ADD SWAP1 DUP2 MSTORE PUSH1 0x20 ADD PUSH0 KECCAK256 DUP1 SLOAD SWAP1 POP DUP2 LT ISZERO PUSH2 0xBA5 JUMPI PUSH1 0x1 PUSH0 DUP6 PUSH20 0xFFFFFFFFFFFFFFFFFFFFFFFFFFFFFFFFFFFFFFFF AND PUSH20 0xFFFFFFFFFFFFFFFFFFFFFFFFFFFFFFFFFFFFFFFF AND DUP2 MSTORE PUSH1 0x20 ADD SWAP1 DUP2 MSTORE PUSH1 0x20 ADD PUSH0 KECCAK256 DUP2 DUP2 SLOAD DUP2 LT PUSH2 0xB7B JUMPI PUSH2 0xB7A PUSH2 0x1BC6 JUMP JUMPDEST JUMPDEST SWAP1 PUSH0 MSTORE PUSH1 0x20 PUSH0 KECCAK256 SWAP1 PUSH1 0x5 MUL ADD PUSH1 0x4 ADD SLOAD DUP3 PUSH2 0xB96 SWAP2 SWAP1 PUSH2 0x2027 JUMP JUMPDEST SWAP2 POP DUP1 DUP1 PUSH1 0x1 ADD SWAP2 POP POP PUSH2 0xAE4 JUMP JUMPDEST POP DUP1 SWAP2 POP POP SWAP2 SWAP1 POP JUMP JUMPDEST PUSH0 DUP1 PUSH0 SWAP1 SLOAD SWAP1 PUSH2 0x100 EXP SWAP1 DIV PUSH20 0xFFFFFFFFFFFFFFFFFFFFFFFFFFFFFFFFFFFFFFFF AND SWAP1 POP SWAP1 JUMP JUMPDEST PUSH0 PUSH1 0x2 PUSH0 SWAP1 SLOAD SWAP1 PUSH2 0x100 EXP SWAP1 DIV PUSH20 0xFFFFFFFFFFFFFFFFFFFFFFFFFFFFFFFFFFFFFFFF AND PUSH20 0xFFFFFFFFFFFFFFFFFFFFFFFFFFFFFFFFFFFFFFFF AND PUSH4 0xF53A470 CALLER PUSH1 0x40 MLOAD DUP3 PUSH4 0xFFFFFFFF AND PUSH1 0xE0 SHL DUP2 MSTORE PUSH1 0x4 ADD PUSH2 0xC31 SWAP2 SWAP1 PUSH2 0x1874 JUMP JUMPDEST PUSH0 PUSH1 0x40 MLOAD DUP1 DUP4 SUB DUP2 DUP7 GAS STATICCALL ISZERO DUP1 ISZERO PUSH2 0xC4B JUMPI RETURNDATASIZE PUSH0 DUP1 RETURNDATACOPY RETURNDATASIZE PUSH0 REVERT JUMPDEST POP POP POP POP PUSH1 0x40 MLOAD RETURNDATASIZE PUSH0 DUP3 RETURNDATACOPY RETURNDATASIZE PUSH1 0x1F NOT PUSH1 0x1F DUP3 ADD AND DUP3 ADD DUP1 PUSH1 0x40 MSTORE POP DUP2 ADD SWAP1 PUSH2 0xC73 SWAP2 SWAP1 PUSH2 0x1B17 JUMP JUMPDEST SWAP1 POP PUSH0 DUP2 PUSH0 ADD MLOAD MLOAD GT PUSH2 0xCBB JUMPI PUSH1 0x40 MLOAD PUSH32 0x8C379A000000000000000000000000000000000000000000000000000000000 DUP2 MSTORE PUSH1 0x4 ADD PUSH2 0xCB2 SWAP1 PUSH2 0x1BA8 JUMP JUMPDEST PUSH1 0x40 MLOAD DUP1 SWAP2 SUB SWAP1 REVERT JUMPDEST DUP2 PUSH1 0x1 PUSH0 DUP6 PUSH20 0xFFFFFFFFFFFFFFFFFFFFFFFFFFFFFFFFFFFFFFFF AND PUSH20 0xFFFFFFFFFFFFFFFFFFFFFFFFFFFFFFFFFFFFFFFF AND DUP2 MSTORE PUSH1 0x20 ADD SWAP1 DUP2 MSTORE PUSH1 0x20 ADD PUSH0 KECCAK256 DUP4 DUP2 SLOAD DUP2 LT PUSH2 0xD0B JUMPI PUSH2 0xD0A PUSH2 0x1BC6 JUMP JUMPDEST JUMPDEST SWAP1 PUSH0 MSTORE PUSH1 0x20 PUSH0 KECCAK256 SWAP1 PUSH1 0x5 MUL ADD PUSH0 ADD SLOAD EQ PUSH2 0xD5A JUMPI PUSH1 0x40 MLOAD PUSH32 0x8C379A000000000000000000000000000000000000000000000000000000000 DUP2 MSTORE PUSH1 0x4 ADD PUSH2 0xD51 SWAP1 PUSH2 0x1C3D JUMP JUMPDEST PUSH1 0x40 MLOAD DUP1 SWAP2 SUB SWAP1 REVERT JUMPDEST PUSH0 PUSH1 0x1 PUSH0 DUP6 PUSH20 0xFFFFFFFFFFFFFFFFFFFFFFFFFFFFFFFFFFFFFFFF AND PUSH20 0xFFFFFFFFFFFFFFFFFFFFFFFFFFFFFFFFFFFFFFFF AND DUP2 MSTORE PUSH1 0x20 ADD SWAP1 DUP2 MSTORE PUSH1 0x20 ADD PUSH0 KECCAK256 DUP4 DUP2 SLOAD DUP2 LT PUSH2 0xDAA JUMPI PUSH2 0xDA9 PUSH2 0x1BC6 JUMP JUMPDEST JUMPDEST SWAP1 PUSH0 MSTORE PUSH1 0x20 PUSH0 KECCAK256 SWAP1 PUSH1 0x5 MUL ADD PUSH1 0x4 ADD SLOAD GT PUSH2 0xDFA JUMPI PUSH1 0x40 MLOAD PUSH32 0x8C379A000000000000000000000000000000000000000000000000000000000 DUP2 MSTORE PUSH1 0x4 ADD PUSH2 0xDF1 SWAP1 PUSH2 0x20A4 JUMP JUMPDEST PUSH1 0x40 MLOAD DUP1 SWAP2 SUB SWAP1 REVERT JUMPDEST PUSH1 0x1 PUSH0 DUP5 PUSH20 0xFFFFFFFFFFFFFFFFFFFFFFFFFFFFFFFFFFFFFFFF AND PUSH20 0xFFFFFFFFFFFFFFFFFFFFFFFFFFFFFFFFFFFFFFFF AND DUP2 MSTORE PUSH1 0x20 ADD SWAP1 DUP2 MSTORE PUSH1 0x20 ADD PUSH0 KECCAK256 DUP3 DUP2 SLOAD DUP2 LT PUSH2 0xE49 JUMPI PUSH2 0xE48 PUSH2 0x1BC6 JUMP JUMPDEST JUMPDEST SWAP1 PUSH0 MSTORE PUSH1 0x20 PUSH0 KECCAK256 SWAP1 PUSH1 0x5 MUL ADD PUSH1 0x4 ADD PUSH0 DUP2 SLOAD DUP1 SWAP3 SWAP2 SWAP1 PUSH2 0xE68 SWAP1 PUSH2 0x20C2 JUMP JUMPDEST SWAP2 SWAP1 POP SSTORE POP PUSH32 0x273883C252143C4ABCE776697615E41CA9BC1AAC5968C585D1C8BA8FFAA8B3C1 CALLER DUP5 DUP5 PUSH1 0x1 PUSH0 DUP9 PUSH20 0xFFFFFFFFFFFFFFFFFFFFFFFFFFFFFFFFFFFFFFFF AND PUSH20 0xFFFFFFFFFFFFFFFFFFFFFFFFFFFFFFFFFFFFFFFF AND DUP2 MSTORE PUSH1 0x20 ADD SWAP1 DUP2 MSTORE PUSH1 0x20 ADD PUSH0 KECCAK256 DUP7 DUP2 SLOAD DUP2 LT PUSH2 0xEE0 JUMPI PUSH2 0xEDF PUSH2 0x1BC6 JUMP JUMPDEST JUMPDEST SWAP1 PUSH0 MSTORE PUSH1 0x20 PUSH0 KECCAK256 SWAP1 PUSH1 0x5 MUL ADD PUSH1 0x4 ADD SLOAD PUSH1 0x40 MLOAD PUSH2 0xF00 SWAP5 SWAP4 SWAP3 SWAP2 SWAP1 PUSH2 0x1CCF JUMP JUMPDEST PUSH1 0x40 MLOAD DUP1 SWAP2 SUB SWAP1 LOG1 POP POP POP JUMP JUMPDEST PUSH1 0x2 PUSH0 SWAP1 SLOAD SWAP1 PUSH2 0x100 EXP SWAP1 DIV PUSH20 0xFFFFFFFFFFFFFFFFFFFFFFFFFFFFFFFFFFFFFFFF AND DUP2 JUMP JUMPDEST PUSH2 0xF3A PUSH2 0x127C JUMP JUMPDEST PUSH1 0x1 PUSH0 CALLER PUSH20 0xFFFFFFFFFFFFFFFFFFFFFFFFFFFFFFFFFFFFFFFF AND PUSH20 0xFFFFFFFFFFFFFFFFFFFFFFFFFFFFFFFFFFFFFFFF AND DUP2 MSTORE PUSH1 0x20 ADD SWAP1 DUP2 MSTORE PUSH1 0x20 ADD PUSH0 KECCAK256 DUP3 DUP2 SLOAD DUP2 LT PUSH2 0xF89 JUMPI PUSH2 0xF88 PUSH2 0x1BC6 JUMP JUMPDEST JUMPDEST SWAP1 PUSH0 MSTORE PUSH1 0x20 PUSH0 KECCAK256 SWAP1 PUSH1 0x5 MUL ADD PUSH1 0x40 MLOAD DUP1 PUSH1 0xA0 ADD PUSH1 0x40 MSTORE SWAP1 DUP2 PUSH0 DUP3 ADD SLOAD DUP2 MSTORE PUSH1 0x20 ADD PUSH1 0x1 DUP3 ADD PUSH0 SWAP1 SLOAD SWAP1 PUSH2 0x100 EXP SWAP1 DIV PUSH20 0xFFFFFFFFFFFFFFFFFFFFFFFFFFFFFFFFFFFFFFFF AND PUSH20 0xFFFFFFFFFFFFFFFFFFFFFFFFFFFFFFFFFFFFFFFF AND PUSH20 0xFFFFFFFFFFFFFFFFFFFFFFFFFFFFFFFFFFFFFFFF AND DUP2 MSTORE PUSH1 0x20 ADD PUSH1 0x2 DUP3 ADD DUP1 SLOAD PUSH2 0x100E SWAP1 PUSH2 0x19EC JUMP JUMPDEST DUP1 PUSH1 0x1F ADD PUSH1 0x20 DUP1 SWAP2 DIV MUL PUSH1 0x20 ADD PUSH1 0x40 MLOAD SWAP1 DUP2 ADD PUSH1 0x40 MSTORE DUP1 SWAP3 SWAP2 SWAP1 DUP2 DUP2 MSTORE PUSH1 0x20 ADD DUP3 DUP1 SLOAD PUSH2 0x103A SWAP1 PUSH2 0x19EC JUMP JUMPDEST DUP1 ISZERO PUSH2 0x1085 JUMPI DUP1 PUSH1 0x1F LT PUSH2 0x105C JUMPI PUSH2 0x100 DUP1 DUP4 SLOAD DIV MUL DUP4 MSTORE SWAP2 PUSH1 0x20 ADD SWAP2 PUSH2 0x1085 JUMP JUMPDEST DUP3 ADD SWAP2 SWAP1 PUSH0 MSTORE PUSH1 0x20 PUSH0 KECCAK256 SWAP1 JUMPDEST DUP2 SLOAD DUP2 MSTORE SWAP1 PUSH1 0x1 ADD SWAP1 PUSH1 0x20 ADD DUP1 DUP4 GT PUSH2 0x1068 JUMPI DUP3 SWAP1 SUB PUSH1 0x1F AND DUP3 ADD SWAP2 JUMPDEST POP POP POP POP POP DUP2 MSTORE PUSH1 0x20 ADD PUSH1 0x3 DUP3 ADD SLOAD DUP2 MSTORE PUSH1 0x20 ADD PUSH1 0x4 DUP3 ADD SLOAD DUP2 MSTORE POP POP SWAP1 POP SWAP2 SWAP1 POP JUMP JUMPDEST PUSH2 0x10B1 PUSH2 0x112D JUMP JUMPDEST PUSH0 PUSH20 0xFFFFFFFFFFFFFFFFFFFFFFFFFFFFFFFFFFFFFFFF AND DUP2 PUSH20 0xFFFFFFFFFFFFFFFFFFFFFFFFFFFFFFFFFFFFFFFF AND SUB PUSH2 0x1121 JUMPI PUSH0 PUSH1 0x40 MLOAD PUSH32 0x1E4FBDF700000000000000000000000000000000000000000000000000000000 DUP2 MSTORE PUSH1 0x4 ADD PUSH2 0x1118 SWAP2 SWAP1 PUSH2 0x1874 JUMP JUMPDEST PUSH1 0x40 MLOAD DUP1 SWAP2 SUB SWAP1 REVERT JUMPDEST PUSH2 0x112A DUP2 PUSH2 0x11B4 JUMP JUMPDEST POP JUMP JUMPDEST PUSH2 0x1135 PUSH2 0x1275 JUMP JUMPDEST PUSH20 0xFFFFFFFFFFFFFFFFFFFFFFFFFFFFFFFFFFFFFFFF AND PUSH2 0x1153 PUSH2 0xBAF JUMP JUMPDEST PUSH20 0xFFFFFFFFFFFFFFFFFFFFFFFFFFFFFFFFFFFFFFFF AND EQ PUSH2 0x11B2 JUMPI PUSH2 0x1176 PUSH2 0x1275 JUMP JUMPDEST PUSH1 0x40 MLOAD PUSH32 0x118CDAA700000000000000000000000000000000000000000000000000000000 DUP2 MSTORE PUSH1 0x4 ADD PUSH2 0x11A9 SWAP2 SWAP1 PUSH2 0x1874 JUMP JUMPDEST PUSH1 0x40 MLOAD DUP1 SWAP2 SUB SWAP1 REVERT JUMPDEST JUMP JUMPDEST PUSH0 DUP1 PUSH0 SWAP1 SLOAD SWAP1 PUSH2 0x100 EXP SWAP1 DIV PUSH20 0xFFFFFFFFFFFFFFFFFFFFFFFFFFFFFFFFFFFFFFFF AND SWAP1 POP DUP2 PUSH0 DUP1 PUSH2 0x100 EXP DUP2 SLOAD DUP2 PUSH20 0xFFFFFFFFFFFFFFFFFFFFFFFFFFFFFFFFFFFFFFFF MUL NOT AND SWAP1 DUP4 PUSH20 0xFFFFFFFFFFFFFFFFFFFFFFFFFFFFFFFFFFFFFFFF AND MUL OR SWAP1 SSTORE POP DUP2 PUSH20 0xFFFFFFFFFFFFFFFFFFFFFFFFFFFFFFFFFFFFFFFF AND DUP2 PUSH20 0xFFFFFFFFFFFFFFFFFFFFFFFFFFFFFFFFFFFFFFFF AND PUSH32 0x8BE0079C531659141344CD1FD0A4F28419497F9722A3DAAFE3B4186F6B6457E0 PUSH1 0x40 MLOAD PUSH1 0x40 MLOAD DUP1 SWAP2 SUB SWAP1 LOG3 POP POP JUMP JUMPDEST PUSH0 CALLER SWAP1 POP SWAP1 JUMP JUMPDEST PUSH1 0x40 MLOAD DUP1 PUSH1 0xA0 ADD PUSH1 0x40 MSTORE DUP1 PUSH0 DUP2 MSTORE PUSH1 0x20 ADD PUSH0 PUSH20 0xFFFFFFFFFFFFFFFFFFFFFFFFFFFFFFFFFFFFFFFF AND DUP2 MSTORE PUSH1 0x20 ADD PUSH1 0x60 DUP2 MSTORE PUSH1 0x20 ADD PUSH0 DUP2 MSTORE PUSH1 0x20 ADD PUSH0 DUP2 MSTORE POP SWAP1 JUMP JUMPDEST PUSH0 PUSH1 0x40 MLOAD SWAP1 POP SWAP1 JUMP JUMPDEST PUSH0 DUP1 REVERT JUMPDEST PUSH0 DUP1 REVERT JUMPDEST PUSH0 PUSH20 0xFFFFFFFFFFFFFFFFFFFFFFFFFFFFFFFFFFFFFFFF DUP3 AND SWAP1 POP SWAP2 SWAP1 POP JUMP JUMPDEST PUSH0 PUSH2 0x12F7 DUP3 PUSH2 0x12CE JUMP JUMPDEST SWAP1 POP SWAP2 SWAP1 POP JUMP JUMPDEST PUSH2 0x1307 DUP2 PUSH2 0x12ED JUMP JUMPDEST DUP2 EQ PUSH2 0x1311 JUMPI PUSH0 DUP1 REVERT JUMPDEST POP JUMP JUMPDEST PUSH0 DUP2 CALLDATALOAD SWAP1 POP PUSH2 0x1322 DUP2 PUSH2 0x12FE JUMP JUMPDEST SWAP3 SWAP2 POP POP JUMP JUMPDEST PUSH0 DUP2 SWAP1 POP SWAP2 SWAP1 POP JUMP JUMPDEST PUSH2 0x133A DUP2 PUSH2 0x1328 JUMP JUMPDEST DUP2 EQ PUSH2 0x1344 JUMPI PUSH0 DUP1 REVERT JUMPDEST POP JUMP JUMPDEST PUSH0 DUP2 CALLDATALOAD SWAP1 POP PUSH2 0x1355 DUP2 PUSH2 0x1331 JUMP JUMPDEST SWAP3 SWAP2 POP POP JUMP JUMPDEST PUSH0 DUP1 PUSH1 0x40 DUP4 DUP6 SUB SLT ISZERO PUSH2 0x1371 JUMPI PUSH2 0x1370 PUSH2 0x12C6 JUMP JUMPDEST JUMPDEST PUSH0 PUSH2 0x137E DUP6 DUP3 DUP7 ADD PUSH2 0x1314 JUMP JUMPDEST SWAP3 POP POP PUSH1 0x20 PUSH2 0x138F DUP6 DUP3 DUP7 ADD PUSH2 0x1347 JUMP JUMPDEST SWAP2 POP POP SWAP3 POP SWAP3 SWAP1 POP JUMP JUMPDEST PUSH2 0x13A2 DUP2 PUSH2 0x1328 JUMP JUMPDEST DUP3 MSTORE POP POP JUMP JUMPDEST PUSH2 0x13B1 DUP2 PUSH2 0x12ED JUMP JUMPDEST DUP3 MSTORE POP POP JUMP JUMPDEST PUSH0 DUP2 MLOAD SWAP1 POP SWAP2 SWAP1 POP JUMP JUMPDEST PUSH0 DUP3 DUP3 MSTORE PUSH1 0x20 DUP3 ADD SWAP1 POP SWAP3 SWAP2 POP POP JUMP JUMPDEST DUP3 DUP2 DUP4 MCOPY PUSH0 DUP4 DUP4 ADD MSTORE POP POP POP JUMP JUMPDEST PUSH0 PUSH1 0x1F NOT PUSH1 0x1F DUP4 ADD AND SWAP1 POP SWAP2 SWAP1 POP JUMP JUMPDEST PUSH0 PUSH2 0x13F9 DUP3 PUSH2 0x13B7 JUMP JUMPDEST PUSH2 0x1403 DUP2 DUP6 PUSH2 0x13C1 JUMP JUMPDEST SWAP4 POP PUSH2 0x1413 DUP2 DUP6 PUSH1 0x20 DUP7 ADD PUSH2 0x13D1 JUMP JUMPDEST PUSH2 0x141C DUP2 PUSH2 0x13DF JUMP JUMPDEST DUP5 ADD SWAP2 POP POP SWAP3 SWAP2 POP POP JUMP JUMPDEST PUSH0 PUSH1 0xA0 DUP3 ADD SWAP1 POP PUSH2 0x143A PUSH0 DUP4 ADD DUP9 PUSH2 0x1399 JUMP JUMPDEST PUSH2 0x1447 PUSH1 0x20 DUP4 ADD DUP8 PUSH2 0x13A8 JUMP JUMPDEST DUP2 DUP2 SUB PUSH1 0x40 DUP4 ADD MSTORE PUSH2 0x1459 DUP2 DUP7 PUSH2 0x13EF JUMP JUMPDEST SWAP1 POP PUSH2 0x1468 PUSH1 0x60 DUP4 ADD DUP6 PUSH2 0x1399 JUMP JUMPDEST PUSH2 0x1475 PUSH1 0x80 DUP4 ADD DUP5 PUSH2 0x1399 JUMP JUMPDEST SWAP7 SWAP6 POP POP POP POP POP POP JUMP JUMPDEST PUSH0 PUSH1 0x20 DUP3 DUP5 SUB SLT ISZERO PUSH2 0x1494 JUMPI PUSH2 0x1493 PUSH2 0x12C6 JUMP JUMPDEST JUMPDEST PUSH0 PUSH2 0x14A1 DUP5 DUP3 DUP6 ADD PUSH2 0x1314 JUMP JUMPDEST SWAP2 POP POP SWAP3 SWAP2 POP POP JUMP JUMPDEST PUSH0 DUP2 MLOAD SWAP1 POP SWAP2 SWAP1 POP JUMP JUMPDEST PUSH0 DUP3 DUP3 MSTORE PUSH1 0x20 DUP3 ADD SWAP1 POP SWAP3 SWAP2 POP POP JUMP JUMPDEST PUSH0 DUP2 SWAP1 POP PUSH1 0x20 DUP3 ADD SWAP1 POP SWAP2 SWAP1 POP JUMP JUMPDEST PUSH2 0x14DC DUP2 PUSH2 0x1328 JUMP JUMPDEST DUP3 MSTORE POP POP JUMP JUMPDEST PUSH2 0x14EB DUP2 PUSH2 0x12ED JUMP JUMPDEST DUP3 MSTORE POP POP JUMP JUMPDEST PUSH0 DUP3 DUP3 MSTORE PUSH1 0x20 DUP3 ADD SWAP1 POP SWAP3 SWAP2 POP POP JUMP JUMPDEST PUSH0 PUSH2 0x150B DUP3 PUSH2 0x13B7 JUMP JUMPDEST PUSH2 0x1515 DUP2 DUP6 PUSH2 0x14F1 JUMP JUMPDEST SWAP4 POP PUSH2 0x1525 DUP2 DUP6 PUSH1 0x20 DUP7 ADD PUSH2 0x13D1 JUMP JUMPDEST PUSH2 0x152E DUP2 PUSH2 0x13DF JUMP JUMPDEST DUP5 ADD SWAP2 POP POP SWAP3 SWAP2 POP POP JUMP JUMPDEST PUSH0 PUSH1 0xA0 DUP4 ADD PUSH0 DUP4 ADD MLOAD PUSH2 0x154E PUSH0 DUP7 ADD DUP3 PUSH2 0x14D3 JUMP JUMPDEST POP PUSH1 0x20 DUP4 ADD MLOAD PUSH2 0x1561 PUSH1 0x20 DUP7 ADD DUP3 PUSH2 0x14E2 JUMP JUMPDEST POP PUSH1 0x40 DUP4 ADD MLOAD DUP5 DUP3 SUB PUSH1 0x40 DUP7 ADD MSTORE PUSH2 0x1579 DUP3 DUP3 PUSH2 0x1501 JUMP JUMPDEST SWAP2 POP POP PUSH1 0x60 DUP4 ADD MLOAD PUSH2 0x158E PUSH1 0x60 DUP7 ADD DUP3 PUSH2 0x14D3 JUMP JUMPDEST POP PUSH1 0x80 DUP4 ADD MLOAD PUSH2 0x15A1 PUSH1 0x80 DUP7 ADD DUP3 PUSH2 0x14D3 JUMP JUMPDEST POP DUP1 SWAP2 POP POP SWAP3 SWAP2 POP POP JUMP JUMPDEST PUSH0 PUSH2 0x15B7 DUP4 DUP4 PUSH2 0x1539 JUMP JUMPDEST SWAP1 POP SWAP3 SWAP2 POP POP JUMP JUMPDEST PUSH0 PUSH1 0x20 DUP3 ADD SWAP1 POP SWAP2 SWAP1 POP JUMP JUMPDEST PUSH0 PUSH2 0x15D5 DUP3 PUSH2 0x14AA JUMP JUMPDEST PUSH2 0x15DF DUP2 DUP6 PUSH2 0x14B4 JUMP JUMPDEST SWAP4 POP DUP4 PUSH1 0x20 DUP3 MUL DUP6 ADD PUSH2 0x15F1 DUP6 PUSH2 0x14C4 JUMP JUMPDEST DUP1 PUSH0 JUMPDEST DUP6 DUP2 LT ISZERO PUSH2 0x162C JUMPI DUP5 DUP5 SUB DUP10 MSTORE DUP2 MLOAD PUSH2 0x160D DUP6 DUP3 PUSH2 0x15AC JUMP JUMPDEST SWAP5 POP PUSH2 0x1618 DUP4 PUSH2 0x15BF JUMP JUMPDEST SWAP3 POP PUSH1 0x20 DUP11 ADD SWAP10 POP POP PUSH1 0x1 DUP2 ADD SWAP1 POP PUSH2 0x15F4 JUMP JUMPDEST POP DUP3 SWAP8 POP DUP8 SWAP6 POP POP POP POP POP POP SWAP3 SWAP2 POP POP JUMP JUMPDEST PUSH0 PUSH1 0x20 DUP3 ADD SWAP1 POP DUP2 DUP2 SUB PUSH0 DUP4 ADD MSTORE PUSH2 0x1656 DUP2 DUP5 PUSH2 0x15CB JUMP JUMPDEST SWAP1 POP SWAP3 SWAP2 POP POP JUMP JUMPDEST PUSH0 PUSH2 0xFFFF DUP3 AND SWAP1 POP SWAP2 SWAP1 POP JUMP JUMPDEST PUSH2 0x1674 DUP2 PUSH2 0x165E JUMP JUMPDEST DUP2 EQ PUSH2 0x167E JUMPI PUSH0 DUP1 REVERT JUMPDEST POP JUMP JUMPDEST PUSH0 DUP2 CALLDATALOAD SWAP1 POP PUSH2 0x168F DUP2 PUSH2 0x166B JUMP JUMPDEST SWAP3 SWAP2 POP POP JUMP JUMPDEST PUSH0 PUSH1 0x20 DUP3 DUP5 SUB SLT ISZERO PUSH2 0x16AA JUMPI PUSH2 0x16A9 PUSH2 0x12C6 JUMP JUMPDEST JUMPDEST PUSH0 PUSH2 0x16B7 DUP5 DUP3 DUP6 ADD PUSH2 0x1681 JUMP JUMPDEST SWAP2 POP POP SWAP3 SWAP2 POP POP JUMP JUMPDEST PUSH2 0x16C9 DUP2 PUSH2 0x165E JUMP JUMPDEST DUP3 MSTORE POP POP JUMP JUMPDEST PUSH0 PUSH1 0x20 DUP3 ADD SWAP1 POP PUSH2 0x16E2 PUSH0 DUP4 ADD DUP5 PUSH2 0x16C0 JUMP JUMPDEST SWAP3 SWAP2 POP POP JUMP JUMPDEST PUSH0 DUP1 REVERT JUMPDEST PUSH0 DUP1 REVERT JUMPDEST PUSH32 0x4E487B7100000000000000000000000000000000000000000000000000000000 PUSH0 MSTORE PUSH1 0x41 PUSH1 0x4 MSTORE PUSH1 0x24 PUSH0 REVERT JUMPDEST PUSH2 0x1726 DUP3 PUSH2 0x13DF JUMP JUMPDEST DUP2 ADD DUP2 DUP2 LT PUSH8 0xFFFFFFFFFFFFFFFF DUP3 GT OR ISZERO PUSH2 0x1745 JUMPI PUSH2 0x1744 PUSH2 0x16F0 JUMP JUMPDEST JUMPDEST DUP1 PUSH1 0x40 MSTORE POP POP POP JUMP JUMPDEST PUSH0 PUSH2 0x1757 PUSH2 0x12BD JUMP JUMPDEST SWAP1 POP PUSH2 0x1763 DUP3 DUP3 PUSH2 0x171D JUMP JUMPDEST SWAP2 SWAP1 POP JUMP JUMPDEST PUSH0 PUSH8 0xFFFFFFFFFFFFFFFF DUP3 GT ISZERO PUSH2 0x1782 JUMPI PUSH2 0x1781 PUSH2 0x16F0 JUMP JUMPDEST JUMPDEST PUSH2 0x178B DUP3 PUSH2 0x13DF JUMP JUMPDEST SWAP1 POP PUSH1 0x20 DUP2 ADD SWAP1 POP SWAP2 SWAP1 POP JUMP JUMPDEST DUP3 DUP2 DUP4 CALLDATACOPY PUSH0 DUP4 DUP4 ADD MSTORE POP POP POP JUMP JUMPDEST PUSH0 PUSH2 0x17B8 PUSH2 0x17B3 DUP5 PUSH2 0x1768 JUMP JUMPDEST PUSH2 0x174E JUMP JUMPDEST SWAP1 POP DUP3 DUP2 MSTORE PUSH1 0x20 DUP2 ADD DUP5 DUP5 DUP5 ADD GT ISZERO PUSH2 0x17D4 JUMPI PUSH2 0x17D3 PUSH2 0x16EC JUMP JUMPDEST JUMPDEST PUSH2 0x17DF DUP5 DUP3 DUP6 PUSH2 0x1798 JUMP JUMPDEST POP SWAP4 SWAP3 POP POP POP JUMP JUMPDEST PUSH0 DUP3 PUSH1 0x1F DUP4 ADD SLT PUSH2 0x17FB JUMPI PUSH2 0x17FA PUSH2 0x16E8 JUMP JUMPDEST JUMPDEST DUP2 CALLDATALOAD PUSH2 0x180B DUP5 DUP3 PUSH1 0x20 DUP7 ADD PUSH2 0x17A6 JUMP JUMPDEST SWAP2 POP POP SWAP3 SWAP2 POP POP JUMP JUMPDEST PUSH0 PUSH1 0x20 DUP3 DUP5 SUB SLT ISZERO PUSH2 0x1829 JUMPI PUSH2 0x1828 PUSH2 0x12C6 JUMP JUMPDEST JUMPDEST PUSH0 DUP3 ADD CALLDATALOAD PUSH8 0xFFFFFFFFFFFFFFFF DUP2 GT ISZERO PUSH2 0x1846 JUMPI PUSH2 0x1845 PUSH2 0x12CA JUMP JUMPDEST JUMPDEST PUSH2 0x1852 DUP5 DUP3 DUP6 ADD PUSH2 0x17E7 JUMP JUMPDEST SWAP2 POP POP SWAP3 SWAP2 POP POP JUMP JUMPDEST PUSH0 PUSH1 0x20 DUP3 ADD SWAP1 POP PUSH2 0x186E PUSH0 DUP4 ADD DUP5 PUSH2 0x1399 JUMP JUMPDEST SWAP3 SWAP2 POP POP JUMP JUMPDEST PUSH0 PUSH1 0x20 DUP3 ADD SWAP1 POP PUSH2 0x1887 PUSH0 DUP4 ADD DUP5 PUSH2 0x13A8 JUMP JUMPDEST SWAP3 SWAP2 POP POP JUMP JUMPDEST PUSH0 DUP2 SWAP1 POP SWAP2 SWAP1 POP JUMP JUMPDEST PUSH0 PUSH2 0x18B0 PUSH2 0x18AB PUSH2 0x18A6 DUP5 PUSH2 0x12CE JUMP JUMPDEST PUSH2 0x188D JUMP JUMPDEST PUSH2 0x12CE JUMP JUMPDEST SWAP1 POP SWAP2 SWAP1 POP JUMP JUMPDEST PUSH0 PUSH2 0x18C1 DUP3 PUSH2 0x1896 JUMP JUMPDEST SWAP1 POP SWAP2 SWAP1 POP JUMP JUMPDEST PUSH0 PUSH2 0x18D2 DUP3 PUSH2 0x18B7 JUMP JUMPDEST SWAP1 POP SWAP2 SWAP1 POP JUMP JUMPDEST PUSH2 0x18E2 DUP2 PUSH2 0x18C8 JUMP JUMPDEST DUP3 MSTORE POP POP JUMP JUMPDEST PUSH0 PUSH1 0x20 DUP3 ADD SWAP1 POP PUSH2 0x18FB PUSH0 DUP4 ADD DUP5 PUSH2 0x18D9 JUMP JUMPDEST SWAP3 SWAP2 POP POP JUMP JUMPDEST PUSH0 PUSH1 0x20 DUP3 DUP5 SUB SLT ISZERO PUSH2 0x1916 JUMPI PUSH2 0x1915 PUSH2 0x12C6 JUMP JUMPDEST JUMPDEST PUSH0 PUSH2 0x1923 DUP5 DUP3 DUP6 ADD PUSH2 0x1347 JUMP JUMPDEST SWAP2 POP POP SWAP3 SWAP2 POP POP JUMP JUMPDEST PUSH0 PUSH1 0xA0 DUP4 ADD PUSH0 DUP4 ADD MLOAD PUSH2 0x1941 PUSH0 DUP7 ADD DUP3 PUSH2 0x14D3 JUMP JUMPDEST POP PUSH1 0x20 DUP4 ADD MLOAD PUSH2 0x1954 PUSH1 0x20 DUP7 ADD DUP3 PUSH2 0x14E2 JUMP JUMPDEST POP PUSH1 0x40 DUP4 ADD MLOAD DUP5 DUP3 SUB PUSH1 0x40 DUP7 ADD MSTORE PUSH2 0x196C DUP3 DUP3 PUSH2 0x1501 JUMP JUMPDEST SWAP2 POP POP PUSH1 0x60 DUP4 ADD MLOAD PUSH2 0x1981 PUSH1 0x60 DUP7 ADD DUP3 PUSH2 0x14D3 JUMP JUMPDEST POP PUSH1 0x80 DUP4 ADD MLOAD PUSH2 0x1994 PUSH1 0x80 DUP7 ADD DUP3 PUSH2 0x14D3 JUMP JUMPDEST POP DUP1 SWAP2 POP POP SWAP3 SWAP2 POP POP JUMP JUMPDEST PUSH0 PUSH1 0x20 DUP3 ADD SWAP1 POP DUP2 DUP2 SUB PUSH0 DUP4 ADD MSTORE PUSH2 0x19B7 DUP2 DUP5 PUSH2 0x192C JUMP JUMPDEST SWAP1 POP SWAP3 SWAP2 POP POP JUMP JUMPDEST PUSH32 0x4E487B7100000000000000000000000000000000000000000000000000000000 PUSH0 MSTORE PUSH1 0x22 PUSH1 0x4 MSTORE PUSH1 0x24 PUSH0 REVERT JUMPDEST PUSH0 PUSH1 0x2 DUP3 DIV SWAP1 POP PUSH1 0x1 DUP3 AND DUP1 PUSH2 0x1A03 JUMPI PUSH1 0x7F DUP3 AND SWAP2 POP JUMPDEST PUSH1 0x20 DUP3 LT DUP2 SUB PUSH2 0x1A16 JUMPI PUSH2 0x1A15 PUSH2 0x19BF JUMP JUMPDEST JUMPDEST POP SWAP2 SWAP1 POP JUMP JUMPDEST PUSH0 DUP1 REVERT JUMPDEST PUSH0 DUP1 REVERT JUMPDEST PUSH0 PUSH2 0x1A36 PUSH2 0x1A31 DUP5 PUSH2 0x1768 JUMP JUMPDEST PUSH2 0x174E JUMP JUMPDEST SWAP1 POP DUP3 DUP2 MSTORE PUSH1 0x20 DUP2 ADD DUP5 DUP5 DUP5 ADD GT ISZERO PUSH2 0x1A52 JUMPI PUSH2 0x1A51 PUSH2 0x16EC JUMP JUMPDEST JUMPDEST PUSH2 0x1A5D DUP5 DUP3 DUP6 PUSH2 0x13D1 JUMP JUMPDEST POP SWAP4 SWAP3 POP POP POP JUMP JUMPDEST PUSH0 DUP3 PUSH1 0x1F DUP4 ADD SLT PUSH2 0x1A79 JUMPI PUSH2 0x1A78 PUSH2 0x16E8 JUMP JUMPDEST JUMPDEST DUP2 MLOAD PUSH2 0x1A89 DUP5 DUP3 PUSH1 0x20 DUP7 ADD PUSH2 0x1A24 JUMP JUMPDEST SWAP2 POP POP SWAP3 SWAP2 POP POP JUMP JUMPDEST PUSH0 PUSH1 0x40 DUP3 DUP5 SUB SLT ISZERO PUSH2 0x1AA7 JUMPI PUSH2 0x1AA6 PUSH2 0x1A1C JUMP JUMPDEST JUMPDEST PUSH2 0x1AB1 PUSH1 0x40 PUSH2 0x174E JUMP JUMPDEST SWAP1 POP PUSH0 DUP3 ADD MLOAD PUSH8 0xFFFFFFFFFFFFFFFF DUP2 GT ISZERO PUSH2 0x1AD0 JUMPI PUSH2 0x1ACF PUSH2 0x1A20 JUMP JUMPDEST JUMPDEST PUSH2 0x1ADC DUP5 DUP3 DUP6 ADD PUSH2 0x1A65 JUMP JUMPDEST PUSH0 DUP4 ADD MSTORE POP PUSH1 0x20 DUP3 ADD MLOAD PUSH8 0xFFFFFFFFFFFFFFFF DUP2 GT ISZERO PUSH2 0x1AFF JUMPI PUSH2 0x1AFE PUSH2 0x1A20 JUMP JUMPDEST JUMPDEST PUSH2 0x1B0B DUP5 DUP3 DUP6 ADD PUSH2 0x1A65 JUMP JUMPDEST PUSH1 0x20 DUP4 ADD MSTORE POP SWAP3 SWAP2 POP POP JUMP JUMPDEST PUSH0 PUSH1 0x20 DUP3 DUP5 SUB SLT ISZERO PUSH2 0x1B2C JUMPI PUSH2 0x1B2B PUSH2 0x12C6 JUMP JUMPDEST JUMPDEST PUSH0 DUP3 ADD MLOAD PUSH8 0xFFFFFFFFFFFFFFFF DUP2 GT ISZERO PUSH2 0x1B49 JUMPI PUSH2 0x1B48 PUSH2 0x12CA JUMP JUMPDEST JUMPDEST PUSH2 0x1B55 DUP5 DUP3 DUP6 ADD PUSH2 0x1A92 JUMP JUMPDEST SWAP2 POP POP SWAP3 SWAP2 POP POP JUMP JUMPDEST PUSH32 0x75736572206E6F74207265676973746572656420000000000000000000000000 PUSH0 DUP3 ADD MSTORE POP JUMP JUMPDEST PUSH0 PUSH2 0x1B92 PUSH1 0x14 DUP4 PUSH2 0x13C1 JUMP JUMPDEST SWAP2 POP PUSH2 0x1B9D DUP3 PUSH2 0x1B5E JUMP JUMPDEST PUSH1 0x20 DUP3 ADD SWAP1 POP SWAP2 SWAP1 POP JUMP JUMPDEST PUSH0 PUSH1 0x20 DUP3 ADD SWAP1 POP DUP2 DUP2 SUB PUSH0 DUP4 ADD MSTORE PUSH2 0x1BBF DUP2 PUSH2 0x1B86 JUMP JUMPDEST SWAP1 POP SWAP2 SWAP1 POP JUMP JUMPDEST PUSH32 0x4E487B7100000000000000000000000000000000000000000000000000000000 PUSH0 MSTORE PUSH1 0x32 PUSH1 0x4 MSTORE PUSH1 0x24 PUSH0 REVERT JUMPDEST PUSH32 0x547765657420646F6573206E6F74206578697374000000000000000000000000 PUSH0 DUP3 ADD MSTORE POP JUMP JUMPDEST PUSH0 PUSH2 0x1C27 PUSH1 0x14 DUP4 PUSH2 0x13C1 JUMP JUMPDEST SWAP2 POP PUSH2 0x1C32 DUP3 PUSH2 0x1BF3 JUMP JUMPDEST PUSH1 0x20 DUP3 ADD SWAP1 POP SWAP2 SWAP1 POP JUMP JUMPDEST PUSH0 PUSH1 0x20 DUP3 ADD SWAP1 POP DUP2 DUP2 SUB PUSH0 DUP4 ADD MSTORE PUSH2 0x1C54 DUP2 PUSH2 0x1C1B JUMP JUMPDEST SWAP1 POP SWAP2 SWAP1 POP JUMP JUMPDEST PUSH32 0x4E487B7100000000000000000000000000000000000000000000000000000000 PUSH0 MSTORE PUSH1 0x11 PUSH1 0x4 MSTORE PUSH1 0x24 PUSH0 REVERT JUMPDEST PUSH0 PUSH2 0x1C92 DUP3 PUSH2 0x1328 JUMP JUMPDEST SWAP2 POP PUSH32 0xFFFFFFFFFFFFFFFFFFFFFFFFFFFFFFFFFFFFFFFFFFFFFFFFFFFFFFFFFFFFFFFF DUP3 SUB PUSH2 0x1CC4 JUMPI PUSH2 0x1CC3 PUSH2 0x1C5B JUMP JUMPDEST JUMPDEST PUSH1 0x1 DUP3 ADD SWAP1 POP SWAP2 SWAP1 POP JUMP JUMPDEST PUSH0 PUSH1 0x80 DUP3 ADD SWAP1 POP PUSH2 0x1CE2 PUSH0 DUP4 ADD DUP8 PUSH2 0x13A8 JUMP JUMPDEST PUSH2 0x1CEF PUSH1 0x20 DUP4 ADD DUP7 PUSH2 0x13A8 JUMP JUMPDEST PUSH2 0x1CFC PUSH1 0x40 DUP4 ADD DUP6 PUSH2 0x1399 JUMP JUMPDEST PUSH2 0x1D09 PUSH1 0x60 DUP4 ADD DUP5 PUSH2 0x1399 JUMP JUMPDEST SWAP6 SWAP5 POP POP POP POP POP JUMP JUMPDEST PUSH32 0x547765657420697320746F6F206C6F6E672062726F212063616C6D6100000000 PUSH0 DUP3 ADD MSTORE POP JUMP JUMPDEST PUSH0 PUSH2 0x1D46 PUSH1 0x1C DUP4 PUSH2 0x13C1 JUMP JUMPDEST SWAP2 POP PUSH2 0x1D51 DUP3 PUSH2 0x1D12 JUMP JUMPDEST PUSH1 0x20 DUP3 ADD SWAP1 POP SWAP2 SWAP1 POP JUMP JUMPDEST PUSH0 PUSH1 0x20 DUP3 ADD SWAP1 POP DUP2 DUP2 SUB PUSH0 DUP4 ADD MSTORE PUSH2 0x1D73 DUP2 PUSH2 0x1D3A JUMP JUMPDEST SWAP1 POP SWAP2 SWAP1 POP JUMP JUMPDEST PUSH0 DUP2 SWAP1 POP DUP2 PUSH0 MSTORE PUSH1 0x20 PUSH0 KECCAK256 SWAP1 POP SWAP2 SWAP1 POP JUMP JUMPDEST PUSH0 PUSH1 0x20 PUSH1 0x1F DUP4 ADD DIV SWAP1 POP SWAP2 SWAP1 POP JUMP JUMPDEST PUSH0 DUP3 DUP3 SHL SWAP1 POP SWAP3 SWAP2 POP POP JUMP JUMPDEST PUSH0 PUSH1 0x8 DUP4 MUL PUSH2 0x1DD6 PUSH32 0xFFFFFFFFFFFFFFFFFFFFFFFFFFFFFFFFFFFFFFFFFFFFFFFFFFFFFFFFFFFFFFFF DUP3 PUSH2 0x1D9B JUMP JUMPDEST PUSH2 0x1DE0 DUP7 DUP4 PUSH2 0x1D9B JUMP JUMPDEST SWAP6 POP DUP1 NOT DUP5 AND SWAP4 POP DUP1 DUP7 AND DUP5 OR SWAP3 POP POP POP SWAP4 SWAP3 POP POP POP JUMP JUMPDEST PUSH0 PUSH2 0x1E12 PUSH2 0x1E0D PUSH2 0x1E08 DUP5 PUSH2 0x1328 JUMP JUMPDEST PUSH2 0x188D JUMP JUMPDEST PUSH2 0x1328 JUMP JUMPDEST SWAP1 POP SWAP2 SWAP1 POP JUMP JUMPDEST PUSH0 DUP2 SWAP1 POP SWAP2 SWAP1 POP JUMP JUMPDEST PUSH2 0x1E2B DUP4 PUSH2 0x1DF8 JUMP JUMPDEST PUSH2 0x1E3F PUSH2 0x1E37 DUP3 PUSH2 0x1E19 JUMP JUMPDEST DUP5 DUP5 SLOAD PUSH2 0x1DA7 JUMP JUMPDEST DUP3 SSTORE POP POP POP POP JUMP JUMPDEST PUSH0 SWAP1 JUMP JUMPDEST PUSH2 0x1E53 PUSH2 0x1E47 JUMP JUMPDEST PUSH2 0x1E5E DUP2 DUP5 DUP5 PUSH2 0x1E22 JUMP JUMPDEST POP POP POP JUMP JUMPDEST JUMPDEST DUP2 DUP2 LT ISZERO PUSH2 0x1E81 JUMPI PUSH2 0x1E76 PUSH0 DUP3 PUSH2 0x1E4B JUMP JUMPDEST PUSH1 0x1 DUP2 ADD SWAP1 POP PUSH2 0x1E64 JUMP JUMPDEST POP POP JUMP JUMPDEST PUSH1 0x1F DUP3 GT ISZERO PUSH2 0x1EC6 JUMPI PUSH2 0x1E97 DUP2 PUSH2 0x1D7A JUMP JUMPDEST PUSH2 0x1EA0 DUP5 PUSH2 0x1D8C JUMP JUMPDEST DUP2 ADD PUSH1 0x20 DUP6 LT ISZERO PUSH2 0x1EAF JUMPI DUP2 SWAP1 POP JUMPDEST PUSH2 0x1EC3 PUSH2 0x1EBB DUP6 PUSH2 0x1D8C JUMP JUMPDEST DUP4 ADD DUP3 PUSH2 0x1E63 JUMP JUMPDEST POP POP JUMPDEST POP POP POP JUMP JUMPDEST PUSH0 DUP3 DUP3 SHR SWAP1 POP SWAP3 SWAP2 POP POP JUMP JUMPDEST PUSH0 PUSH2 0x1EE6 PUSH0 NOT DUP5 PUSH1 0x8 MUL PUSH2 0x1ECB JUMP JUMPDEST NOT DUP1 DUP4 AND SWAP2 POP POP SWAP3 SWAP2 POP POP JUMP JUMPDEST PUSH0 PUSH2 0x1EFE DUP4 DUP4 PUSH2 0x1ED7 JUMP JUMPDEST SWAP2 POP DUP3 PUSH1 0x2 MUL DUP3 OR SWAP1 POP SWAP3 SWAP2 POP POP JUMP JUMPDEST PUSH2 0x1F17 DUP3 PUSH2 0x13B7 JUMP JUMPDEST PUSH8 0xFFFFFFFFFFFFFFFF DUP2 GT ISZERO PUSH2 0x1F30 JUMPI PUSH2 0x1F2F PUSH2 0x16F0 JUMP JUMPDEST JUMPDEST PUSH2 0x1F3A DUP3 SLOAD PUSH2 0x19EC JUMP JUMPDEST PUSH2 0x1F45 DUP3 DUP3 DUP6 PUSH2 0x1E85 JUMP JUMPDEST PUSH0 PUSH1 0x20 SWAP1 POP PUSH1 0x1F DUP4 GT PUSH1 0x1 DUP2 EQ PUSH2 0x1F76 JUMPI PUSH0 DUP5 ISZERO PUSH2 0x1F64 JUMPI DUP3 DUP8 ADD MLOAD SWAP1 POP JUMPDEST PUSH2 0x1F6E DUP6 DUP3 PUSH2 0x1EF3 JUMP JUMPDEST DUP7 SSTORE POP PUSH2 0x1FD5 JUMP JUMPDEST PUSH1 0x1F NOT DUP5 AND PUSH2 0x1F84 DUP7 PUSH2 0x1D7A JUMP JUMPDEST PUSH0 JUMPDEST DUP3 DUP2 LT ISZERO PUSH2 0x1FAB JUMPI DUP5 DUP10 ADD MLOAD DUP3 SSTORE PUSH1 0x1 DUP3 ADD SWAP2 POP PUSH1 0x20 DUP6 ADD SWAP5 POP PUSH1 0x20 DUP2 ADD SWAP1 POP PUSH2 0x1F86 JUMP JUMPDEST DUP7 DUP4 LT ISZERO PUSH2 0x1FC8 JUMPI DUP5 DUP10 ADD MLOAD PUSH2 0x1FC4 PUSH1 0x1F DUP10 AND DUP3 PUSH2 0x1ED7 JUMP JUMPDEST DUP4 SSTORE POP JUMPDEST PUSH1 0x1 PUSH1 0x2 DUP9 MUL ADD DUP9 SSTORE POP POP POP JUMPDEST POP POP POP POP POP POP JUMP JUMPDEST PUSH0 PUSH1 0x80 DUP3 ADD SWAP1 POP PUSH2 0x1FF0 PUSH0 DUP4 ADD DUP8 PUSH2 0x1399 JUMP JUMPDEST PUSH2 0x1FFD PUSH1 0x20 DUP4 ADD DUP7 PUSH2 0x13A8 JUMP JUMPDEST DUP2 DUP2 SUB PUSH1 0x40 DUP4 ADD MSTORE PUSH2 0x200F DUP2 DUP6 PUSH2 0x13EF JUMP JUMPDEST SWAP1 POP PUSH2 0x201E PUSH1 0x60 DUP4 ADD DUP5 PUSH2 0x1399 JUMP JUMPDEST SWAP6 SWAP5 POP POP POP POP POP JUMP JUMPDEST PUSH0 PUSH2 0x2031 DUP3 PUSH2 0x1328 JUMP JUMPDEST SWAP2 POP PUSH2 0x203C DUP4 PUSH2 0x1328 JUMP JUMPDEST SWAP3 POP DUP3 DUP3 ADD SWAP1 POP DUP1 DUP3 GT ISZERO PUSH2 0x2054 JUMPI PUSH2 0x2053 PUSH2 0x1C5B JUMP JUMPDEST JUMPDEST SWAP3 SWAP2 POP POP JUMP JUMPDEST PUSH32 0x547765657420686173206E6F206C696B6573204D52204D414E00000000000000 PUSH0 DUP3 ADD MSTORE POP JUMP JUMPDEST PUSH0 PUSH2 0x208E PUSH1 0x19 DUP4 PUSH2 0x13C1 JUMP JUMPDEST SWAP2 POP PUSH2 0x2099 DUP3 PUSH2 0x205A JUMP JUMPDEST PUSH1 0x20 DUP3 ADD SWAP1 POP SWAP2 SWAP1 POP JUMP JUMPDEST PUSH0 PUSH1 0x20 DUP3 ADD SWAP1 POP DUP2 DUP2 SUB PUSH0 DUP4 ADD MSTORE PUSH2 0x20BB DUP2 PUSH2 0x2082 JUMP JUMPDEST SWAP1 POP SWAP2 SWAP1 POP JUMP JUMPDEST PUSH0 PUSH2 0x20CC DUP3 PUSH2 0x1328 JUMP JUMPDEST SWAP2 POP PUSH0 DUP3 SUB PUSH2 0x20DE JUMPI PUSH2 0x20DD PUSH2 0x1C5B JUMP JUMPDEST JUMPDEST PUSH1 0x1 DUP3 SUB SWAP1 POP SWAP2 SWAP1 POP JUMP INVALID LOG2 PUSH5 0x6970667358 0x22 SLT KECCAK256 SWAP4 0xD0 LT 0xD2 0xBA PUSH20 0x281E6B13046600C48F2380BE56E9AFCA45EF32C6 0xBE 0xBB 0x2D PUSH22 0x22D864736F6C634300081A0033000000000000000000 "
				},
				"gasEstimates": {
					"creation": {
						"codeDepositCost": "1695800",
						"executionCost": "infinite",
						"totalCost": "infinite"
					},
					"external": {
						"MAX_TWEET_LENGTH()": "2605",
						"changeTweetLength(uint16)": "infinite",
						"createTweet(string)": "infinite",
						"getAllTweets(address)": "infinite",
						"getTotalLikes(address)": "infinite",
						"getTweet(uint256)": "infinite",
						"likeTweet(address,uint256)": "infinite",
						"owner()": "2582",
						"profileContract()": "infinite",
						"renounceOwnership()": "infinite",
						"transferOwnership(address)": "infinite",
						"tweets(address,uint256)": "infinite",
						"unLikeTweet(address,uint256)": "infinite"
					}
				},
				"methodIdentifiers": {
					"MAX_TWEET_LENGTH()": "6eb10797",
					"changeTweetLength(uint16)": "58bfa4ab",
					"createTweet(string)": "7c9cd2bc",
					"getAllTweets(address)": "12e7ee1c",
					"getTotalLikes(address)": "820785cc",
					"getTweet(uint256)": "c3ad5ecb",
					"likeTweet(address,uint256)": "63378216",
					"owner()": "8da5cb5b",
					"profileContract()": "a3974b21",
					"renounceOwnership()": "715018a6",
					"transferOwnership(address)": "f2fde38b",
					"tweets(address,uint256)": "05a1b4a9",
					"unLikeTweet(address,uint256)": "9ef8633f"
				}
			},
			"storageLayout": {
				"storage": [
					{
						"astId": 8,
						"contract": "contracts/Twitter.sol:Twitter",
						"label": "_owner",
						"offset": 0,
						"slot": "0",
						"type": "t_address"
					},
					{
						"astId": 199,
						"contract": "contracts/Twitter.sol:Twitter",
						"label": "MAX_TWEET_LENGTH",
						"offset": 20,
						"slot": "0",
						"type": "t_uint16"
					},
					{
						"astId": 216,
						"contract": "contracts/Twitter.sol:Twitter",
						"label": "tweets",
						"offset": 0,
						"slot": "1",
						"type": "t_mapping(t_address,t_array(t_struct(Tweet)210_storage)dyn_storage)"
					},
					{
						"astId": 219,
						"contract": "contracts/Twitter.sol:Twitter",
						"label": "profileContract",
						"offset": 0,
						"slot": "2",
						"type": "t_contract(IProfile)194"
					}
				],
				"types": {
					"t_address": {
						"encoding": "inplace",
						"label": "address",
						"numberOfBytes": "20"
					},
					"t_array(t_struct(Tweet)210_storage)dyn_storage": {
						"base": "t_struct(Tweet)210_storage",
						"encoding": "dynamic_array",
						"label": "struct Twitter.Tweet[]",
						"numberOfBytes": "32"
					},
					"t_contract(IProfile)194": {
						"encoding": "inplace",
						"label": "contract IProfile",
						"numberOfBytes": "20"
					},
					"t_mapping(t_address,t_array(t_struct(Tweet)210_storage)dyn_storage)": {
						"encoding": "mapping",
						"key": "t_address",
						"label": "mapping(address => struct Twitter.Tweet[])",
						"numberOfBytes": "32",
						"value": "t_array(t_struct(Tweet)210_storage)dyn_storage"
					},
					"t_string_storage": {
						"encoding": "bytes",
						"label": "string",
						"numberOfBytes": "32"
					},
					"t_struct(Tweet)210_storage": {
						"encoding": "inplace",
						"label": "struct Twitter.Tweet",
						"members": [
							{
								"astId": 201,
								"contract": "contracts/Twitter.sol:Twitter",
								"label": "id",
								"offset": 0,
								"slot": "0",
								"type": "t_uint256"
							},
							{
								"astId": 203,
								"contract": "contracts/Twitter.sol:Twitter",
								"label": "author",
								"offset": 0,
								"slot": "1",
								"type": "t_address"
							},
							{
								"astId": 205,
								"contract": "contracts/Twitter.sol:Twitter",
								"label": "content",
								"offset": 0,
								"slot": "2",
								"type": "t_string_storage"
							},
							{
								"astId": 207,
								"contract": "contracts/Twitter.sol:Twitter",
								"label": "timestamp",
								"offset": 0,
								"slot": "3",
								"type": "t_uint256"
							},
							{
								"astId": 209,
								"contract": "contracts/Twitter.sol:Twitter",
								"label": "likes",
								"offset": 0,
								"slot": "4",
								"type": "t_uint256"
							}
						],
						"numberOfBytes": "160"
					},
					"t_uint16": {
						"encoding": "inplace",
						"label": "uint16",
						"numberOfBytes": "2"
					},
					"t_uint256": {
						"encoding": "inplace",
						"label": "uint256",
						"numberOfBytes": "32"
					}
				}
			},
			"userdoc": {
				"kind": "user",
				"methods": {},
				"version": 1
			}
		}
	}
}